{"contracts/Bet.sol":{"BettingContract":{"abi":[{"inputs":[],"stateMutability":"nonpayable","type":"constructor"},{"anonymous":false,"inputs":[{"indexed":false,"internalType":"uint256","name":"gameID","type":"uint256"},{"indexed":false,"internalType":"uint256","name":"betOption","type":"uint256"},{"indexed":false,"internalType":"enum BettingContract.BetState","name":"newState","type":"uint8"}],"name":"BetStateChanged","type":"event"},{"anonymous":false,"inputs":[{"indexed":false,"internalType":"uint256","name":"gameID","type":"uint256"}],"name":"GameClosed","type":"event"},{"anonymous":false,"inputs":[{"indexed":false,"internalType":"uint256","name":"gameID","type":"uint256"},{"indexed":false,"internalType":"uint256","name":"betOption","type":"uint256"}],"name":"NewBet","type":"event"},{"anonymous":false,"inputs":[{"indexed":false,"internalType":"string","name":"description","type":"string"}],"name":"NewGame","type":"event"},{"anonymous":false,"inputs":[{"indexed":false,"internalType":"uint256","name":"gameID","type":"uint256"},{"indexed":false,"internalType":"uint256[]","name":"winningBets","type":"uint256[]"},{"indexed":false,"internalType":"uint256","name":"totalWinnings","type":"uint256"}],"name":"WinningsDistributed","type":"event"},{"inputs":[{"internalType":"uint256","name":"","type":"uint256"},{"internalType":"uint256","name":"","type":"uint256"}],"name":"bets","outputs":[{"internalType":"address","name":"user","type":"address"},{"internalType":"uint256","name":"amount","type":"uint256"},{"internalType":"uint256","name":"gameID","type":"uint256"},{"internalType":"uint256","name":"betOption","type":"uint256"},{"internalType":"enum BettingContract.BetState","name":"state","type":"uint8"}],"stateMutability":"view","type":"function"},{"inputs":[{"internalType":"uint256","name":"_gameId","type":"uint256"}],"name":"closeGame","outputs":[],"stateMutability":"nonpayable","type":"function"},{"inputs":[{"internalType":"string","name":"_description","type":"string"},{"internalType":"string[]","name":"_options","type":"string[]"}],"name":"createGame","outputs":[],"stateMutability":"nonpayable","type":"function"},{"inputs":[{"internalType":"uint256","name":"_gameId","type":"uint256"},{"internalType":"uint256[]","name":"_winningBets","type":"uint256[]"}],"name":"declareWinners","outputs":[],"stateMutability":"nonpayable","type":"function"},{"inputs":[{"internalType":"uint256","name":"_gameId","type":"uint256"}],"name":"distributeWinnings","outputs":[],"stateMutability":"nonpayable","type":"function"},{"inputs":[{"internalType":"uint256","name":"","type":"uint256"}],"name":"games","outputs":[{"internalType":"string","name":"description","type":"string"},{"internalType":"bool","name":"isOpen","type":"bool"},{"internalType":"uint256","name":"totalFunds","type":"uint256"},{"internalType":"uint256","name":"numBets","type":"uint256"},{"internalType":"enum BettingContract.GameState","name":"state","type":"uint8"}],"stateMutability":"view","type":"function"},{"inputs":[],"name":"getAllGames","outputs":[{"components":[{"internalType":"string","name":"description","type":"string"},{"internalType":"bool","name":"isOpen","type":"bool"},{"internalType":"uint256[]","name":"bets","type":"uint256[]"},{"internalType":"uint256","name":"totalFunds","type":"uint256"},{"internalType":"uint256","name":"numBets","type":"uint256"},{"internalType":"enum BettingContract.GameState","name":"state","type":"uint8"},{"internalType":"string[]","name":"options","type":"string[]"}],"internalType":"struct BettingContract.Game[]","name":"","type":"tuple[]"}],"stateMutability":"view","type":"function"},{"inputs":[],"name":"numGames","outputs":[{"internalType":"uint256","name":"","type":"uint256"}],"stateMutability":"view","type":"function"},{"inputs":[],"name":"owner","outputs":[{"internalType":"address","name":"","type":"address"}],"stateMutability":"view","type":"function"},{"inputs":[{"internalType":"uint256","name":"_gameId","type":"uint256"},{"internalType":"uint256","name":"_betOption","type":"uint256"}],"name":"placeBet","outputs":[],"stateMutability":"payable","type":"function"},{"inputs":[{"internalType":"uint256","name":"_gameId","type":"uint256"}],"name":"removeBet","outputs":[],"stateMutability":"nonpayable","type":"function"},{"inputs":[{"internalType":"uint256","name":"","type":"uint256"},{"internalType":"uint256","name":"","type":"uint256"}],"name":"winningBets","outputs":[{"internalType":"uint256","name":"","type":"uint256"}],"stateMutability":"view","type":"function"}],"evm":{"bytecode":{"linkReferences":{},"object":"608060405234801561001057600080fd5b50600060038190555033600460006101000a81548173ffffffffffffffffffffffffffffffffffffffff021916908373ffffffffffffffffffffffffffffffffffffffff160217905550612e61806100696000396000f3fe6080604052600436106100a75760003560e01c80638da5cb5b116100645780638da5cb5b146101c5578063b0392058146101f0578063c3f010f714610219578063db1c45f914610244578063ee5892b01461026f578063f798f017146102ac576100a7565b8063117a5b90146100ac5780632d6ef310146100ed5780634544c48c146101165780634afe62b51461013f5780635c2029a91461015b5780636a09f6be14610184575b600080fd5b3480156100b857600080fd5b506100d360048036038101906100ce9190611973565b6102d5565b6040516100e4959493929190611ad1565b60405180910390f35b3480156100f957600080fd5b50610114600480360381019061010f9190611973565b6103bd565b005b34801561012257600080fd5b5061013d60048036038101906101389190611973565b610529565b005b61015960048036038101906101549190611b2b565b6108de565b005b34801561016757600080fd5b50610182600480360381019061017d9190611973565b610b35565b005b34801561019057600080fd5b506101ab60048036038101906101a69190611b2b565b610e20565b6040516101bc959493929190611bf4565b60405180910390f35b3480156101d157600080fd5b506101da610e90565b6040516101e79190611c47565b60405180910390f35b3480156101fc57600080fd5b5061021760048036038101906102129190611e7d565b610eb6565b005b34801561022557600080fd5b5061022e61107e565b60405161023b9190611ef5565b60405180910390f35b34801561025057600080fd5b50610259611084565b6040516102669190612264565b60405180910390f35b34801561027b57600080fd5b5061029660048036038101906102919190611b2b565b611380565b6040516102a39190611ef5565b60405180910390f35b3480156102b857600080fd5b506102d360048036038101906102ce9190612349565b6113b1565b005b600081815481106102e557600080fd5b9060005260206000209060070201600091509050806000018054610308906123d4565b80601f0160208091040260200160405190810160405280929190818152602001828054610334906123d4565b80156103815780601f1061035657610100808354040283529160200191610381565b820191906000526020600020905b81548152906001019060200180831161036457829003601f168201915b5050505050908060010160009054906101000a900460ff16908060030154908060040154908060050160009054906101000a900460ff16905085565b600460009054906101000a900473ffffffffffffffffffffffffffffffffffffffff1673ffffffffffffffffffffffffffffffffffffffff163373ffffffffffffffffffffffffffffffffffffffff161461041757600080fd5b600354811061045b576040517f08c379a000000000000000000000000000000000000000000000000000000000815260040161045290612451565b60405180910390fd5b60008082815481106104705761046f612471565b5b906000526020600020906007020190508060010160009054906101000a900460ff166104d1576040517f08c379a00000000000000000000000000000000000000000000000000000000081526004016104c8906124ec565b60405180910390fd5b60008160010160006101000a81548160ff0219169083151502179055507f71f4c9aec1b2c51302bcaf09a3f4985709759853536445493905081899603a218260405161051d9190611ef5565b60405180910390a15050565b600460009054906101000a900473ffffffffffffffffffffffffffffffffffffffff1673ffffffffffffffffffffffffffffffffffffffff163373ffffffffffffffffffffffffffffffffffffffff161461058357600080fd5b6002600381111561059757610596611a5a565b5b600082815481106105ab576105aa612471565b5b906000526020600020906007020160050160009054906101000a900460ff1660038111156105dc576105db611a5a565b5b1461061c576040517f08c379a000000000000000000000000000000000000000000000000000000000815260040161061390612558565b60405180910390fd5b600080828154811061063157610630612471565b5b90600052602060002090600702016003015490506000600260008481526020019081526020016000208054905090506000818361066e91906125d6565b905060005b8281101561083c5760006002600087815260200190815260200160002082815481106106a2576106a1612471565b5b9060005260206000200154905060006001600088815260200190815260200160002060008381526020019081526020016000209050600160048111156106eb576106ea611a5a565b5b8160040160009054906101000a900460ff16600481111561070f5761070e611a5a565b5b1461074f576040517f08c379a000000000000000000000000000000000000000000000000000000000815260040161074690612653565b60405180910390fd5b8060000160009054906101000a900473ffffffffffffffffffffffffffffffffffffffff1673ffffffffffffffffffffffffffffffffffffffff166108fc859081150290604051600060405180830381858888f193505050501580156107b9573d6000803e3d6000fd5b5060038160040160006101000a81548160ff021916908360048111156107e2576107e1611a5a565b5b02179055507fafc50e7fb00c9387da74f2f341d5c22aa896696cb64dfc3bafadad937413be77878260030154600360405161081f93929190612673565b60405180910390a150508080610834906126aa565b915050610673565b5060036000858154811061085357610852612471565b5b906000526020600020906007020160050160006101000a81548160ff0219169083600381111561088657610885611a5a565b5b02179055507f53e67379fd5ef04878470517f547c5213c707bd81b8c9a26dfd445b0ab86af518460026000878152602001908152602001600020856040516108d0939291906127d9565b60405180910390a150505050565b6003548210610922576040517f08c379a000000000000000000000000000000000000000000000000000000000815260040161091990612451565b60405180910390fd5b600080838154811061093757610936612471565b5b906000526020600020906007020190508060010160009054906101000a900460ff16610998576040517f08c379a000000000000000000000000000000000000000000000000000000000815260040161098f90612863565b60405180910390fd5b600034116109db576040517f08c379a00000000000000000000000000000000000000000000000000000000081526004016109d2906128f5565b60405180910390fd5b6000600160008581526020019081526020016000206000836004015481526020019081526020016000209050338160000160006101000a81548173ffffffffffffffffffffffffffffffffffffffff021916908373ffffffffffffffffffffffffffffffffffffffff16021790555034816001018190555083816002018190555082816003018190555060008160040160006101000a81548160ff02191690836004811115610a8d57610a8c611a5a565b5b02179055508160020182600401549080600181540180825580915050600190039060005260206000200160009091909190915055816004016000815480929190610ad6906126aa565b919050555034826003016000828254610aef9190612915565b925050819055507fbb5d359abfa911f55d10e5b1fe62141092342ccba0734899a68c3cdb935b5a578484604051610b27929190612949565b60405180910390a150505050565b6003548110610b79576040517f08c379a0000000000000000000000000000000000000000000000000000000008152600401610b7090612451565b60405180910390fd5b6000808281548110610b8e57610b8d612471565b5b906000526020600020906007020190508060010160009054906101000a900460ff16610bef576040517f08c379a0000000000000000000000000000000000000000000000000000000008152600401610be690612863565b60405180910390fd5b600081600201905060005b8180549050811015610e1a57600060016000868152602001908152602001600020600083815260200190815260200160002090503373ffffffffffffffffffffffffffffffffffffffff168160000160009054906101000a900473ffffffffffffffffffffffffffffffffffffffff1673ffffffffffffffffffffffffffffffffffffffff1603610e06573373ffffffffffffffffffffffffffffffffffffffff166108fc82600101549081150290604051600060405180830381858888f19350505050158015610ccf573d6000803e3d6000fd5b508260018480549050610ce29190612972565b81548110610cf357610cf2612471565b5b9060005260206000200154838381548110610d1157610d10612471565b5b906000526020600020018190555082805480610d3057610d2f6129a6565b5b600190038181906000526020600020016000905590557fafc50e7fb00c9387da74f2f341d5c22aa896696cb64dfc3bafadad937413be778582600301546004604051610d7e93929190612673565b60405180910390a1600160008681526020019081526020016000206000838152602001908152602001600020600080820160006101000a81549073ffffffffffffffffffffffffffffffffffffffff02191690556001820160009055600282016000905560038201600090556004820160006101000a81549060ff0219169055505050610e1a565b508080610e12906126aa565b915050610bfa565b50505050565b6001602052816000526040600020602052806000526040600020600091509150508060000160009054906101000a900473ffffffffffffffffffffffffffffffffffffffff16908060010154908060020154908060030154908060040160009054906101000a900460ff16905085565b600460009054906101000a900473ffffffffffffffffffffffffffffffffffffffff1681565b60006040518060e00160405280848152602001600115158152602001600067ffffffffffffffff811115610eed57610eec611c6c565b5b604051908082528060200260200182016040528015610f1b5781602001602082028036833780820191505090505b508152602001600081526020016000815260200160006003811115610f4357610f42611a5a565b5b81526020018381525090806001815401808255809150506001900390600052602060002090600702016000909190919091506000820151816000019081610f8a9190612b81565b5060208201518160010160006101000a81548160ff0219169083151502179055506040820151816002019080519060200190610fc79291906117b1565b50606082015181600301556080820151816004015560a08201518160050160006101000a81548160ff0219169083600381111561100757611006611a5a565b5b021790555060c08201518160060190805190602001906110289291906117fe565b5050506003600081548092919061103e906126aa565b91905055507fec7ff2cf87269be58abc820fec1f0d290b8132908dd4dd454f4e34cbf0aba08f826040516110729190612c53565b60405180910390a15050565b60035481565b6060600060035467ffffffffffffffff8111156110a4576110a3611c6c565b5b6040519080825280602002602001820160405280156110dd57816020015b6110ca611857565b8152602001906001900390816110c25790505b50905060005b600354811015611378576000818154811061110157611100612471565b5b90600052602060002090600702016040518060e001604052908160008201805461112a906123d4565b80601f0160208091040260200160405190810160405280929190818152602001828054611156906123d4565b80156111a35780601f10611178576101008083540402835291602001916111a3565b820191906000526020600020905b81548152906001019060200180831161118657829003601f168201915b505050505081526020016001820160009054906101000a900460ff161515151581526020016002820180548060200260200160405190810160405280929190818152602001828054801561121657602002820191906000526020600020905b815481526020019060010190808311611202575b5050505050815260200160038201548152602001600482015481526020016005820160009054906101000a900460ff16600381111561125857611257611a5a565b5b600381111561126a57611269611a5a565b5b815260200160068201805480602002602001604051908101604052809291908181526020016000905b8282101561133f5783829060005260206000200180546112b2906123d4565b80601f01602080910402602001604051908101604052809291908181526020018280546112de906123d4565b801561132b5780601f106113005761010080835404028352916020019161132b565b820191906000526020600020905b81548152906001019060200180831161130e57829003601f168201915b505050505081526020019060010190611293565b505050508152505082828151811061135a57611359612471565b5b60200260200101819052508080611370906126aa565b9150506110e3565b508091505090565b6002602052816000526040600020818154811061139c57600080fd5b90600052602060002001600091509150505481565b600460009054906101000a900473ffffffffffffffffffffffffffffffffffffffff1673ffffffffffffffffffffffffffffffffffffffff163373ffffffffffffffffffffffffffffffffffffffff161461140b57600080fd5b6000600381111561141f5761141e611a5a565b5b6000838154811061143357611432612471565b5b906000526020600020906007020160050160009054906101000a900460ff16600381111561146457611463611a5a565b5b146114a4576040517f08c379a000000000000000000000000000000000000000000000000000000000815260040161149b90612863565b60405180910390fd5b60008151116114e8576040517f08c379a00000000000000000000000000000000000000000000000000000000081526004016114df90612ce7565b60405180910390fd5b600082815481106114fc576114fb612471565b5b90600052602060002090600702016004015481511115611551576040517f08c379a000000000000000000000000000000000000000000000000000000000815260040161154890612d79565b60405180910390fd5b60005b815181101561165e57600082828151811061157257611571612471565b5b6020026020010151905060006001600086815260200190815260200160002060008381526020019081526020016000209050600060048111156115b8576115b7611a5a565b5b8160040160009054906101000a900460ff1660048111156115dc576115db611a5a565b5b1461161c576040517f08c379a000000000000000000000000000000000000000000000000000000000815260040161161390612e0b565b60405180910390fd5b60018160040160006101000a81548160ff0219169083600481111561164457611643611a5a565b5b021790555050508080611656906126aa565b915050611554565b5060005b6000838154811061167657611675612471565b5b9060005260206000209060070201600401548110156117365760006001600085815260200190815260200160002060008381526020019081526020016000209050600060048111156116cb576116ca611a5a565b5b8160040160009054906101000a900460ff1660048111156116ef576116ee611a5a565b5b036117225760028160040160006101000a81548160ff0219169083600481111561171c5761171b611a5a565b5b02179055505b50808061172e906126aa565b915050611662565b508060026000848152602001908152602001600020908051906020019061175e9291906117b1565b5060026000838154811061177557611774612471565b5b906000526020600020906007020160050160006101000a81548160ff021916908360038111156117a8576117a7611a5a565b5b02179055505050565b8280548282559060005260206000209081019282156117ed579160200282015b828111156117ec5782518255916020019190600101906117d1565b5b5090506117fa91906118a8565b5090565b828054828255906000526020600020908101928215611846579160200282015b828111156118455782518290816118359190612b81565b509160200191906001019061181e565b5b50905061185391906118c5565b5090565b6040518060e00160405280606081526020016000151581526020016060815260200160008152602001600081526020016000600381111561189b5761189a611a5a565b5b8152602001606081525090565b5b808211156118c15760008160009055506001016118a9565b5090565b5b808211156118e557600081816118dc91906118e9565b506001016118c6565b5090565b5080546118f5906123d4565b6000825580601f106119075750611926565b601f01602090049060005260206000209081019061192591906118a8565b5b50565b6000604051905090565b600080fd5b600080fd5b6000819050919050565b6119508161193d565b811461195b57600080fd5b50565b60008135905061196d81611947565b92915050565b60006020828403121561198957611988611933565b5b60006119978482850161195e565b91505092915050565b600081519050919050565b600082825260208201905092915050565b60005b838110156119da5780820151818401526020810190506119bf565b60008484015250505050565b6000601f19601f8301169050919050565b6000611a02826119a0565b611a0c81856119ab565b9350611a1c8185602086016119bc565b611a25816119e6565b840191505092915050565b60008115159050919050565b611a4581611a30565b82525050565b611a548161193d565b82525050565b7f4e487b7100000000000000000000000000000000000000000000000000000000600052602160045260246000fd5b60048110611a9a57611a99611a5a565b5b50565b6000819050611aab82611a89565b919050565b6000611abb82611a9d565b9050919050565b611acb81611ab0565b82525050565b600060a0820190508181036000830152611aeb81886119f7565b9050611afa6020830187611a3c565b611b076040830186611a4b565b611b146060830185611a4b565b611b216080830184611ac2565b9695505050505050565b60008060408385031215611b4257611b41611933565b5b6000611b508582860161195e565b9250506020611b618582860161195e565b9150509250929050565b600073ffffffffffffffffffffffffffffffffffffffff82169050919050565b6000611b9682611b6b565b9050919050565b611ba681611b8b565b82525050565b60058110611bbd57611bbc611a5a565b5b50565b6000819050611bce82611bac565b919050565b6000611bde82611bc0565b9050919050565b611bee81611bd3565b82525050565b600060a082019050611c096000830188611b9d565b611c166020830187611a4b565b611c236040830186611a4b565b611c306060830185611a4b565b611c3d6080830184611be5565b9695505050505050565b6000602082019050611c5c6000830184611b9d565b92915050565b600080fd5b600080fd5b7f4e487b7100000000000000000000000000000000000000000000000000000000600052604160045260246000fd5b611ca4826119e6565b810181811067ffffffffffffffff82111715611cc357611cc2611c6c565b5b80604052505050565b6000611cd6611929565b9050611ce28282611c9b565b919050565b600067ffffffffffffffff821115611d0257611d01611c6c565b5b611d0b826119e6565b9050602081019050919050565b82818337600083830152505050565b6000611d3a611d3584611ce7565b611ccc565b905082815260208101848484011115611d5657611d55611c67565b5b611d61848285611d18565b509392505050565b600082601f830112611d7e57611d7d611c62565b5b8135611d8e848260208601611d27565b91505092915050565b600067ffffffffffffffff821115611db257611db1611c6c565b5b602082029050602081019050919050565b600080fd5b6000611ddb611dd684611d97565b611ccc565b90508083825260208201905060208402830185811115611dfe57611dfd611dc3565b5b835b81811015611e4557803567ffffffffffffffff811115611e2357611e22611c62565b5b808601611e308982611d69565b85526020850194505050602081019050611e00565b5050509392505050565b600082601f830112611e6457611e63611c62565b5b8135611e74848260208601611dc8565b91505092915050565b60008060408385031215611e9457611e93611933565b5b600083013567ffffffffffffffff811115611eb257611eb1611938565b5b611ebe85828601611d69565b925050602083013567ffffffffffffffff811115611edf57611ede611938565b5b611eeb85828601611e4f565b9150509250929050565b6000602082019050611f0a6000830184611a4b565b92915050565b600081519050919050565b600082825260208201905092915050565b6000819050602082019050919050565b600082825260208201905092915050565b6000611f58826119a0565b611f628185611f3c565b9350611f728185602086016119bc565b611f7b816119e6565b840191505092915050565b611f8f81611a30565b82525050565b600081519050919050565b600082825260208201905092915050565b6000819050602082019050919050565b611fca8161193d565b82525050565b6000611fdc8383611fc1565b60208301905092915050565b6000602082019050919050565b600061200082611f95565b61200a8185611fa0565b935061201583611fb1565b8060005b8381101561204657815161202d8882611fd0565b975061203883611fe8565b925050600181019050612019565b5085935050505092915050565b61205c81611ab0565b82525050565b600081519050919050565b600082825260208201905092915050565b6000819050602082019050919050565b600061209a8383611f4d565b905092915050565b6000602082019050919050565b60006120ba82612062565b6120c4818561206d565b9350836020820285016120d68561207e565b8060005b8581101561211257848403895281516120f3858261208e565b94506120fe836120a2565b925060208a019950506001810190506120da565b50829750879550505050505092915050565b600060e08301600083015184820360008601526121418282611f4d565b91505060208301516121566020860182611f86565b506040830151848203604086015261216e8282611ff5565b91505060608301516121836060860182611fc1565b5060808301516121966080860182611fc1565b5060a08301516121a960a0860182612053565b5060c083015184820360c08601526121c182826120af565b9150508091505092915050565b60006121da8383612124565b905092915050565b6000602082019050919050565b60006121fa82611f10565b6122048185611f1b565b93508360208202850161221685611f2c565b8060005b85811015612252578484038952815161223385826121ce565b945061223e836121e2565b925060208a0199505060018101905061221a565b50829750879550505050505092915050565b6000602082019050818103600083015261227e81846121ef565b905092915050565b600067ffffffffffffffff8211156122a1576122a0611c6c565b5b602082029050602081019050919050565b60006122c56122c084612286565b611ccc565b905080838252602082019050602084028301858111156122e8576122e7611dc3565b5b835b8181101561231157806122fd888261195e565b8452602084019350506020810190506122ea565b5050509392505050565b600082601f8301126123305761232f611c62565b5b81356123408482602086016122b2565b91505092915050565b600080604083850312156123605761235f611933565b5b600061236e8582860161195e565b925050602083013567ffffffffffffffff81111561238f5761238e611938565b5b61239b8582860161231b565b9150509250929050565b7f4e487b7100000000000000000000000000000000000000000000000000000000600052602260045260246000fd5b600060028204905060018216806123ec57607f821691505b6020821081036123ff576123fe6123a5565b5b50919050565b7f496e76616c69642067616d652049440000000000000000000000000000000000600082015250565b600061243b600f836119ab565b915061244682612405565b602082019050919050565b6000602082019050818103600083015261246a8161242e565b9050919050565b7f4e487b7100000000000000000000000000000000000000000000000000000000600052603260045260246000fd5b7f47616d6520697320616c726561647920636c6f73656400000000000000000000600082015250565b60006124d66016836119ab565b91506124e1826124a0565b602082019050919050565b60006020820190508181036000830152612505816124c9565b9050919050565b7f47616d65206973206e6f742077616974696e6720666f722077696e6e65727300600082015250565b6000612542601f836119ab565b915061254d8261250c565b602082019050919050565b6000602082019050818103600083015261257181612535565b9050919050565b7f4e487b7100000000000000000000000000000000000000000000000000000000600052601260045260246000fd5b7f4e487b7100000000000000000000000000000000000000000000000000000000600052601160045260246000fd5b60006125e18261193d565b91506125ec8361193d565b9250826125fc576125fb612578565b5b828204905092915050565b7f426574206973206e6f7420612077696e6e696e67206265740000000000000000600082015250565b600061263d6018836119ab565b915061264882612607565b602082019050919050565b6000602082019050818103600083015261266c81612630565b9050919050565b60006060820190506126886000830186611a4b565b6126956020830185611a4b565b6126a26040830184611be5565b949350505050565b60006126b58261193d565b91507fffffffffffffffffffffffffffffffffffffffffffffffffffffffffffffffff82036126e7576126e66125a7565b5b600182019050919050565b600081549050919050565b600082825260208201905092915050565b60008190508160005260206000209050919050565b60008160001c9050919050565b6000819050919050565b600061274d61274883612723565b612730565b9050919050565b6000612760825461273a565b9050919050565b6000600182019050919050565b600061277f826126f2565b61278981856126fd565b93506127948361270e565b8060005b838110156127cc576127a982612754565b6127b38882611fd0565b97506127be83612767565b925050600181019050612798565b5085935050505092915050565b60006060820190506127ee6000830186611a4b565b81810360208301526128008185612774565b905061280f6040830184611a4b565b949350505050565b7f47616d65206973206e6f74206f70656e00000000000000000000000000000000600082015250565b600061284d6010836119ab565b915061285882612817565b602082019050919050565b6000602082019050818103600083015261287c81612840565b9050919050565b7f42657420616d6f756e74206d7573742062652067726561746572207468616e2060008201527f3000000000000000000000000000000000000000000000000000000000000000602082015250565b60006128df6021836119ab565b91506128ea82612883565b604082019050919050565b6000602082019050818103600083015261290e816128d2565b9050919050565b60006129208261193d565b915061292b8361193d565b9250828201905080821115612943576129426125a7565b5b92915050565b600060408201905061295e6000830185611a4b565b61296b6020830184611a4b565b9392505050565b600061297d8261193d565b91506129888361193d565b92508282039050818111156129a05761299f6125a7565b5b92915050565b7f4e487b7100000000000000000000000000000000000000000000000000000000600052603160045260246000fd5b60008190508160005260206000209050919050565b60006020601f8301049050919050565b600082821b905092915050565b600060088302612a377fffffffffffffffffffffffffffffffffffffffffffffffffffffffffffffffff826129fa565b612a4186836129fa565b95508019841693508086168417925050509392505050565b6000819050919050565b6000612a7e612a79612a748461193d565b612a59565b61193d565b9050919050565b6000819050919050565b612a9883612a63565b612aac612aa482612a85565b848454612a07565b825550505050565b600090565b612ac1612ab4565b612acc818484612a8f565b505050565b5b81811015612af057612ae5600082612ab9565b600181019050612ad2565b5050565b601f821115612b3557612b06816129d5565b612b0f846129ea565b81016020851015612b1e578190505b612b32612b2a856129ea565b830182612ad1565b50505b505050565b600082821c905092915050565b6000612b5860001984600802612b3a565b1980831691505092915050565b6000612b718383612b47565b9150826002028217905092915050565b612b8a826119a0565b67ffffffffffffffff811115612ba357612ba2611c6c565b5b612bad82546123d4565b612bb8828285612af4565b600060209050601f831160018114612beb5760008415612bd9578287015190505b612be38582612b65565b865550612c4b565b601f198416612bf9866129d5565b60005b82811015612c2157848901518255600182019150602085019450602081019050612bfc565b86831015612c3e5784890151612c3a601f891682612b47565b8355505b6001600288020188555050505b505050505050565b60006020820190508181036000830152612c6d81846119f7565b905092915050565b7f4174206c65617374206f6e652077696e6e696e6720626574206d75737420626560008201527f2070726f76696465640000000000000000000000000000000000000000000000602082015250565b6000612cd16029836119ab565b9150612cdc82612c75565b604082019050919050565b60006020820190508181036000830152612d0081612cc4565b9050919050565b7f496e76616c6964206e756d626572206f662077696e6e696e672062657473207060008201527f726f766964656400000000000000000000000000000000000000000000000000602082015250565b6000612d636027836119ab565b9150612d6e82612d07565b604082019050919050565b60006020820190508181036000830152612d9281612d56565b9050919050565b7f42657420697320616c7265616479206465636c6172656420617320612077696e60008201527f6e6572206f72206c6f7365720000000000000000000000000000000000000000602082015250565b6000612df5602c836119ab565b9150612e0082612d99565b604082019050919050565b60006020820190508181036000830152612e2481612de8565b905091905056fea26469706673582212204991163f592a1d2b2e0e3a7223746fc76a5e9ad253db91d77ac974f0c305fe4864736f6c63430008130033","opcodes":"PUSH1 0x80 PUSH1 0x40 MSTORE CALLVALUE DUP1 ISZERO PUSH2 0x10 JUMPI PUSH1 0x0 DUP1 REVERT JUMPDEST POP PUSH1 0x0 PUSH1 0x3 DUP2 SWAP1 SSTORE POP CALLER PUSH1 0x4 PUSH1 0x0 PUSH2 0x100 EXP DUP2 SLOAD DUP2 PUSH20 0xFFFFFFFFFFFFFFFFFFFFFFFFFFFFFFFFFFFFFFFF MUL NOT AND SWAP1 DUP4 PUSH20 0xFFFFFFFFFFFFFFFFFFFFFFFFFFFFFFFFFFFFFFFF AND MUL OR SWAP1 SSTORE POP PUSH2 0x2E61 DUP1 PUSH2 0x69 PUSH1 0x0 CODECOPY PUSH1 0x0 RETURN INVALID PUSH1 0x80 PUSH1 0x40 MSTORE PUSH1 0x4 CALLDATASIZE LT PUSH2 0xA7 JUMPI PUSH1 0x0 CALLDATALOAD PUSH1 0xE0 SHR DUP1 PUSH4 0x8DA5CB5B GT PUSH2 0x64 JUMPI DUP1 PUSH4 0x8DA5CB5B EQ PUSH2 0x1C5 JUMPI DUP1 PUSH4 0xB0392058 EQ PUSH2 0x1F0 JUMPI DUP1 PUSH4 0xC3F010F7 EQ PUSH2 0x219 JUMPI DUP1 PUSH4 0xDB1C45F9 EQ PUSH2 0x244 JUMPI DUP1 PUSH4 0xEE5892B0 EQ PUSH2 0x26F JUMPI DUP1 PUSH4 0xF798F017 EQ PUSH2 0x2AC JUMPI PUSH2 0xA7 JUMP JUMPDEST DUP1 PUSH4 0x117A5B90 EQ PUSH2 0xAC JUMPI DUP1 PUSH4 0x2D6EF310 EQ PUSH2 0xED JUMPI DUP1 PUSH4 0x4544C48C EQ PUSH2 0x116 JUMPI DUP1 PUSH4 0x4AFE62B5 EQ PUSH2 0x13F JUMPI DUP1 PUSH4 0x5C2029A9 EQ PUSH2 0x15B JUMPI DUP1 PUSH4 0x6A09F6BE EQ PUSH2 0x184 JUMPI JUMPDEST PUSH1 0x0 DUP1 REVERT JUMPDEST CALLVALUE DUP1 ISZERO PUSH2 0xB8 JUMPI PUSH1 0x0 DUP1 REVERT JUMPDEST POP PUSH2 0xD3 PUSH1 0x4 DUP1 CALLDATASIZE SUB DUP2 ADD SWAP1 PUSH2 0xCE SWAP2 SWAP1 PUSH2 0x1973 JUMP JUMPDEST PUSH2 0x2D5 JUMP JUMPDEST PUSH1 0x40 MLOAD PUSH2 0xE4 SWAP6 SWAP5 SWAP4 SWAP3 SWAP2 SWAP1 PUSH2 0x1AD1 JUMP JUMPDEST PUSH1 0x40 MLOAD DUP1 SWAP2 SUB SWAP1 RETURN JUMPDEST CALLVALUE DUP1 ISZERO PUSH2 0xF9 JUMPI PUSH1 0x0 DUP1 REVERT JUMPDEST POP PUSH2 0x114 PUSH1 0x4 DUP1 CALLDATASIZE SUB DUP2 ADD SWAP1 PUSH2 0x10F SWAP2 SWAP1 PUSH2 0x1973 JUMP JUMPDEST PUSH2 0x3BD JUMP JUMPDEST STOP JUMPDEST CALLVALUE DUP1 ISZERO PUSH2 0x122 JUMPI PUSH1 0x0 DUP1 REVERT JUMPDEST POP PUSH2 0x13D PUSH1 0x4 DUP1 CALLDATASIZE SUB DUP2 ADD SWAP1 PUSH2 0x138 SWAP2 SWAP1 PUSH2 0x1973 JUMP JUMPDEST PUSH2 0x529 JUMP JUMPDEST STOP JUMPDEST PUSH2 0x159 PUSH1 0x4 DUP1 CALLDATASIZE SUB DUP2 ADD SWAP1 PUSH2 0x154 SWAP2 SWAP1 PUSH2 0x1B2B JUMP JUMPDEST PUSH2 0x8DE JUMP JUMPDEST STOP JUMPDEST CALLVALUE DUP1 ISZERO PUSH2 0x167 JUMPI PUSH1 0x0 DUP1 REVERT JUMPDEST POP PUSH2 0x182 PUSH1 0x4 DUP1 CALLDATASIZE SUB DUP2 ADD SWAP1 PUSH2 0x17D SWAP2 SWAP1 PUSH2 0x1973 JUMP JUMPDEST PUSH2 0xB35 JUMP JUMPDEST STOP JUMPDEST CALLVALUE DUP1 ISZERO PUSH2 0x190 JUMPI PUSH1 0x0 DUP1 REVERT JUMPDEST POP PUSH2 0x1AB PUSH1 0x4 DUP1 CALLDATASIZE SUB DUP2 ADD SWAP1 PUSH2 0x1A6 SWAP2 SWAP1 PUSH2 0x1B2B JUMP JUMPDEST PUSH2 0xE20 JUMP JUMPDEST PUSH1 0x40 MLOAD PUSH2 0x1BC SWAP6 SWAP5 SWAP4 SWAP3 SWAP2 SWAP1 PUSH2 0x1BF4 JUMP JUMPDEST PUSH1 0x40 MLOAD DUP1 SWAP2 SUB SWAP1 RETURN JUMPDEST CALLVALUE DUP1 ISZERO PUSH2 0x1D1 JUMPI PUSH1 0x0 DUP1 REVERT JUMPDEST POP PUSH2 0x1DA PUSH2 0xE90 JUMP JUMPDEST PUSH1 0x40 MLOAD PUSH2 0x1E7 SWAP2 SWAP1 PUSH2 0x1C47 JUMP JUMPDEST PUSH1 0x40 MLOAD DUP1 SWAP2 SUB SWAP1 RETURN JUMPDEST CALLVALUE DUP1 ISZERO PUSH2 0x1FC JUMPI PUSH1 0x0 DUP1 REVERT JUMPDEST POP PUSH2 0x217 PUSH1 0x4 DUP1 CALLDATASIZE SUB DUP2 ADD SWAP1 PUSH2 0x212 SWAP2 SWAP1 PUSH2 0x1E7D JUMP JUMPDEST PUSH2 0xEB6 JUMP JUMPDEST STOP JUMPDEST CALLVALUE DUP1 ISZERO PUSH2 0x225 JUMPI PUSH1 0x0 DUP1 REVERT JUMPDEST POP PUSH2 0x22E PUSH2 0x107E JUMP JUMPDEST PUSH1 0x40 MLOAD PUSH2 0x23B SWAP2 SWAP1 PUSH2 0x1EF5 JUMP JUMPDEST PUSH1 0x40 MLOAD DUP1 SWAP2 SUB SWAP1 RETURN JUMPDEST CALLVALUE DUP1 ISZERO PUSH2 0x250 JUMPI PUSH1 0x0 DUP1 REVERT JUMPDEST POP PUSH2 0x259 PUSH2 0x1084 JUMP JUMPDEST PUSH1 0x40 MLOAD PUSH2 0x266 SWAP2 SWAP1 PUSH2 0x2264 JUMP JUMPDEST PUSH1 0x40 MLOAD DUP1 SWAP2 SUB SWAP1 RETURN JUMPDEST CALLVALUE DUP1 ISZERO PUSH2 0x27B JUMPI PUSH1 0x0 DUP1 REVERT JUMPDEST POP PUSH2 0x296 PUSH1 0x4 DUP1 CALLDATASIZE SUB DUP2 ADD SWAP1 PUSH2 0x291 SWAP2 SWAP1 PUSH2 0x1B2B JUMP JUMPDEST PUSH2 0x1380 JUMP JUMPDEST PUSH1 0x40 MLOAD PUSH2 0x2A3 SWAP2 SWAP1 PUSH2 0x1EF5 JUMP JUMPDEST PUSH1 0x40 MLOAD DUP1 SWAP2 SUB SWAP1 RETURN JUMPDEST CALLVALUE DUP1 ISZERO PUSH2 0x2B8 JUMPI PUSH1 0x0 DUP1 REVERT JUMPDEST POP PUSH2 0x2D3 PUSH1 0x4 DUP1 CALLDATASIZE SUB DUP2 ADD SWAP1 PUSH2 0x2CE SWAP2 SWAP1 PUSH2 0x2349 JUMP JUMPDEST PUSH2 0x13B1 JUMP JUMPDEST STOP JUMPDEST PUSH1 0x0 DUP2 DUP2 SLOAD DUP2 LT PUSH2 0x2E5 JUMPI PUSH1 0x0 DUP1 REVERT JUMPDEST SWAP1 PUSH1 0x0 MSTORE PUSH1 0x20 PUSH1 0x0 KECCAK256 SWAP1 PUSH1 0x7 MUL ADD PUSH1 0x0 SWAP2 POP SWAP1 POP DUP1 PUSH1 0x0 ADD DUP1 SLOAD PUSH2 0x308 SWAP1 PUSH2 0x23D4 JUMP JUMPDEST DUP1 PUSH1 0x1F ADD PUSH1 0x20 DUP1 SWAP2 DIV MUL PUSH1 0x20 ADD PUSH1 0x40 MLOAD SWAP1 DUP2 ADD PUSH1 0x40 MSTORE DUP1 SWAP3 SWAP2 SWAP1 DUP2 DUP2 MSTORE PUSH1 0x20 ADD DUP3 DUP1 SLOAD PUSH2 0x334 SWAP1 PUSH2 0x23D4 JUMP JUMPDEST DUP1 ISZERO PUSH2 0x381 JUMPI DUP1 PUSH1 0x1F LT PUSH2 0x356 JUMPI PUSH2 0x100 DUP1 DUP4 SLOAD DIV MUL DUP4 MSTORE SWAP2 PUSH1 0x20 ADD SWAP2 PUSH2 0x381 JUMP JUMPDEST DUP3 ADD SWAP2 SWAP1 PUSH1 0x0 MSTORE PUSH1 0x20 PUSH1 0x0 KECCAK256 SWAP1 JUMPDEST DUP2 SLOAD DUP2 MSTORE SWAP1 PUSH1 0x1 ADD SWAP1 PUSH1 0x20 ADD DUP1 DUP4 GT PUSH2 0x364 JUMPI DUP3 SWAP1 SUB PUSH1 0x1F AND DUP3 ADD SWAP2 JUMPDEST POP POP POP POP POP SWAP1 DUP1 PUSH1 0x1 ADD PUSH1 0x0 SWAP1 SLOAD SWAP1 PUSH2 0x100 EXP SWAP1 DIV PUSH1 0xFF AND SWAP1 DUP1 PUSH1 0x3 ADD SLOAD SWAP1 DUP1 PUSH1 0x4 ADD SLOAD SWAP1 DUP1 PUSH1 0x5 ADD PUSH1 0x0 SWAP1 SLOAD SWAP1 PUSH2 0x100 EXP SWAP1 DIV PUSH1 0xFF AND SWAP1 POP DUP6 JUMP JUMPDEST PUSH1 0x4 PUSH1 0x0 SWAP1 SLOAD SWAP1 PUSH2 0x100 EXP SWAP1 DIV PUSH20 0xFFFFFFFFFFFFFFFFFFFFFFFFFFFFFFFFFFFFFFFF AND PUSH20 0xFFFFFFFFFFFFFFFFFFFFFFFFFFFFFFFFFFFFFFFF AND CALLER PUSH20 0xFFFFFFFFFFFFFFFFFFFFFFFFFFFFFFFFFFFFFFFF AND EQ PUSH2 0x417 JUMPI PUSH1 0x0 DUP1 REVERT JUMPDEST PUSH1 0x3 SLOAD DUP2 LT PUSH2 0x45B JUMPI PUSH1 0x40 MLOAD PUSH32 0x8C379A000000000000000000000000000000000000000000000000000000000 DUP2 MSTORE PUSH1 0x4 ADD PUSH2 0x452 SWAP1 PUSH2 0x2451 JUMP JUMPDEST PUSH1 0x40 MLOAD DUP1 SWAP2 SUB SWAP1 REVERT JUMPDEST PUSH1 0x0 DUP1 DUP3 DUP2 SLOAD DUP2 LT PUSH2 0x470 JUMPI PUSH2 0x46F PUSH2 0x2471 JUMP JUMPDEST JUMPDEST SWAP1 PUSH1 0x0 MSTORE PUSH1 0x20 PUSH1 0x0 KECCAK256 SWAP1 PUSH1 0x7 MUL ADD SWAP1 POP DUP1 PUSH1 0x1 ADD PUSH1 0x0 SWAP1 SLOAD SWAP1 PUSH2 0x100 EXP SWAP1 DIV PUSH1 0xFF AND PUSH2 0x4D1 JUMPI PUSH1 0x40 MLOAD PUSH32 0x8C379A000000000000000000000000000000000000000000000000000000000 DUP2 MSTORE PUSH1 0x4 ADD PUSH2 0x4C8 SWAP1 PUSH2 0x24EC JUMP JUMPDEST PUSH1 0x40 MLOAD DUP1 SWAP2 SUB SWAP1 REVERT JUMPDEST PUSH1 0x0 DUP2 PUSH1 0x1 ADD PUSH1 0x0 PUSH2 0x100 EXP DUP2 SLOAD DUP2 PUSH1 0xFF MUL NOT AND SWAP1 DUP4 ISZERO ISZERO MUL OR SWAP1 SSTORE POP PUSH32 0x71F4C9AEC1B2C51302BCAF09A3F4985709759853536445493905081899603A21 DUP3 PUSH1 0x40 MLOAD PUSH2 0x51D SWAP2 SWAP1 PUSH2 0x1EF5 JUMP JUMPDEST PUSH1 0x40 MLOAD DUP1 SWAP2 SUB SWAP1 LOG1 POP POP JUMP JUMPDEST PUSH1 0x4 PUSH1 0x0 SWAP1 SLOAD SWAP1 PUSH2 0x100 EXP SWAP1 DIV PUSH20 0xFFFFFFFFFFFFFFFFFFFFFFFFFFFFFFFFFFFFFFFF AND PUSH20 0xFFFFFFFFFFFFFFFFFFFFFFFFFFFFFFFFFFFFFFFF AND CALLER PUSH20 0xFFFFFFFFFFFFFFFFFFFFFFFFFFFFFFFFFFFFFFFF AND EQ PUSH2 0x583 JUMPI PUSH1 0x0 DUP1 REVERT JUMPDEST PUSH1 0x2 PUSH1 0x3 DUP2 GT ISZERO PUSH2 0x597 JUMPI PUSH2 0x596 PUSH2 0x1A5A JUMP JUMPDEST JUMPDEST PUSH1 0x0 DUP3 DUP2 SLOAD DUP2 LT PUSH2 0x5AB JUMPI PUSH2 0x5AA PUSH2 0x2471 JUMP JUMPDEST JUMPDEST SWAP1 PUSH1 0x0 MSTORE PUSH1 0x20 PUSH1 0x0 KECCAK256 SWAP1 PUSH1 0x7 MUL ADD PUSH1 0x5 ADD PUSH1 0x0 SWAP1 SLOAD SWAP1 PUSH2 0x100 EXP SWAP1 DIV PUSH1 0xFF AND PUSH1 0x3 DUP2 GT ISZERO PUSH2 0x5DC JUMPI PUSH2 0x5DB PUSH2 0x1A5A JUMP JUMPDEST JUMPDEST EQ PUSH2 0x61C JUMPI PUSH1 0x40 MLOAD PUSH32 0x8C379A000000000000000000000000000000000000000000000000000000000 DUP2 MSTORE PUSH1 0x4 ADD PUSH2 0x613 SWAP1 PUSH2 0x2558 JUMP JUMPDEST PUSH1 0x40 MLOAD DUP1 SWAP2 SUB SWAP1 REVERT JUMPDEST PUSH1 0x0 DUP1 DUP3 DUP2 SLOAD DUP2 LT PUSH2 0x631 JUMPI PUSH2 0x630 PUSH2 0x2471 JUMP JUMPDEST JUMPDEST SWAP1 PUSH1 0x0 MSTORE PUSH1 0x20 PUSH1 0x0 KECCAK256 SWAP1 PUSH1 0x7 MUL ADD PUSH1 0x3 ADD SLOAD SWAP1 POP PUSH1 0x0 PUSH1 0x2 PUSH1 0x0 DUP5 DUP2 MSTORE PUSH1 0x20 ADD SWAP1 DUP2 MSTORE PUSH1 0x20 ADD PUSH1 0x0 KECCAK256 DUP1 SLOAD SWAP1 POP SWAP1 POP PUSH1 0x0 DUP2 DUP4 PUSH2 0x66E SWAP2 SWAP1 PUSH2 0x25D6 JUMP JUMPDEST SWAP1 POP PUSH1 0x0 JUMPDEST DUP3 DUP2 LT ISZERO PUSH2 0x83C JUMPI PUSH1 0x0 PUSH1 0x2 PUSH1 0x0 DUP8 DUP2 MSTORE PUSH1 0x20 ADD SWAP1 DUP2 MSTORE PUSH1 0x20 ADD PUSH1 0x0 KECCAK256 DUP3 DUP2 SLOAD DUP2 LT PUSH2 0x6A2 JUMPI PUSH2 0x6A1 PUSH2 0x2471 JUMP JUMPDEST JUMPDEST SWAP1 PUSH1 0x0 MSTORE PUSH1 0x20 PUSH1 0x0 KECCAK256 ADD SLOAD SWAP1 POP PUSH1 0x0 PUSH1 0x1 PUSH1 0x0 DUP9 DUP2 MSTORE PUSH1 0x20 ADD SWAP1 DUP2 MSTORE PUSH1 0x20 ADD PUSH1 0x0 KECCAK256 PUSH1 0x0 DUP4 DUP2 MSTORE PUSH1 0x20 ADD SWAP1 DUP2 MSTORE PUSH1 0x20 ADD PUSH1 0x0 KECCAK256 SWAP1 POP PUSH1 0x1 PUSH1 0x4 DUP2 GT ISZERO PUSH2 0x6EB JUMPI PUSH2 0x6EA PUSH2 0x1A5A JUMP JUMPDEST JUMPDEST DUP2 PUSH1 0x4 ADD PUSH1 0x0 SWAP1 SLOAD SWAP1 PUSH2 0x100 EXP SWAP1 DIV PUSH1 0xFF AND PUSH1 0x4 DUP2 GT ISZERO PUSH2 0x70F JUMPI PUSH2 0x70E PUSH2 0x1A5A JUMP JUMPDEST JUMPDEST EQ PUSH2 0x74F JUMPI PUSH1 0x40 MLOAD PUSH32 0x8C379A000000000000000000000000000000000000000000000000000000000 DUP2 MSTORE PUSH1 0x4 ADD PUSH2 0x746 SWAP1 PUSH2 0x2653 JUMP JUMPDEST PUSH1 0x40 MLOAD DUP1 SWAP2 SUB SWAP1 REVERT JUMPDEST DUP1 PUSH1 0x0 ADD PUSH1 0x0 SWAP1 SLOAD SWAP1 PUSH2 0x100 EXP SWAP1 DIV PUSH20 0xFFFFFFFFFFFFFFFFFFFFFFFFFFFFFFFFFFFFFFFF AND PUSH20 0xFFFFFFFFFFFFFFFFFFFFFFFFFFFFFFFFFFFFFFFF AND PUSH2 0x8FC DUP6 SWAP1 DUP2 ISZERO MUL SWAP1 PUSH1 0x40 MLOAD PUSH1 0x0 PUSH1 0x40 MLOAD DUP1 DUP4 SUB DUP2 DUP6 DUP9 DUP9 CALL SWAP4 POP POP POP POP ISZERO DUP1 ISZERO PUSH2 0x7B9 JUMPI RETURNDATASIZE PUSH1 0x0 DUP1 RETURNDATACOPY RETURNDATASIZE PUSH1 0x0 REVERT JUMPDEST POP PUSH1 0x3 DUP2 PUSH1 0x4 ADD PUSH1 0x0 PUSH2 0x100 EXP DUP2 SLOAD DUP2 PUSH1 0xFF MUL NOT AND SWAP1 DUP4 PUSH1 0x4 DUP2 GT ISZERO PUSH2 0x7E2 JUMPI PUSH2 0x7E1 PUSH2 0x1A5A JUMP JUMPDEST JUMPDEST MUL OR SWAP1 SSTORE POP PUSH32 0xAFC50E7FB00C9387DA74F2F341D5C22AA896696CB64DFC3BAFADAD937413BE77 DUP8 DUP3 PUSH1 0x3 ADD SLOAD PUSH1 0x3 PUSH1 0x40 MLOAD PUSH2 0x81F SWAP4 SWAP3 SWAP2 SWAP1 PUSH2 0x2673 JUMP JUMPDEST PUSH1 0x40 MLOAD DUP1 SWAP2 SUB SWAP1 LOG1 POP POP DUP1 DUP1 PUSH2 0x834 SWAP1 PUSH2 0x26AA JUMP JUMPDEST SWAP2 POP POP PUSH2 0x673 JUMP JUMPDEST POP PUSH1 0x3 PUSH1 0x0 DUP6 DUP2 SLOAD DUP2 LT PUSH2 0x853 JUMPI PUSH2 0x852 PUSH2 0x2471 JUMP JUMPDEST JUMPDEST SWAP1 PUSH1 0x0 MSTORE PUSH1 0x20 PUSH1 0x0 KECCAK256 SWAP1 PUSH1 0x7 MUL ADD PUSH1 0x5 ADD PUSH1 0x0 PUSH2 0x100 EXP DUP2 SLOAD DUP2 PUSH1 0xFF MUL NOT AND SWAP1 DUP4 PUSH1 0x3 DUP2 GT ISZERO PUSH2 0x886 JUMPI PUSH2 0x885 PUSH2 0x1A5A JUMP JUMPDEST JUMPDEST MUL OR SWAP1 SSTORE POP PUSH32 0x53E67379FD5EF04878470517F547C5213C707BD81B8C9A26DFD445B0AB86AF51 DUP5 PUSH1 0x2 PUSH1 0x0 DUP8 DUP2 MSTORE PUSH1 0x20 ADD SWAP1 DUP2 MSTORE PUSH1 0x20 ADD PUSH1 0x0 KECCAK256 DUP6 PUSH1 0x40 MLOAD PUSH2 0x8D0 SWAP4 SWAP3 SWAP2 SWAP1 PUSH2 0x27D9 JUMP JUMPDEST PUSH1 0x40 MLOAD DUP1 SWAP2 SUB SWAP1 LOG1 POP POP POP POP JUMP JUMPDEST PUSH1 0x3 SLOAD DUP3 LT PUSH2 0x922 JUMPI PUSH1 0x40 MLOAD PUSH32 0x8C379A000000000000000000000000000000000000000000000000000000000 DUP2 MSTORE PUSH1 0x4 ADD PUSH2 0x919 SWAP1 PUSH2 0x2451 JUMP JUMPDEST PUSH1 0x40 MLOAD DUP1 SWAP2 SUB SWAP1 REVERT JUMPDEST PUSH1 0x0 DUP1 DUP4 DUP2 SLOAD DUP2 LT PUSH2 0x937 JUMPI PUSH2 0x936 PUSH2 0x2471 JUMP JUMPDEST JUMPDEST SWAP1 PUSH1 0x0 MSTORE PUSH1 0x20 PUSH1 0x0 KECCAK256 SWAP1 PUSH1 0x7 MUL ADD SWAP1 POP DUP1 PUSH1 0x1 ADD PUSH1 0x0 SWAP1 SLOAD SWAP1 PUSH2 0x100 EXP SWAP1 DIV PUSH1 0xFF AND PUSH2 0x998 JUMPI PUSH1 0x40 MLOAD PUSH32 0x8C379A000000000000000000000000000000000000000000000000000000000 DUP2 MSTORE PUSH1 0x4 ADD PUSH2 0x98F SWAP1 PUSH2 0x2863 JUMP JUMPDEST PUSH1 0x40 MLOAD DUP1 SWAP2 SUB SWAP1 REVERT JUMPDEST PUSH1 0x0 CALLVALUE GT PUSH2 0x9DB JUMPI PUSH1 0x40 MLOAD PUSH32 0x8C379A000000000000000000000000000000000000000000000000000000000 DUP2 MSTORE PUSH1 0x4 ADD PUSH2 0x9D2 SWAP1 PUSH2 0x28F5 JUMP JUMPDEST PUSH1 0x40 MLOAD DUP1 SWAP2 SUB SWAP1 REVERT JUMPDEST PUSH1 0x0 PUSH1 0x1 PUSH1 0x0 DUP6 DUP2 MSTORE PUSH1 0x20 ADD SWAP1 DUP2 MSTORE PUSH1 0x20 ADD PUSH1 0x0 KECCAK256 PUSH1 0x0 DUP4 PUSH1 0x4 ADD SLOAD DUP2 MSTORE PUSH1 0x20 ADD SWAP1 DUP2 MSTORE PUSH1 0x20 ADD PUSH1 0x0 KECCAK256 SWAP1 POP CALLER DUP2 PUSH1 0x0 ADD PUSH1 0x0 PUSH2 0x100 EXP DUP2 SLOAD DUP2 PUSH20 0xFFFFFFFFFFFFFFFFFFFFFFFFFFFFFFFFFFFFFFFF MUL NOT AND SWAP1 DUP4 PUSH20 0xFFFFFFFFFFFFFFFFFFFFFFFFFFFFFFFFFFFFFFFF AND MUL OR SWAP1 SSTORE POP CALLVALUE DUP2 PUSH1 0x1 ADD DUP2 SWAP1 SSTORE POP DUP4 DUP2 PUSH1 0x2 ADD DUP2 SWAP1 SSTORE POP DUP3 DUP2 PUSH1 0x3 ADD DUP2 SWAP1 SSTORE POP PUSH1 0x0 DUP2 PUSH1 0x4 ADD PUSH1 0x0 PUSH2 0x100 EXP DUP2 SLOAD DUP2 PUSH1 0xFF MUL NOT AND SWAP1 DUP4 PUSH1 0x4 DUP2 GT ISZERO PUSH2 0xA8D JUMPI PUSH2 0xA8C PUSH2 0x1A5A JUMP JUMPDEST JUMPDEST MUL OR SWAP1 SSTORE POP DUP2 PUSH1 0x2 ADD DUP3 PUSH1 0x4 ADD SLOAD SWAP1 DUP1 PUSH1 0x1 DUP2 SLOAD ADD DUP1 DUP3 SSTORE DUP1 SWAP2 POP POP PUSH1 0x1 SWAP1 SUB SWAP1 PUSH1 0x0 MSTORE PUSH1 0x20 PUSH1 0x0 KECCAK256 ADD PUSH1 0x0 SWAP1 SWAP2 SWAP1 SWAP2 SWAP1 SWAP2 POP SSTORE DUP2 PUSH1 0x4 ADD PUSH1 0x0 DUP2 SLOAD DUP1 SWAP3 SWAP2 SWAP1 PUSH2 0xAD6 SWAP1 PUSH2 0x26AA JUMP JUMPDEST SWAP2 SWAP1 POP SSTORE POP CALLVALUE DUP3 PUSH1 0x3 ADD PUSH1 0x0 DUP3 DUP3 SLOAD PUSH2 0xAEF SWAP2 SWAP1 PUSH2 0x2915 JUMP JUMPDEST SWAP3 POP POP DUP2 SWAP1 SSTORE POP PUSH32 0xBB5D359ABFA911F55D10E5B1FE62141092342CCBA0734899A68C3CDB935B5A57 DUP5 DUP5 PUSH1 0x40 MLOAD PUSH2 0xB27 SWAP3 SWAP2 SWAP1 PUSH2 0x2949 JUMP JUMPDEST PUSH1 0x40 MLOAD DUP1 SWAP2 SUB SWAP1 LOG1 POP POP POP POP JUMP JUMPDEST PUSH1 0x3 SLOAD DUP2 LT PUSH2 0xB79 JUMPI PUSH1 0x40 MLOAD PUSH32 0x8C379A000000000000000000000000000000000000000000000000000000000 DUP2 MSTORE PUSH1 0x4 ADD PUSH2 0xB70 SWAP1 PUSH2 0x2451 JUMP JUMPDEST PUSH1 0x40 MLOAD DUP1 SWAP2 SUB SWAP1 REVERT JUMPDEST PUSH1 0x0 DUP1 DUP3 DUP2 SLOAD DUP2 LT PUSH2 0xB8E JUMPI PUSH2 0xB8D PUSH2 0x2471 JUMP JUMPDEST JUMPDEST SWAP1 PUSH1 0x0 MSTORE PUSH1 0x20 PUSH1 0x0 KECCAK256 SWAP1 PUSH1 0x7 MUL ADD SWAP1 POP DUP1 PUSH1 0x1 ADD PUSH1 0x0 SWAP1 SLOAD SWAP1 PUSH2 0x100 EXP SWAP1 DIV PUSH1 0xFF AND PUSH2 0xBEF JUMPI PUSH1 0x40 MLOAD PUSH32 0x8C379A000000000000000000000000000000000000000000000000000000000 DUP2 MSTORE PUSH1 0x4 ADD PUSH2 0xBE6 SWAP1 PUSH2 0x2863 JUMP JUMPDEST PUSH1 0x40 MLOAD DUP1 SWAP2 SUB SWAP1 REVERT JUMPDEST PUSH1 0x0 DUP2 PUSH1 0x2 ADD SWAP1 POP PUSH1 0x0 JUMPDEST DUP2 DUP1 SLOAD SWAP1 POP DUP2 LT ISZERO PUSH2 0xE1A JUMPI PUSH1 0x0 PUSH1 0x1 PUSH1 0x0 DUP7 DUP2 MSTORE PUSH1 0x20 ADD SWAP1 DUP2 MSTORE PUSH1 0x20 ADD PUSH1 0x0 KECCAK256 PUSH1 0x0 DUP4 DUP2 MSTORE PUSH1 0x20 ADD SWAP1 DUP2 MSTORE PUSH1 0x20 ADD PUSH1 0x0 KECCAK256 SWAP1 POP CALLER PUSH20 0xFFFFFFFFFFFFFFFFFFFFFFFFFFFFFFFFFFFFFFFF AND DUP2 PUSH1 0x0 ADD PUSH1 0x0 SWAP1 SLOAD SWAP1 PUSH2 0x100 EXP SWAP1 DIV PUSH20 0xFFFFFFFFFFFFFFFFFFFFFFFFFFFFFFFFFFFFFFFF AND PUSH20 0xFFFFFFFFFFFFFFFFFFFFFFFFFFFFFFFFFFFFFFFF AND SUB PUSH2 0xE06 JUMPI CALLER PUSH20 0xFFFFFFFFFFFFFFFFFFFFFFFFFFFFFFFFFFFFFFFF AND PUSH2 0x8FC DUP3 PUSH1 0x1 ADD SLOAD SWAP1 DUP2 ISZERO MUL SWAP1 PUSH1 0x40 MLOAD PUSH1 0x0 PUSH1 0x40 MLOAD DUP1 DUP4 SUB DUP2 DUP6 DUP9 DUP9 CALL SWAP4 POP POP POP POP ISZERO DUP1 ISZERO PUSH2 0xCCF JUMPI RETURNDATASIZE PUSH1 0x0 DUP1 RETURNDATACOPY RETURNDATASIZE PUSH1 0x0 REVERT JUMPDEST POP DUP3 PUSH1 0x1 DUP5 DUP1 SLOAD SWAP1 POP PUSH2 0xCE2 SWAP2 SWAP1 PUSH2 0x2972 JUMP JUMPDEST DUP2 SLOAD DUP2 LT PUSH2 0xCF3 JUMPI PUSH2 0xCF2 PUSH2 0x2471 JUMP JUMPDEST JUMPDEST SWAP1 PUSH1 0x0 MSTORE PUSH1 0x20 PUSH1 0x0 KECCAK256 ADD SLOAD DUP4 DUP4 DUP2 SLOAD DUP2 LT PUSH2 0xD11 JUMPI PUSH2 0xD10 PUSH2 0x2471 JUMP JUMPDEST JUMPDEST SWAP1 PUSH1 0x0 MSTORE PUSH1 0x20 PUSH1 0x0 KECCAK256 ADD DUP2 SWAP1 SSTORE POP DUP3 DUP1 SLOAD DUP1 PUSH2 0xD30 JUMPI PUSH2 0xD2F PUSH2 0x29A6 JUMP JUMPDEST JUMPDEST PUSH1 0x1 SWAP1 SUB DUP2 DUP2 SWAP1 PUSH1 0x0 MSTORE PUSH1 0x20 PUSH1 0x0 KECCAK256 ADD PUSH1 0x0 SWAP1 SSTORE SWAP1 SSTORE PUSH32 0xAFC50E7FB00C9387DA74F2F341D5C22AA896696CB64DFC3BAFADAD937413BE77 DUP6 DUP3 PUSH1 0x3 ADD SLOAD PUSH1 0x4 PUSH1 0x40 MLOAD PUSH2 0xD7E SWAP4 SWAP3 SWAP2 SWAP1 PUSH2 0x2673 JUMP JUMPDEST PUSH1 0x40 MLOAD DUP1 SWAP2 SUB SWAP1 LOG1 PUSH1 0x1 PUSH1 0x0 DUP7 DUP2 MSTORE PUSH1 0x20 ADD SWAP1 DUP2 MSTORE PUSH1 0x20 ADD PUSH1 0x0 KECCAK256 PUSH1 0x0 DUP4 DUP2 MSTORE PUSH1 0x20 ADD SWAP1 DUP2 MSTORE PUSH1 0x20 ADD PUSH1 0x0 KECCAK256 PUSH1 0x0 DUP1 DUP3 ADD PUSH1 0x0 PUSH2 0x100 EXP DUP2 SLOAD SWAP1 PUSH20 0xFFFFFFFFFFFFFFFFFFFFFFFFFFFFFFFFFFFFFFFF MUL NOT AND SWAP1 SSTORE PUSH1 0x1 DUP3 ADD PUSH1 0x0 SWAP1 SSTORE PUSH1 0x2 DUP3 ADD PUSH1 0x0 SWAP1 SSTORE PUSH1 0x3 DUP3 ADD PUSH1 0x0 SWAP1 SSTORE PUSH1 0x4 DUP3 ADD PUSH1 0x0 PUSH2 0x100 EXP DUP2 SLOAD SWAP1 PUSH1 0xFF MUL NOT AND SWAP1 SSTORE POP POP POP PUSH2 0xE1A JUMP JUMPDEST POP DUP1 DUP1 PUSH2 0xE12 SWAP1 PUSH2 0x26AA JUMP JUMPDEST SWAP2 POP POP PUSH2 0xBFA JUMP JUMPDEST POP POP POP POP JUMP JUMPDEST PUSH1 0x1 PUSH1 0x20 MSTORE DUP2 PUSH1 0x0 MSTORE PUSH1 0x40 PUSH1 0x0 KECCAK256 PUSH1 0x20 MSTORE DUP1 PUSH1 0x0 MSTORE PUSH1 0x40 PUSH1 0x0 KECCAK256 PUSH1 0x0 SWAP2 POP SWAP2 POP POP DUP1 PUSH1 0x0 ADD PUSH1 0x0 SWAP1 SLOAD SWAP1 PUSH2 0x100 EXP SWAP1 DIV PUSH20 0xFFFFFFFFFFFFFFFFFFFFFFFFFFFFFFFFFFFFFFFF AND SWAP1 DUP1 PUSH1 0x1 ADD SLOAD SWAP1 DUP1 PUSH1 0x2 ADD SLOAD SWAP1 DUP1 PUSH1 0x3 ADD SLOAD SWAP1 DUP1 PUSH1 0x4 ADD PUSH1 0x0 SWAP1 SLOAD SWAP1 PUSH2 0x100 EXP SWAP1 DIV PUSH1 0xFF AND SWAP1 POP DUP6 JUMP JUMPDEST PUSH1 0x4 PUSH1 0x0 SWAP1 SLOAD SWAP1 PUSH2 0x100 EXP SWAP1 DIV PUSH20 0xFFFFFFFFFFFFFFFFFFFFFFFFFFFFFFFFFFFFFFFF AND DUP2 JUMP JUMPDEST PUSH1 0x0 PUSH1 0x40 MLOAD DUP1 PUSH1 0xE0 ADD PUSH1 0x40 MSTORE DUP1 DUP5 DUP2 MSTORE PUSH1 0x20 ADD PUSH1 0x1 ISZERO ISZERO DUP2 MSTORE PUSH1 0x20 ADD PUSH1 0x0 PUSH8 0xFFFFFFFFFFFFFFFF DUP2 GT ISZERO PUSH2 0xEED JUMPI PUSH2 0xEEC PUSH2 0x1C6C JUMP JUMPDEST JUMPDEST PUSH1 0x40 MLOAD SWAP1 DUP1 DUP3 MSTORE DUP1 PUSH1 0x20 MUL PUSH1 0x20 ADD DUP3 ADD PUSH1 0x40 MSTORE DUP1 ISZERO PUSH2 0xF1B JUMPI DUP2 PUSH1 0x20 ADD PUSH1 0x20 DUP3 MUL DUP1 CALLDATASIZE DUP4 CALLDATACOPY DUP1 DUP3 ADD SWAP2 POP POP SWAP1 POP JUMPDEST POP DUP2 MSTORE PUSH1 0x20 ADD PUSH1 0x0 DUP2 MSTORE PUSH1 0x20 ADD PUSH1 0x0 DUP2 MSTORE PUSH1 0x20 ADD PUSH1 0x0 PUSH1 0x3 DUP2 GT ISZERO PUSH2 0xF43 JUMPI PUSH2 0xF42 PUSH2 0x1A5A JUMP JUMPDEST JUMPDEST DUP2 MSTORE PUSH1 0x20 ADD DUP4 DUP2 MSTORE POP SWAP1 DUP1 PUSH1 0x1 DUP2 SLOAD ADD DUP1 DUP3 SSTORE DUP1 SWAP2 POP POP PUSH1 0x1 SWAP1 SUB SWAP1 PUSH1 0x0 MSTORE PUSH1 0x20 PUSH1 0x0 KECCAK256 SWAP1 PUSH1 0x7 MUL ADD PUSH1 0x0 SWAP1 SWAP2 SWAP1 SWAP2 SWAP1 SWAP2 POP PUSH1 0x0 DUP3 ADD MLOAD DUP2 PUSH1 0x0 ADD SWAP1 DUP2 PUSH2 0xF8A SWAP2 SWAP1 PUSH2 0x2B81 JUMP JUMPDEST POP PUSH1 0x20 DUP3 ADD MLOAD DUP2 PUSH1 0x1 ADD PUSH1 0x0 PUSH2 0x100 EXP DUP2 SLOAD DUP2 PUSH1 0xFF MUL NOT AND SWAP1 DUP4 ISZERO ISZERO MUL OR SWAP1 SSTORE POP PUSH1 0x40 DUP3 ADD MLOAD DUP2 PUSH1 0x2 ADD SWAP1 DUP1 MLOAD SWAP1 PUSH1 0x20 ADD SWAP1 PUSH2 0xFC7 SWAP3 SWAP2 SWAP1 PUSH2 0x17B1 JUMP JUMPDEST POP PUSH1 0x60 DUP3 ADD MLOAD DUP2 PUSH1 0x3 ADD SSTORE PUSH1 0x80 DUP3 ADD MLOAD DUP2 PUSH1 0x4 ADD SSTORE PUSH1 0xA0 DUP3 ADD MLOAD DUP2 PUSH1 0x5 ADD PUSH1 0x0 PUSH2 0x100 EXP DUP2 SLOAD DUP2 PUSH1 0xFF MUL NOT AND SWAP1 DUP4 PUSH1 0x3 DUP2 GT ISZERO PUSH2 0x1007 JUMPI PUSH2 0x1006 PUSH2 0x1A5A JUMP JUMPDEST JUMPDEST MUL OR SWAP1 SSTORE POP PUSH1 0xC0 DUP3 ADD MLOAD DUP2 PUSH1 0x6 ADD SWAP1 DUP1 MLOAD SWAP1 PUSH1 0x20 ADD SWAP1 PUSH2 0x1028 SWAP3 SWAP2 SWAP1 PUSH2 0x17FE JUMP JUMPDEST POP POP POP PUSH1 0x3 PUSH1 0x0 DUP2 SLOAD DUP1 SWAP3 SWAP2 SWAP1 PUSH2 0x103E SWAP1 PUSH2 0x26AA JUMP JUMPDEST SWAP2 SWAP1 POP SSTORE POP PUSH32 0xEC7FF2CF87269BE58ABC820FEC1F0D290B8132908DD4DD454F4E34CBF0ABA08F DUP3 PUSH1 0x40 MLOAD PUSH2 0x1072 SWAP2 SWAP1 PUSH2 0x2C53 JUMP JUMPDEST PUSH1 0x40 MLOAD DUP1 SWAP2 SUB SWAP1 LOG1 POP POP JUMP JUMPDEST PUSH1 0x3 SLOAD DUP2 JUMP JUMPDEST PUSH1 0x60 PUSH1 0x0 PUSH1 0x3 SLOAD PUSH8 0xFFFFFFFFFFFFFFFF DUP2 GT ISZERO PUSH2 0x10A4 JUMPI PUSH2 0x10A3 PUSH2 0x1C6C JUMP JUMPDEST JUMPDEST PUSH1 0x40 MLOAD SWAP1 DUP1 DUP3 MSTORE DUP1 PUSH1 0x20 MUL PUSH1 0x20 ADD DUP3 ADD PUSH1 0x40 MSTORE DUP1 ISZERO PUSH2 0x10DD JUMPI DUP2 PUSH1 0x20 ADD JUMPDEST PUSH2 0x10CA PUSH2 0x1857 JUMP JUMPDEST DUP2 MSTORE PUSH1 0x20 ADD SWAP1 PUSH1 0x1 SWAP1 SUB SWAP1 DUP2 PUSH2 0x10C2 JUMPI SWAP1 POP JUMPDEST POP SWAP1 POP PUSH1 0x0 JUMPDEST PUSH1 0x3 SLOAD DUP2 LT ISZERO PUSH2 0x1378 JUMPI PUSH1 0x0 DUP2 DUP2 SLOAD DUP2 LT PUSH2 0x1101 JUMPI PUSH2 0x1100 PUSH2 0x2471 JUMP JUMPDEST JUMPDEST SWAP1 PUSH1 0x0 MSTORE PUSH1 0x20 PUSH1 0x0 KECCAK256 SWAP1 PUSH1 0x7 MUL ADD PUSH1 0x40 MLOAD DUP1 PUSH1 0xE0 ADD PUSH1 0x40 MSTORE SWAP1 DUP2 PUSH1 0x0 DUP3 ADD DUP1 SLOAD PUSH2 0x112A SWAP1 PUSH2 0x23D4 JUMP JUMPDEST DUP1 PUSH1 0x1F ADD PUSH1 0x20 DUP1 SWAP2 DIV MUL PUSH1 0x20 ADD PUSH1 0x40 MLOAD SWAP1 DUP2 ADD PUSH1 0x40 MSTORE DUP1 SWAP3 SWAP2 SWAP1 DUP2 DUP2 MSTORE PUSH1 0x20 ADD DUP3 DUP1 SLOAD PUSH2 0x1156 SWAP1 PUSH2 0x23D4 JUMP JUMPDEST DUP1 ISZERO PUSH2 0x11A3 JUMPI DUP1 PUSH1 0x1F LT PUSH2 0x1178 JUMPI PUSH2 0x100 DUP1 DUP4 SLOAD DIV MUL DUP4 MSTORE SWAP2 PUSH1 0x20 ADD SWAP2 PUSH2 0x11A3 JUMP JUMPDEST DUP3 ADD SWAP2 SWAP1 PUSH1 0x0 MSTORE PUSH1 0x20 PUSH1 0x0 KECCAK256 SWAP1 JUMPDEST DUP2 SLOAD DUP2 MSTORE SWAP1 PUSH1 0x1 ADD SWAP1 PUSH1 0x20 ADD DUP1 DUP4 GT PUSH2 0x1186 JUMPI DUP3 SWAP1 SUB PUSH1 0x1F AND DUP3 ADD SWAP2 JUMPDEST POP POP POP POP POP DUP2 MSTORE PUSH1 0x20 ADD PUSH1 0x1 DUP3 ADD PUSH1 0x0 SWAP1 SLOAD SWAP1 PUSH2 0x100 EXP SWAP1 DIV PUSH1 0xFF AND ISZERO ISZERO ISZERO ISZERO DUP2 MSTORE PUSH1 0x20 ADD PUSH1 0x2 DUP3 ADD DUP1 SLOAD DUP1 PUSH1 0x20 MUL PUSH1 0x20 ADD PUSH1 0x40 MLOAD SWAP1 DUP2 ADD PUSH1 0x40 MSTORE DUP1 SWAP3 SWAP2 SWAP1 DUP2 DUP2 MSTORE PUSH1 0x20 ADD DUP3 DUP1 SLOAD DUP1 ISZERO PUSH2 0x1216 JUMPI PUSH1 0x20 MUL DUP3 ADD SWAP2 SWAP1 PUSH1 0x0 MSTORE PUSH1 0x20 PUSH1 0x0 KECCAK256 SWAP1 JUMPDEST DUP2 SLOAD DUP2 MSTORE PUSH1 0x20 ADD SWAP1 PUSH1 0x1 ADD SWAP1 DUP1 DUP4 GT PUSH2 0x1202 JUMPI JUMPDEST POP POP POP POP POP DUP2 MSTORE PUSH1 0x20 ADD PUSH1 0x3 DUP3 ADD SLOAD DUP2 MSTORE PUSH1 0x20 ADD PUSH1 0x4 DUP3 ADD SLOAD DUP2 MSTORE PUSH1 0x20 ADD PUSH1 0x5 DUP3 ADD PUSH1 0x0 SWAP1 SLOAD SWAP1 PUSH2 0x100 EXP SWAP1 DIV PUSH1 0xFF AND PUSH1 0x3 DUP2 GT ISZERO PUSH2 0x1258 JUMPI PUSH2 0x1257 PUSH2 0x1A5A JUMP JUMPDEST JUMPDEST PUSH1 0x3 DUP2 GT ISZERO PUSH2 0x126A JUMPI PUSH2 0x1269 PUSH2 0x1A5A JUMP JUMPDEST JUMPDEST DUP2 MSTORE PUSH1 0x20 ADD PUSH1 0x6 DUP3 ADD DUP1 SLOAD DUP1 PUSH1 0x20 MUL PUSH1 0x20 ADD PUSH1 0x40 MLOAD SWAP1 DUP2 ADD PUSH1 0x40 MSTORE DUP1 SWAP3 SWAP2 SWAP1 DUP2 DUP2 MSTORE PUSH1 0x20 ADD PUSH1 0x0 SWAP1 JUMPDEST DUP3 DUP3 LT ISZERO PUSH2 0x133F JUMPI DUP4 DUP3 SWAP1 PUSH1 0x0 MSTORE PUSH1 0x20 PUSH1 0x0 KECCAK256 ADD DUP1 SLOAD PUSH2 0x12B2 SWAP1 PUSH2 0x23D4 JUMP JUMPDEST DUP1 PUSH1 0x1F ADD PUSH1 0x20 DUP1 SWAP2 DIV MUL PUSH1 0x20 ADD PUSH1 0x40 MLOAD SWAP1 DUP2 ADD PUSH1 0x40 MSTORE DUP1 SWAP3 SWAP2 SWAP1 DUP2 DUP2 MSTORE PUSH1 0x20 ADD DUP3 DUP1 SLOAD PUSH2 0x12DE SWAP1 PUSH2 0x23D4 JUMP JUMPDEST DUP1 ISZERO PUSH2 0x132B JUMPI DUP1 PUSH1 0x1F LT PUSH2 0x1300 JUMPI PUSH2 0x100 DUP1 DUP4 SLOAD DIV MUL DUP4 MSTORE SWAP2 PUSH1 0x20 ADD SWAP2 PUSH2 0x132B JUMP JUMPDEST DUP3 ADD SWAP2 SWAP1 PUSH1 0x0 MSTORE PUSH1 0x20 PUSH1 0x0 KECCAK256 SWAP1 JUMPDEST DUP2 SLOAD DUP2 MSTORE SWAP1 PUSH1 0x1 ADD SWAP1 PUSH1 0x20 ADD DUP1 DUP4 GT PUSH2 0x130E JUMPI DUP3 SWAP1 SUB PUSH1 0x1F AND DUP3 ADD SWAP2 JUMPDEST POP POP POP POP POP DUP2 MSTORE PUSH1 0x20 ADD SWAP1 PUSH1 0x1 ADD SWAP1 PUSH2 0x1293 JUMP JUMPDEST POP POP POP POP DUP2 MSTORE POP POP DUP3 DUP3 DUP2 MLOAD DUP2 LT PUSH2 0x135A JUMPI PUSH2 0x1359 PUSH2 0x2471 JUMP JUMPDEST JUMPDEST PUSH1 0x20 MUL PUSH1 0x20 ADD ADD DUP2 SWAP1 MSTORE POP DUP1 DUP1 PUSH2 0x1370 SWAP1 PUSH2 0x26AA JUMP JUMPDEST SWAP2 POP POP PUSH2 0x10E3 JUMP JUMPDEST POP DUP1 SWAP2 POP POP SWAP1 JUMP JUMPDEST PUSH1 0x2 PUSH1 0x20 MSTORE DUP2 PUSH1 0x0 MSTORE PUSH1 0x40 PUSH1 0x0 KECCAK256 DUP2 DUP2 SLOAD DUP2 LT PUSH2 0x139C JUMPI PUSH1 0x0 DUP1 REVERT JUMPDEST SWAP1 PUSH1 0x0 MSTORE PUSH1 0x20 PUSH1 0x0 KECCAK256 ADD PUSH1 0x0 SWAP2 POP SWAP2 POP POP SLOAD DUP2 JUMP JUMPDEST PUSH1 0x4 PUSH1 0x0 SWAP1 SLOAD SWAP1 PUSH2 0x100 EXP SWAP1 DIV PUSH20 0xFFFFFFFFFFFFFFFFFFFFFFFFFFFFFFFFFFFFFFFF AND PUSH20 0xFFFFFFFFFFFFFFFFFFFFFFFFFFFFFFFFFFFFFFFF AND CALLER PUSH20 0xFFFFFFFFFFFFFFFFFFFFFFFFFFFFFFFFFFFFFFFF AND EQ PUSH2 0x140B JUMPI PUSH1 0x0 DUP1 REVERT JUMPDEST PUSH1 0x0 PUSH1 0x3 DUP2 GT ISZERO PUSH2 0x141F JUMPI PUSH2 0x141E PUSH2 0x1A5A JUMP JUMPDEST JUMPDEST PUSH1 0x0 DUP4 DUP2 SLOAD DUP2 LT PUSH2 0x1433 JUMPI PUSH2 0x1432 PUSH2 0x2471 JUMP JUMPDEST JUMPDEST SWAP1 PUSH1 0x0 MSTORE PUSH1 0x20 PUSH1 0x0 KECCAK256 SWAP1 PUSH1 0x7 MUL ADD PUSH1 0x5 ADD PUSH1 0x0 SWAP1 SLOAD SWAP1 PUSH2 0x100 EXP SWAP1 DIV PUSH1 0xFF AND PUSH1 0x3 DUP2 GT ISZERO PUSH2 0x1464 JUMPI PUSH2 0x1463 PUSH2 0x1A5A JUMP JUMPDEST JUMPDEST EQ PUSH2 0x14A4 JUMPI PUSH1 0x40 MLOAD PUSH32 0x8C379A000000000000000000000000000000000000000000000000000000000 DUP2 MSTORE PUSH1 0x4 ADD PUSH2 0x149B SWAP1 PUSH2 0x2863 JUMP JUMPDEST PUSH1 0x40 MLOAD DUP1 SWAP2 SUB SWAP1 REVERT JUMPDEST PUSH1 0x0 DUP2 MLOAD GT PUSH2 0x14E8 JUMPI PUSH1 0x40 MLOAD PUSH32 0x8C379A000000000000000000000000000000000000000000000000000000000 DUP2 MSTORE PUSH1 0x4 ADD PUSH2 0x14DF SWAP1 PUSH2 0x2CE7 JUMP JUMPDEST PUSH1 0x40 MLOAD DUP1 SWAP2 SUB SWAP1 REVERT JUMPDEST PUSH1 0x0 DUP3 DUP2 SLOAD DUP2 LT PUSH2 0x14FC JUMPI PUSH2 0x14FB PUSH2 0x2471 JUMP JUMPDEST JUMPDEST SWAP1 PUSH1 0x0 MSTORE PUSH1 0x20 PUSH1 0x0 KECCAK256 SWAP1 PUSH1 0x7 MUL ADD PUSH1 0x4 ADD SLOAD DUP2 MLOAD GT ISZERO PUSH2 0x1551 JUMPI PUSH1 0x40 MLOAD PUSH32 0x8C379A000000000000000000000000000000000000000000000000000000000 DUP2 MSTORE PUSH1 0x4 ADD PUSH2 0x1548 SWAP1 PUSH2 0x2D79 JUMP JUMPDEST PUSH1 0x40 MLOAD DUP1 SWAP2 SUB SWAP1 REVERT JUMPDEST PUSH1 0x0 JUMPDEST DUP2 MLOAD DUP2 LT ISZERO PUSH2 0x165E JUMPI PUSH1 0x0 DUP3 DUP3 DUP2 MLOAD DUP2 LT PUSH2 0x1572 JUMPI PUSH2 0x1571 PUSH2 0x2471 JUMP JUMPDEST JUMPDEST PUSH1 0x20 MUL PUSH1 0x20 ADD ADD MLOAD SWAP1 POP PUSH1 0x0 PUSH1 0x1 PUSH1 0x0 DUP7 DUP2 MSTORE PUSH1 0x20 ADD SWAP1 DUP2 MSTORE PUSH1 0x20 ADD PUSH1 0x0 KECCAK256 PUSH1 0x0 DUP4 DUP2 MSTORE PUSH1 0x20 ADD SWAP1 DUP2 MSTORE PUSH1 0x20 ADD PUSH1 0x0 KECCAK256 SWAP1 POP PUSH1 0x0 PUSH1 0x4 DUP2 GT ISZERO PUSH2 0x15B8 JUMPI PUSH2 0x15B7 PUSH2 0x1A5A JUMP JUMPDEST JUMPDEST DUP2 PUSH1 0x4 ADD PUSH1 0x0 SWAP1 SLOAD SWAP1 PUSH2 0x100 EXP SWAP1 DIV PUSH1 0xFF AND PUSH1 0x4 DUP2 GT ISZERO PUSH2 0x15DC JUMPI PUSH2 0x15DB PUSH2 0x1A5A JUMP JUMPDEST JUMPDEST EQ PUSH2 0x161C JUMPI PUSH1 0x40 MLOAD PUSH32 0x8C379A000000000000000000000000000000000000000000000000000000000 DUP2 MSTORE PUSH1 0x4 ADD PUSH2 0x1613 SWAP1 PUSH2 0x2E0B JUMP JUMPDEST PUSH1 0x40 MLOAD DUP1 SWAP2 SUB SWAP1 REVERT JUMPDEST PUSH1 0x1 DUP2 PUSH1 0x4 ADD PUSH1 0x0 PUSH2 0x100 EXP DUP2 SLOAD DUP2 PUSH1 0xFF MUL NOT AND SWAP1 DUP4 PUSH1 0x4 DUP2 GT ISZERO PUSH2 0x1644 JUMPI PUSH2 0x1643 PUSH2 0x1A5A JUMP JUMPDEST JUMPDEST MUL OR SWAP1 SSTORE POP POP POP DUP1 DUP1 PUSH2 0x1656 SWAP1 PUSH2 0x26AA JUMP JUMPDEST SWAP2 POP POP PUSH2 0x1554 JUMP JUMPDEST POP PUSH1 0x0 JUMPDEST PUSH1 0x0 DUP4 DUP2 SLOAD DUP2 LT PUSH2 0x1676 JUMPI PUSH2 0x1675 PUSH2 0x2471 JUMP JUMPDEST JUMPDEST SWAP1 PUSH1 0x0 MSTORE PUSH1 0x20 PUSH1 0x0 KECCAK256 SWAP1 PUSH1 0x7 MUL ADD PUSH1 0x4 ADD SLOAD DUP2 LT ISZERO PUSH2 0x1736 JUMPI PUSH1 0x0 PUSH1 0x1 PUSH1 0x0 DUP6 DUP2 MSTORE PUSH1 0x20 ADD SWAP1 DUP2 MSTORE PUSH1 0x20 ADD PUSH1 0x0 KECCAK256 PUSH1 0x0 DUP4 DUP2 MSTORE PUSH1 0x20 ADD SWAP1 DUP2 MSTORE PUSH1 0x20 ADD PUSH1 0x0 KECCAK256 SWAP1 POP PUSH1 0x0 PUSH1 0x4 DUP2 GT ISZERO PUSH2 0x16CB JUMPI PUSH2 0x16CA PUSH2 0x1A5A JUMP JUMPDEST JUMPDEST DUP2 PUSH1 0x4 ADD PUSH1 0x0 SWAP1 SLOAD SWAP1 PUSH2 0x100 EXP SWAP1 DIV PUSH1 0xFF AND PUSH1 0x4 DUP2 GT ISZERO PUSH2 0x16EF JUMPI PUSH2 0x16EE PUSH2 0x1A5A JUMP JUMPDEST JUMPDEST SUB PUSH2 0x1722 JUMPI PUSH1 0x2 DUP2 PUSH1 0x4 ADD PUSH1 0x0 PUSH2 0x100 EXP DUP2 SLOAD DUP2 PUSH1 0xFF MUL NOT AND SWAP1 DUP4 PUSH1 0x4 DUP2 GT ISZERO PUSH2 0x171C JUMPI PUSH2 0x171B PUSH2 0x1A5A JUMP JUMPDEST JUMPDEST MUL OR SWAP1 SSTORE POP JUMPDEST POP DUP1 DUP1 PUSH2 0x172E SWAP1 PUSH2 0x26AA JUMP JUMPDEST SWAP2 POP POP PUSH2 0x1662 JUMP JUMPDEST POP DUP1 PUSH1 0x2 PUSH1 0x0 DUP5 DUP2 MSTORE PUSH1 0x20 ADD SWAP1 DUP2 MSTORE PUSH1 0x20 ADD PUSH1 0x0 KECCAK256 SWAP1 DUP1 MLOAD SWAP1 PUSH1 0x20 ADD SWAP1 PUSH2 0x175E SWAP3 SWAP2 SWAP1 PUSH2 0x17B1 JUMP JUMPDEST POP PUSH1 0x2 PUSH1 0x0 DUP4 DUP2 SLOAD DUP2 LT PUSH2 0x1775 JUMPI PUSH2 0x1774 PUSH2 0x2471 JUMP JUMPDEST JUMPDEST SWAP1 PUSH1 0x0 MSTORE PUSH1 0x20 PUSH1 0x0 KECCAK256 SWAP1 PUSH1 0x7 MUL ADD PUSH1 0x5 ADD PUSH1 0x0 PUSH2 0x100 EXP DUP2 SLOAD DUP2 PUSH1 0xFF MUL NOT AND SWAP1 DUP4 PUSH1 0x3 DUP2 GT ISZERO PUSH2 0x17A8 JUMPI PUSH2 0x17A7 PUSH2 0x1A5A JUMP JUMPDEST JUMPDEST MUL OR SWAP1 SSTORE POP POP POP JUMP JUMPDEST DUP3 DUP1 SLOAD DUP3 DUP3 SSTORE SWAP1 PUSH1 0x0 MSTORE PUSH1 0x20 PUSH1 0x0 KECCAK256 SWAP1 DUP2 ADD SWAP3 DUP3 ISZERO PUSH2 0x17ED JUMPI SWAP2 PUSH1 0x20 MUL DUP3 ADD JUMPDEST DUP3 DUP2 GT ISZERO PUSH2 0x17EC JUMPI DUP3 MLOAD DUP3 SSTORE SWAP2 PUSH1 0x20 ADD SWAP2 SWAP1 PUSH1 0x1 ADD SWAP1 PUSH2 0x17D1 JUMP JUMPDEST JUMPDEST POP SWAP1 POP PUSH2 0x17FA SWAP2 SWAP1 PUSH2 0x18A8 JUMP JUMPDEST POP SWAP1 JUMP JUMPDEST DUP3 DUP1 SLOAD DUP3 DUP3 SSTORE SWAP1 PUSH1 0x0 MSTORE PUSH1 0x20 PUSH1 0x0 KECCAK256 SWAP1 DUP2 ADD SWAP3 DUP3 ISZERO PUSH2 0x1846 JUMPI SWAP2 PUSH1 0x20 MUL DUP3 ADD JUMPDEST DUP3 DUP2 GT ISZERO PUSH2 0x1845 JUMPI DUP3 MLOAD DUP3 SWAP1 DUP2 PUSH2 0x1835 SWAP2 SWAP1 PUSH2 0x2B81 JUMP JUMPDEST POP SWAP2 PUSH1 0x20 ADD SWAP2 SWAP1 PUSH1 0x1 ADD SWAP1 PUSH2 0x181E JUMP JUMPDEST JUMPDEST POP SWAP1 POP PUSH2 0x1853 SWAP2 SWAP1 PUSH2 0x18C5 JUMP JUMPDEST POP SWAP1 JUMP JUMPDEST PUSH1 0x40 MLOAD DUP1 PUSH1 0xE0 ADD PUSH1 0x40 MSTORE DUP1 PUSH1 0x60 DUP2 MSTORE PUSH1 0x20 ADD PUSH1 0x0 ISZERO ISZERO DUP2 MSTORE PUSH1 0x20 ADD PUSH1 0x60 DUP2 MSTORE PUSH1 0x20 ADD PUSH1 0x0 DUP2 MSTORE PUSH1 0x20 ADD PUSH1 0x0 DUP2 MSTORE PUSH1 0x20 ADD PUSH1 0x0 PUSH1 0x3 DUP2 GT ISZERO PUSH2 0x189B JUMPI PUSH2 0x189A PUSH2 0x1A5A JUMP JUMPDEST JUMPDEST DUP2 MSTORE PUSH1 0x20 ADD PUSH1 0x60 DUP2 MSTORE POP SWAP1 JUMP JUMPDEST JUMPDEST DUP1 DUP3 GT ISZERO PUSH2 0x18C1 JUMPI PUSH1 0x0 DUP2 PUSH1 0x0 SWAP1 SSTORE POP PUSH1 0x1 ADD PUSH2 0x18A9 JUMP JUMPDEST POP SWAP1 JUMP JUMPDEST JUMPDEST DUP1 DUP3 GT ISZERO PUSH2 0x18E5 JUMPI PUSH1 0x0 DUP2 DUP2 PUSH2 0x18DC SWAP2 SWAP1 PUSH2 0x18E9 JUMP JUMPDEST POP PUSH1 0x1 ADD PUSH2 0x18C6 JUMP JUMPDEST POP SWAP1 JUMP JUMPDEST POP DUP1 SLOAD PUSH2 0x18F5 SWAP1 PUSH2 0x23D4 JUMP JUMPDEST PUSH1 0x0 DUP3 SSTORE DUP1 PUSH1 0x1F LT PUSH2 0x1907 JUMPI POP PUSH2 0x1926 JUMP JUMPDEST PUSH1 0x1F ADD PUSH1 0x20 SWAP1 DIV SWAP1 PUSH1 0x0 MSTORE PUSH1 0x20 PUSH1 0x0 KECCAK256 SWAP1 DUP2 ADD SWAP1 PUSH2 0x1925 SWAP2 SWAP1 PUSH2 0x18A8 JUMP JUMPDEST JUMPDEST POP JUMP JUMPDEST PUSH1 0x0 PUSH1 0x40 MLOAD SWAP1 POP SWAP1 JUMP JUMPDEST PUSH1 0x0 DUP1 REVERT JUMPDEST PUSH1 0x0 DUP1 REVERT JUMPDEST PUSH1 0x0 DUP2 SWAP1 POP SWAP2 SWAP1 POP JUMP JUMPDEST PUSH2 0x1950 DUP2 PUSH2 0x193D JUMP JUMPDEST DUP2 EQ PUSH2 0x195B JUMPI PUSH1 0x0 DUP1 REVERT JUMPDEST POP JUMP JUMPDEST PUSH1 0x0 DUP2 CALLDATALOAD SWAP1 POP PUSH2 0x196D DUP2 PUSH2 0x1947 JUMP JUMPDEST SWAP3 SWAP2 POP POP JUMP JUMPDEST PUSH1 0x0 PUSH1 0x20 DUP3 DUP5 SUB SLT ISZERO PUSH2 0x1989 JUMPI PUSH2 0x1988 PUSH2 0x1933 JUMP JUMPDEST JUMPDEST PUSH1 0x0 PUSH2 0x1997 DUP5 DUP3 DUP6 ADD PUSH2 0x195E JUMP JUMPDEST SWAP2 POP POP SWAP3 SWAP2 POP POP JUMP JUMPDEST PUSH1 0x0 DUP2 MLOAD SWAP1 POP SWAP2 SWAP1 POP JUMP JUMPDEST PUSH1 0x0 DUP3 DUP3 MSTORE PUSH1 0x20 DUP3 ADD SWAP1 POP SWAP3 SWAP2 POP POP JUMP JUMPDEST PUSH1 0x0 JUMPDEST DUP4 DUP2 LT ISZERO PUSH2 0x19DA JUMPI DUP1 DUP3 ADD MLOAD DUP2 DUP5 ADD MSTORE PUSH1 0x20 DUP2 ADD SWAP1 POP PUSH2 0x19BF JUMP JUMPDEST PUSH1 0x0 DUP5 DUP5 ADD MSTORE POP POP POP POP JUMP JUMPDEST PUSH1 0x0 PUSH1 0x1F NOT PUSH1 0x1F DUP4 ADD AND SWAP1 POP SWAP2 SWAP1 POP JUMP JUMPDEST PUSH1 0x0 PUSH2 0x1A02 DUP3 PUSH2 0x19A0 JUMP JUMPDEST PUSH2 0x1A0C DUP2 DUP6 PUSH2 0x19AB JUMP JUMPDEST SWAP4 POP PUSH2 0x1A1C DUP2 DUP6 PUSH1 0x20 DUP7 ADD PUSH2 0x19BC JUMP JUMPDEST PUSH2 0x1A25 DUP2 PUSH2 0x19E6 JUMP JUMPDEST DUP5 ADD SWAP2 POP POP SWAP3 SWAP2 POP POP JUMP JUMPDEST PUSH1 0x0 DUP2 ISZERO ISZERO SWAP1 POP SWAP2 SWAP1 POP JUMP JUMPDEST PUSH2 0x1A45 DUP2 PUSH2 0x1A30 JUMP JUMPDEST DUP3 MSTORE POP POP JUMP JUMPDEST PUSH2 0x1A54 DUP2 PUSH2 0x193D JUMP JUMPDEST DUP3 MSTORE POP POP JUMP JUMPDEST PUSH32 0x4E487B7100000000000000000000000000000000000000000000000000000000 PUSH1 0x0 MSTORE PUSH1 0x21 PUSH1 0x4 MSTORE PUSH1 0x24 PUSH1 0x0 REVERT JUMPDEST PUSH1 0x4 DUP2 LT PUSH2 0x1A9A JUMPI PUSH2 0x1A99 PUSH2 0x1A5A JUMP JUMPDEST JUMPDEST POP JUMP JUMPDEST PUSH1 0x0 DUP2 SWAP1 POP PUSH2 0x1AAB DUP3 PUSH2 0x1A89 JUMP JUMPDEST SWAP2 SWAP1 POP JUMP JUMPDEST PUSH1 0x0 PUSH2 0x1ABB DUP3 PUSH2 0x1A9D JUMP JUMPDEST SWAP1 POP SWAP2 SWAP1 POP JUMP JUMPDEST PUSH2 0x1ACB DUP2 PUSH2 0x1AB0 JUMP JUMPDEST DUP3 MSTORE POP POP JUMP JUMPDEST PUSH1 0x0 PUSH1 0xA0 DUP3 ADD SWAP1 POP DUP2 DUP2 SUB PUSH1 0x0 DUP4 ADD MSTORE PUSH2 0x1AEB DUP2 DUP9 PUSH2 0x19F7 JUMP JUMPDEST SWAP1 POP PUSH2 0x1AFA PUSH1 0x20 DUP4 ADD DUP8 PUSH2 0x1A3C JUMP JUMPDEST PUSH2 0x1B07 PUSH1 0x40 DUP4 ADD DUP7 PUSH2 0x1A4B JUMP JUMPDEST PUSH2 0x1B14 PUSH1 0x60 DUP4 ADD DUP6 PUSH2 0x1A4B JUMP JUMPDEST PUSH2 0x1B21 PUSH1 0x80 DUP4 ADD DUP5 PUSH2 0x1AC2 JUMP JUMPDEST SWAP7 SWAP6 POP POP POP POP POP POP JUMP JUMPDEST PUSH1 0x0 DUP1 PUSH1 0x40 DUP4 DUP6 SUB SLT ISZERO PUSH2 0x1B42 JUMPI PUSH2 0x1B41 PUSH2 0x1933 JUMP JUMPDEST JUMPDEST PUSH1 0x0 PUSH2 0x1B50 DUP6 DUP3 DUP7 ADD PUSH2 0x195E JUMP JUMPDEST SWAP3 POP POP PUSH1 0x20 PUSH2 0x1B61 DUP6 DUP3 DUP7 ADD PUSH2 0x195E JUMP JUMPDEST SWAP2 POP POP SWAP3 POP SWAP3 SWAP1 POP JUMP JUMPDEST PUSH1 0x0 PUSH20 0xFFFFFFFFFFFFFFFFFFFFFFFFFFFFFFFFFFFFFFFF DUP3 AND SWAP1 POP SWAP2 SWAP1 POP JUMP JUMPDEST PUSH1 0x0 PUSH2 0x1B96 DUP3 PUSH2 0x1B6B JUMP JUMPDEST SWAP1 POP SWAP2 SWAP1 POP JUMP JUMPDEST PUSH2 0x1BA6 DUP2 PUSH2 0x1B8B JUMP JUMPDEST DUP3 MSTORE POP POP JUMP JUMPDEST PUSH1 0x5 DUP2 LT PUSH2 0x1BBD JUMPI PUSH2 0x1BBC PUSH2 0x1A5A JUMP JUMPDEST JUMPDEST POP JUMP JUMPDEST PUSH1 0x0 DUP2 SWAP1 POP PUSH2 0x1BCE DUP3 PUSH2 0x1BAC JUMP JUMPDEST SWAP2 SWAP1 POP JUMP JUMPDEST PUSH1 0x0 PUSH2 0x1BDE DUP3 PUSH2 0x1BC0 JUMP JUMPDEST SWAP1 POP SWAP2 SWAP1 POP JUMP JUMPDEST PUSH2 0x1BEE DUP2 PUSH2 0x1BD3 JUMP JUMPDEST DUP3 MSTORE POP POP JUMP JUMPDEST PUSH1 0x0 PUSH1 0xA0 DUP3 ADD SWAP1 POP PUSH2 0x1C09 PUSH1 0x0 DUP4 ADD DUP9 PUSH2 0x1B9D JUMP JUMPDEST PUSH2 0x1C16 PUSH1 0x20 DUP4 ADD DUP8 PUSH2 0x1A4B JUMP JUMPDEST PUSH2 0x1C23 PUSH1 0x40 DUP4 ADD DUP7 PUSH2 0x1A4B JUMP JUMPDEST PUSH2 0x1C30 PUSH1 0x60 DUP4 ADD DUP6 PUSH2 0x1A4B JUMP JUMPDEST PUSH2 0x1C3D PUSH1 0x80 DUP4 ADD DUP5 PUSH2 0x1BE5 JUMP JUMPDEST SWAP7 SWAP6 POP POP POP POP POP POP JUMP JUMPDEST PUSH1 0x0 PUSH1 0x20 DUP3 ADD SWAP1 POP PUSH2 0x1C5C PUSH1 0x0 DUP4 ADD DUP5 PUSH2 0x1B9D JUMP JUMPDEST SWAP3 SWAP2 POP POP JUMP JUMPDEST PUSH1 0x0 DUP1 REVERT JUMPDEST PUSH1 0x0 DUP1 REVERT JUMPDEST PUSH32 0x4E487B7100000000000000000000000000000000000000000000000000000000 PUSH1 0x0 MSTORE PUSH1 0x41 PUSH1 0x4 MSTORE PUSH1 0x24 PUSH1 0x0 REVERT JUMPDEST PUSH2 0x1CA4 DUP3 PUSH2 0x19E6 JUMP JUMPDEST DUP2 ADD DUP2 DUP2 LT PUSH8 0xFFFFFFFFFFFFFFFF DUP3 GT OR ISZERO PUSH2 0x1CC3 JUMPI PUSH2 0x1CC2 PUSH2 0x1C6C JUMP JUMPDEST JUMPDEST DUP1 PUSH1 0x40 MSTORE POP POP POP JUMP JUMPDEST PUSH1 0x0 PUSH2 0x1CD6 PUSH2 0x1929 JUMP JUMPDEST SWAP1 POP PUSH2 0x1CE2 DUP3 DUP3 PUSH2 0x1C9B JUMP JUMPDEST SWAP2 SWAP1 POP JUMP JUMPDEST PUSH1 0x0 PUSH8 0xFFFFFFFFFFFFFFFF DUP3 GT ISZERO PUSH2 0x1D02 JUMPI PUSH2 0x1D01 PUSH2 0x1C6C JUMP JUMPDEST JUMPDEST PUSH2 0x1D0B DUP3 PUSH2 0x19E6 JUMP JUMPDEST SWAP1 POP PUSH1 0x20 DUP2 ADD SWAP1 POP SWAP2 SWAP1 POP JUMP JUMPDEST DUP3 DUP2 DUP4 CALLDATACOPY PUSH1 0x0 DUP4 DUP4 ADD MSTORE POP POP POP JUMP JUMPDEST PUSH1 0x0 PUSH2 0x1D3A PUSH2 0x1D35 DUP5 PUSH2 0x1CE7 JUMP JUMPDEST PUSH2 0x1CCC JUMP JUMPDEST SWAP1 POP DUP3 DUP2 MSTORE PUSH1 0x20 DUP2 ADD DUP5 DUP5 DUP5 ADD GT ISZERO PUSH2 0x1D56 JUMPI PUSH2 0x1D55 PUSH2 0x1C67 JUMP JUMPDEST JUMPDEST PUSH2 0x1D61 DUP5 DUP3 DUP6 PUSH2 0x1D18 JUMP JUMPDEST POP SWAP4 SWAP3 POP POP POP JUMP JUMPDEST PUSH1 0x0 DUP3 PUSH1 0x1F DUP4 ADD SLT PUSH2 0x1D7E JUMPI PUSH2 0x1D7D PUSH2 0x1C62 JUMP JUMPDEST JUMPDEST DUP2 CALLDATALOAD PUSH2 0x1D8E DUP5 DUP3 PUSH1 0x20 DUP7 ADD PUSH2 0x1D27 JUMP JUMPDEST SWAP2 POP POP SWAP3 SWAP2 POP POP JUMP JUMPDEST PUSH1 0x0 PUSH8 0xFFFFFFFFFFFFFFFF DUP3 GT ISZERO PUSH2 0x1DB2 JUMPI PUSH2 0x1DB1 PUSH2 0x1C6C JUMP JUMPDEST JUMPDEST PUSH1 0x20 DUP3 MUL SWAP1 POP PUSH1 0x20 DUP2 ADD SWAP1 POP SWAP2 SWAP1 POP JUMP JUMPDEST PUSH1 0x0 DUP1 REVERT JUMPDEST PUSH1 0x0 PUSH2 0x1DDB PUSH2 0x1DD6 DUP5 PUSH2 0x1D97 JUMP JUMPDEST PUSH2 0x1CCC JUMP JUMPDEST SWAP1 POP DUP1 DUP4 DUP3 MSTORE PUSH1 0x20 DUP3 ADD SWAP1 POP PUSH1 0x20 DUP5 MUL DUP4 ADD DUP6 DUP2 GT ISZERO PUSH2 0x1DFE JUMPI PUSH2 0x1DFD PUSH2 0x1DC3 JUMP JUMPDEST JUMPDEST DUP4 JUMPDEST DUP2 DUP2 LT ISZERO PUSH2 0x1E45 JUMPI DUP1 CALLDATALOAD PUSH8 0xFFFFFFFFFFFFFFFF DUP2 GT ISZERO PUSH2 0x1E23 JUMPI PUSH2 0x1E22 PUSH2 0x1C62 JUMP JUMPDEST JUMPDEST DUP1 DUP7 ADD PUSH2 0x1E30 DUP10 DUP3 PUSH2 0x1D69 JUMP JUMPDEST DUP6 MSTORE PUSH1 0x20 DUP6 ADD SWAP5 POP POP POP PUSH1 0x20 DUP2 ADD SWAP1 POP PUSH2 0x1E00 JUMP JUMPDEST POP POP POP SWAP4 SWAP3 POP POP POP JUMP JUMPDEST PUSH1 0x0 DUP3 PUSH1 0x1F DUP4 ADD SLT PUSH2 0x1E64 JUMPI PUSH2 0x1E63 PUSH2 0x1C62 JUMP JUMPDEST JUMPDEST DUP2 CALLDATALOAD PUSH2 0x1E74 DUP5 DUP3 PUSH1 0x20 DUP7 ADD PUSH2 0x1DC8 JUMP JUMPDEST SWAP2 POP POP SWAP3 SWAP2 POP POP JUMP JUMPDEST PUSH1 0x0 DUP1 PUSH1 0x40 DUP4 DUP6 SUB SLT ISZERO PUSH2 0x1E94 JUMPI PUSH2 0x1E93 PUSH2 0x1933 JUMP JUMPDEST JUMPDEST PUSH1 0x0 DUP4 ADD CALLDATALOAD PUSH8 0xFFFFFFFFFFFFFFFF DUP2 GT ISZERO PUSH2 0x1EB2 JUMPI PUSH2 0x1EB1 PUSH2 0x1938 JUMP JUMPDEST JUMPDEST PUSH2 0x1EBE DUP6 DUP3 DUP7 ADD PUSH2 0x1D69 JUMP JUMPDEST SWAP3 POP POP PUSH1 0x20 DUP4 ADD CALLDATALOAD PUSH8 0xFFFFFFFFFFFFFFFF DUP2 GT ISZERO PUSH2 0x1EDF JUMPI PUSH2 0x1EDE PUSH2 0x1938 JUMP JUMPDEST JUMPDEST PUSH2 0x1EEB DUP6 DUP3 DUP7 ADD PUSH2 0x1E4F JUMP JUMPDEST SWAP2 POP POP SWAP3 POP SWAP3 SWAP1 POP JUMP JUMPDEST PUSH1 0x0 PUSH1 0x20 DUP3 ADD SWAP1 POP PUSH2 0x1F0A PUSH1 0x0 DUP4 ADD DUP5 PUSH2 0x1A4B JUMP JUMPDEST SWAP3 SWAP2 POP POP JUMP JUMPDEST PUSH1 0x0 DUP2 MLOAD SWAP1 POP SWAP2 SWAP1 POP JUMP JUMPDEST PUSH1 0x0 DUP3 DUP3 MSTORE PUSH1 0x20 DUP3 ADD SWAP1 POP SWAP3 SWAP2 POP POP JUMP JUMPDEST PUSH1 0x0 DUP2 SWAP1 POP PUSH1 0x20 DUP3 ADD SWAP1 POP SWAP2 SWAP1 POP JUMP JUMPDEST PUSH1 0x0 DUP3 DUP3 MSTORE PUSH1 0x20 DUP3 ADD SWAP1 POP SWAP3 SWAP2 POP POP JUMP JUMPDEST PUSH1 0x0 PUSH2 0x1F58 DUP3 PUSH2 0x19A0 JUMP JUMPDEST PUSH2 0x1F62 DUP2 DUP6 PUSH2 0x1F3C JUMP JUMPDEST SWAP4 POP PUSH2 0x1F72 DUP2 DUP6 PUSH1 0x20 DUP7 ADD PUSH2 0x19BC JUMP JUMPDEST PUSH2 0x1F7B DUP2 PUSH2 0x19E6 JUMP JUMPDEST DUP5 ADD SWAP2 POP POP SWAP3 SWAP2 POP POP JUMP JUMPDEST PUSH2 0x1F8F DUP2 PUSH2 0x1A30 JUMP JUMPDEST DUP3 MSTORE POP POP JUMP JUMPDEST PUSH1 0x0 DUP2 MLOAD SWAP1 POP SWAP2 SWAP1 POP JUMP JUMPDEST PUSH1 0x0 DUP3 DUP3 MSTORE PUSH1 0x20 DUP3 ADD SWAP1 POP SWAP3 SWAP2 POP POP JUMP JUMPDEST PUSH1 0x0 DUP2 SWAP1 POP PUSH1 0x20 DUP3 ADD SWAP1 POP SWAP2 SWAP1 POP JUMP JUMPDEST PUSH2 0x1FCA DUP2 PUSH2 0x193D JUMP JUMPDEST DUP3 MSTORE POP POP JUMP JUMPDEST PUSH1 0x0 PUSH2 0x1FDC DUP4 DUP4 PUSH2 0x1FC1 JUMP JUMPDEST PUSH1 0x20 DUP4 ADD SWAP1 POP SWAP3 SWAP2 POP POP JUMP JUMPDEST PUSH1 0x0 PUSH1 0x20 DUP3 ADD SWAP1 POP SWAP2 SWAP1 POP JUMP JUMPDEST PUSH1 0x0 PUSH2 0x2000 DUP3 PUSH2 0x1F95 JUMP JUMPDEST PUSH2 0x200A DUP2 DUP6 PUSH2 0x1FA0 JUMP JUMPDEST SWAP4 POP PUSH2 0x2015 DUP4 PUSH2 0x1FB1 JUMP JUMPDEST DUP1 PUSH1 0x0 JUMPDEST DUP4 DUP2 LT ISZERO PUSH2 0x2046 JUMPI DUP2 MLOAD PUSH2 0x202D DUP9 DUP3 PUSH2 0x1FD0 JUMP JUMPDEST SWAP8 POP PUSH2 0x2038 DUP4 PUSH2 0x1FE8 JUMP JUMPDEST SWAP3 POP POP PUSH1 0x1 DUP2 ADD SWAP1 POP PUSH2 0x2019 JUMP JUMPDEST POP DUP6 SWAP4 POP POP POP POP SWAP3 SWAP2 POP POP JUMP JUMPDEST PUSH2 0x205C DUP2 PUSH2 0x1AB0 JUMP JUMPDEST DUP3 MSTORE POP POP JUMP JUMPDEST PUSH1 0x0 DUP2 MLOAD SWAP1 POP SWAP2 SWAP1 POP JUMP JUMPDEST PUSH1 0x0 DUP3 DUP3 MSTORE PUSH1 0x20 DUP3 ADD SWAP1 POP SWAP3 SWAP2 POP POP JUMP JUMPDEST PUSH1 0x0 DUP2 SWAP1 POP PUSH1 0x20 DUP3 ADD SWAP1 POP SWAP2 SWAP1 POP JUMP JUMPDEST PUSH1 0x0 PUSH2 0x209A DUP4 DUP4 PUSH2 0x1F4D JUMP JUMPDEST SWAP1 POP SWAP3 SWAP2 POP POP JUMP JUMPDEST PUSH1 0x0 PUSH1 0x20 DUP3 ADD SWAP1 POP SWAP2 SWAP1 POP JUMP JUMPDEST PUSH1 0x0 PUSH2 0x20BA DUP3 PUSH2 0x2062 JUMP JUMPDEST PUSH2 0x20C4 DUP2 DUP6 PUSH2 0x206D JUMP JUMPDEST SWAP4 POP DUP4 PUSH1 0x20 DUP3 MUL DUP6 ADD PUSH2 0x20D6 DUP6 PUSH2 0x207E JUMP JUMPDEST DUP1 PUSH1 0x0 JUMPDEST DUP6 DUP2 LT ISZERO PUSH2 0x2112 JUMPI DUP5 DUP5 SUB DUP10 MSTORE DUP2 MLOAD PUSH2 0x20F3 DUP6 DUP3 PUSH2 0x208E JUMP JUMPDEST SWAP5 POP PUSH2 0x20FE DUP4 PUSH2 0x20A2 JUMP JUMPDEST SWAP3 POP PUSH1 0x20 DUP11 ADD SWAP10 POP POP PUSH1 0x1 DUP2 ADD SWAP1 POP PUSH2 0x20DA JUMP JUMPDEST POP DUP3 SWAP8 POP DUP8 SWAP6 POP POP POP POP POP POP SWAP3 SWAP2 POP POP JUMP JUMPDEST PUSH1 0x0 PUSH1 0xE0 DUP4 ADD PUSH1 0x0 DUP4 ADD MLOAD DUP5 DUP3 SUB PUSH1 0x0 DUP7 ADD MSTORE PUSH2 0x2141 DUP3 DUP3 PUSH2 0x1F4D JUMP JUMPDEST SWAP2 POP POP PUSH1 0x20 DUP4 ADD MLOAD PUSH2 0x2156 PUSH1 0x20 DUP7 ADD DUP3 PUSH2 0x1F86 JUMP JUMPDEST POP PUSH1 0x40 DUP4 ADD MLOAD DUP5 DUP3 SUB PUSH1 0x40 DUP7 ADD MSTORE PUSH2 0x216E DUP3 DUP3 PUSH2 0x1FF5 JUMP JUMPDEST SWAP2 POP POP PUSH1 0x60 DUP4 ADD MLOAD PUSH2 0x2183 PUSH1 0x60 DUP7 ADD DUP3 PUSH2 0x1FC1 JUMP JUMPDEST POP PUSH1 0x80 DUP4 ADD MLOAD PUSH2 0x2196 PUSH1 0x80 DUP7 ADD DUP3 PUSH2 0x1FC1 JUMP JUMPDEST POP PUSH1 0xA0 DUP4 ADD MLOAD PUSH2 0x21A9 PUSH1 0xA0 DUP7 ADD DUP3 PUSH2 0x2053 JUMP JUMPDEST POP PUSH1 0xC0 DUP4 ADD MLOAD DUP5 DUP3 SUB PUSH1 0xC0 DUP7 ADD MSTORE PUSH2 0x21C1 DUP3 DUP3 PUSH2 0x20AF JUMP JUMPDEST SWAP2 POP POP DUP1 SWAP2 POP POP SWAP3 SWAP2 POP POP JUMP JUMPDEST PUSH1 0x0 PUSH2 0x21DA DUP4 DUP4 PUSH2 0x2124 JUMP JUMPDEST SWAP1 POP SWAP3 SWAP2 POP POP JUMP JUMPDEST PUSH1 0x0 PUSH1 0x20 DUP3 ADD SWAP1 POP SWAP2 SWAP1 POP JUMP JUMPDEST PUSH1 0x0 PUSH2 0x21FA DUP3 PUSH2 0x1F10 JUMP JUMPDEST PUSH2 0x2204 DUP2 DUP6 PUSH2 0x1F1B JUMP JUMPDEST SWAP4 POP DUP4 PUSH1 0x20 DUP3 MUL DUP6 ADD PUSH2 0x2216 DUP6 PUSH2 0x1F2C JUMP JUMPDEST DUP1 PUSH1 0x0 JUMPDEST DUP6 DUP2 LT ISZERO PUSH2 0x2252 JUMPI DUP5 DUP5 SUB DUP10 MSTORE DUP2 MLOAD PUSH2 0x2233 DUP6 DUP3 PUSH2 0x21CE JUMP JUMPDEST SWAP5 POP PUSH2 0x223E DUP4 PUSH2 0x21E2 JUMP JUMPDEST SWAP3 POP PUSH1 0x20 DUP11 ADD SWAP10 POP POP PUSH1 0x1 DUP2 ADD SWAP1 POP PUSH2 0x221A JUMP JUMPDEST POP DUP3 SWAP8 POP DUP8 SWAP6 POP POP POP POP POP POP SWAP3 SWAP2 POP POP JUMP JUMPDEST PUSH1 0x0 PUSH1 0x20 DUP3 ADD SWAP1 POP DUP2 DUP2 SUB PUSH1 0x0 DUP4 ADD MSTORE PUSH2 0x227E DUP2 DUP5 PUSH2 0x21EF JUMP JUMPDEST SWAP1 POP SWAP3 SWAP2 POP POP JUMP JUMPDEST PUSH1 0x0 PUSH8 0xFFFFFFFFFFFFFFFF DUP3 GT ISZERO PUSH2 0x22A1 JUMPI PUSH2 0x22A0 PUSH2 0x1C6C JUMP JUMPDEST JUMPDEST PUSH1 0x20 DUP3 MUL SWAP1 POP PUSH1 0x20 DUP2 ADD SWAP1 POP SWAP2 SWAP1 POP JUMP JUMPDEST PUSH1 0x0 PUSH2 0x22C5 PUSH2 0x22C0 DUP5 PUSH2 0x2286 JUMP JUMPDEST PUSH2 0x1CCC JUMP JUMPDEST SWAP1 POP DUP1 DUP4 DUP3 MSTORE PUSH1 0x20 DUP3 ADD SWAP1 POP PUSH1 0x20 DUP5 MUL DUP4 ADD DUP6 DUP2 GT ISZERO PUSH2 0x22E8 JUMPI PUSH2 0x22E7 PUSH2 0x1DC3 JUMP JUMPDEST JUMPDEST DUP4 JUMPDEST DUP2 DUP2 LT ISZERO PUSH2 0x2311 JUMPI DUP1 PUSH2 0x22FD DUP9 DUP3 PUSH2 0x195E JUMP JUMPDEST DUP5 MSTORE PUSH1 0x20 DUP5 ADD SWAP4 POP POP PUSH1 0x20 DUP2 ADD SWAP1 POP PUSH2 0x22EA JUMP JUMPDEST POP POP POP SWAP4 SWAP3 POP POP POP JUMP JUMPDEST PUSH1 0x0 DUP3 PUSH1 0x1F DUP4 ADD SLT PUSH2 0x2330 JUMPI PUSH2 0x232F PUSH2 0x1C62 JUMP JUMPDEST JUMPDEST DUP2 CALLDATALOAD PUSH2 0x2340 DUP5 DUP3 PUSH1 0x20 DUP7 ADD PUSH2 0x22B2 JUMP JUMPDEST SWAP2 POP POP SWAP3 SWAP2 POP POP JUMP JUMPDEST PUSH1 0x0 DUP1 PUSH1 0x40 DUP4 DUP6 SUB SLT ISZERO PUSH2 0x2360 JUMPI PUSH2 0x235F PUSH2 0x1933 JUMP JUMPDEST JUMPDEST PUSH1 0x0 PUSH2 0x236E DUP6 DUP3 DUP7 ADD PUSH2 0x195E JUMP JUMPDEST SWAP3 POP POP PUSH1 0x20 DUP4 ADD CALLDATALOAD PUSH8 0xFFFFFFFFFFFFFFFF DUP2 GT ISZERO PUSH2 0x238F JUMPI PUSH2 0x238E PUSH2 0x1938 JUMP JUMPDEST JUMPDEST PUSH2 0x239B DUP6 DUP3 DUP7 ADD PUSH2 0x231B JUMP JUMPDEST SWAP2 POP POP SWAP3 POP SWAP3 SWAP1 POP JUMP JUMPDEST PUSH32 0x4E487B7100000000000000000000000000000000000000000000000000000000 PUSH1 0x0 MSTORE PUSH1 0x22 PUSH1 0x4 MSTORE PUSH1 0x24 PUSH1 0x0 REVERT JUMPDEST PUSH1 0x0 PUSH1 0x2 DUP3 DIV SWAP1 POP PUSH1 0x1 DUP3 AND DUP1 PUSH2 0x23EC JUMPI PUSH1 0x7F DUP3 AND SWAP2 POP JUMPDEST PUSH1 0x20 DUP3 LT DUP2 SUB PUSH2 0x23FF JUMPI PUSH2 0x23FE PUSH2 0x23A5 JUMP JUMPDEST JUMPDEST POP SWAP2 SWAP1 POP JUMP JUMPDEST PUSH32 0x496E76616C69642067616D652049440000000000000000000000000000000000 PUSH1 0x0 DUP3 ADD MSTORE POP JUMP JUMPDEST PUSH1 0x0 PUSH2 0x243B PUSH1 0xF DUP4 PUSH2 0x19AB JUMP JUMPDEST SWAP2 POP PUSH2 0x2446 DUP3 PUSH2 0x2405 JUMP JUMPDEST PUSH1 0x20 DUP3 ADD SWAP1 POP SWAP2 SWAP1 POP JUMP JUMPDEST PUSH1 0x0 PUSH1 0x20 DUP3 ADD SWAP1 POP DUP2 DUP2 SUB PUSH1 0x0 DUP4 ADD MSTORE PUSH2 0x246A DUP2 PUSH2 0x242E JUMP JUMPDEST SWAP1 POP SWAP2 SWAP1 POP JUMP JUMPDEST PUSH32 0x4E487B7100000000000000000000000000000000000000000000000000000000 PUSH1 0x0 MSTORE PUSH1 0x32 PUSH1 0x4 MSTORE PUSH1 0x24 PUSH1 0x0 REVERT JUMPDEST PUSH32 0x47616D6520697320616C726561647920636C6F73656400000000000000000000 PUSH1 0x0 DUP3 ADD MSTORE POP JUMP JUMPDEST PUSH1 0x0 PUSH2 0x24D6 PUSH1 0x16 DUP4 PUSH2 0x19AB JUMP JUMPDEST SWAP2 POP PUSH2 0x24E1 DUP3 PUSH2 0x24A0 JUMP JUMPDEST PUSH1 0x20 DUP3 ADD SWAP1 POP SWAP2 SWAP1 POP JUMP JUMPDEST PUSH1 0x0 PUSH1 0x20 DUP3 ADD SWAP1 POP DUP2 DUP2 SUB PUSH1 0x0 DUP4 ADD MSTORE PUSH2 0x2505 DUP2 PUSH2 0x24C9 JUMP JUMPDEST SWAP1 POP SWAP2 SWAP1 POP JUMP JUMPDEST PUSH32 0x47616D65206973206E6F742077616974696E6720666F722077696E6E65727300 PUSH1 0x0 DUP3 ADD MSTORE POP JUMP JUMPDEST PUSH1 0x0 PUSH2 0x2542 PUSH1 0x1F DUP4 PUSH2 0x19AB JUMP JUMPDEST SWAP2 POP PUSH2 0x254D DUP3 PUSH2 0x250C JUMP JUMPDEST PUSH1 0x20 DUP3 ADD SWAP1 POP SWAP2 SWAP1 POP JUMP JUMPDEST PUSH1 0x0 PUSH1 0x20 DUP3 ADD SWAP1 POP DUP2 DUP2 SUB PUSH1 0x0 DUP4 ADD MSTORE PUSH2 0x2571 DUP2 PUSH2 0x2535 JUMP JUMPDEST SWAP1 POP SWAP2 SWAP1 POP JUMP JUMPDEST PUSH32 0x4E487B7100000000000000000000000000000000000000000000000000000000 PUSH1 0x0 MSTORE PUSH1 0x12 PUSH1 0x4 MSTORE PUSH1 0x24 PUSH1 0x0 REVERT JUMPDEST PUSH32 0x4E487B7100000000000000000000000000000000000000000000000000000000 PUSH1 0x0 MSTORE PUSH1 0x11 PUSH1 0x4 MSTORE PUSH1 0x24 PUSH1 0x0 REVERT JUMPDEST PUSH1 0x0 PUSH2 0x25E1 DUP3 PUSH2 0x193D JUMP JUMPDEST SWAP2 POP PUSH2 0x25EC DUP4 PUSH2 0x193D JUMP JUMPDEST SWAP3 POP DUP3 PUSH2 0x25FC JUMPI PUSH2 0x25FB PUSH2 0x2578 JUMP JUMPDEST JUMPDEST DUP3 DUP3 DIV SWAP1 POP SWAP3 SWAP2 POP POP JUMP JUMPDEST PUSH32 0x426574206973206E6F7420612077696E6E696E67206265740000000000000000 PUSH1 0x0 DUP3 ADD MSTORE POP JUMP JUMPDEST PUSH1 0x0 PUSH2 0x263D PUSH1 0x18 DUP4 PUSH2 0x19AB JUMP JUMPDEST SWAP2 POP PUSH2 0x2648 DUP3 PUSH2 0x2607 JUMP JUMPDEST PUSH1 0x20 DUP3 ADD SWAP1 POP SWAP2 SWAP1 POP JUMP JUMPDEST PUSH1 0x0 PUSH1 0x20 DUP3 ADD SWAP1 POP DUP2 DUP2 SUB PUSH1 0x0 DUP4 ADD MSTORE PUSH2 0x266C DUP2 PUSH2 0x2630 JUMP JUMPDEST SWAP1 POP SWAP2 SWAP1 POP JUMP JUMPDEST PUSH1 0x0 PUSH1 0x60 DUP3 ADD SWAP1 POP PUSH2 0x2688 PUSH1 0x0 DUP4 ADD DUP7 PUSH2 0x1A4B JUMP JUMPDEST PUSH2 0x2695 PUSH1 0x20 DUP4 ADD DUP6 PUSH2 0x1A4B JUMP JUMPDEST PUSH2 0x26A2 PUSH1 0x40 DUP4 ADD DUP5 PUSH2 0x1BE5 JUMP JUMPDEST SWAP5 SWAP4 POP POP POP POP JUMP JUMPDEST PUSH1 0x0 PUSH2 0x26B5 DUP3 PUSH2 0x193D JUMP JUMPDEST SWAP2 POP PUSH32 0xFFFFFFFFFFFFFFFFFFFFFFFFFFFFFFFFFFFFFFFFFFFFFFFFFFFFFFFFFFFFFFFF DUP3 SUB PUSH2 0x26E7 JUMPI PUSH2 0x26E6 PUSH2 0x25A7 JUMP JUMPDEST JUMPDEST PUSH1 0x1 DUP3 ADD SWAP1 POP SWAP2 SWAP1 POP JUMP JUMPDEST PUSH1 0x0 DUP2 SLOAD SWAP1 POP SWAP2 SWAP1 POP JUMP JUMPDEST PUSH1 0x0 DUP3 DUP3 MSTORE PUSH1 0x20 DUP3 ADD SWAP1 POP SWAP3 SWAP2 POP POP JUMP JUMPDEST PUSH1 0x0 DUP2 SWAP1 POP DUP2 PUSH1 0x0 MSTORE PUSH1 0x20 PUSH1 0x0 KECCAK256 SWAP1 POP SWAP2 SWAP1 POP JUMP JUMPDEST PUSH1 0x0 DUP2 PUSH1 0x0 SHR SWAP1 POP SWAP2 SWAP1 POP JUMP JUMPDEST PUSH1 0x0 DUP2 SWAP1 POP SWAP2 SWAP1 POP JUMP JUMPDEST PUSH1 0x0 PUSH2 0x274D PUSH2 0x2748 DUP4 PUSH2 0x2723 JUMP JUMPDEST PUSH2 0x2730 JUMP JUMPDEST SWAP1 POP SWAP2 SWAP1 POP JUMP JUMPDEST PUSH1 0x0 PUSH2 0x2760 DUP3 SLOAD PUSH2 0x273A JUMP JUMPDEST SWAP1 POP SWAP2 SWAP1 POP JUMP JUMPDEST PUSH1 0x0 PUSH1 0x1 DUP3 ADD SWAP1 POP SWAP2 SWAP1 POP JUMP JUMPDEST PUSH1 0x0 PUSH2 0x277F DUP3 PUSH2 0x26F2 JUMP JUMPDEST PUSH2 0x2789 DUP2 DUP6 PUSH2 0x26FD JUMP JUMPDEST SWAP4 POP PUSH2 0x2794 DUP4 PUSH2 0x270E JUMP JUMPDEST DUP1 PUSH1 0x0 JUMPDEST DUP4 DUP2 LT ISZERO PUSH2 0x27CC JUMPI PUSH2 0x27A9 DUP3 PUSH2 0x2754 JUMP JUMPDEST PUSH2 0x27B3 DUP9 DUP3 PUSH2 0x1FD0 JUMP JUMPDEST SWAP8 POP PUSH2 0x27BE DUP4 PUSH2 0x2767 JUMP JUMPDEST SWAP3 POP POP PUSH1 0x1 DUP2 ADD SWAP1 POP PUSH2 0x2798 JUMP JUMPDEST POP DUP6 SWAP4 POP POP POP POP SWAP3 SWAP2 POP POP JUMP JUMPDEST PUSH1 0x0 PUSH1 0x60 DUP3 ADD SWAP1 POP PUSH2 0x27EE PUSH1 0x0 DUP4 ADD DUP7 PUSH2 0x1A4B JUMP JUMPDEST DUP2 DUP2 SUB PUSH1 0x20 DUP4 ADD MSTORE PUSH2 0x2800 DUP2 DUP6 PUSH2 0x2774 JUMP JUMPDEST SWAP1 POP PUSH2 0x280F PUSH1 0x40 DUP4 ADD DUP5 PUSH2 0x1A4B JUMP JUMPDEST SWAP5 SWAP4 POP POP POP POP JUMP JUMPDEST PUSH32 0x47616D65206973206E6F74206F70656E00000000000000000000000000000000 PUSH1 0x0 DUP3 ADD MSTORE POP JUMP JUMPDEST PUSH1 0x0 PUSH2 0x284D PUSH1 0x10 DUP4 PUSH2 0x19AB JUMP JUMPDEST SWAP2 POP PUSH2 0x2858 DUP3 PUSH2 0x2817 JUMP JUMPDEST PUSH1 0x20 DUP3 ADD SWAP1 POP SWAP2 SWAP1 POP JUMP JUMPDEST PUSH1 0x0 PUSH1 0x20 DUP3 ADD SWAP1 POP DUP2 DUP2 SUB PUSH1 0x0 DUP4 ADD MSTORE PUSH2 0x287C DUP2 PUSH2 0x2840 JUMP JUMPDEST SWAP1 POP SWAP2 SWAP1 POP JUMP JUMPDEST PUSH32 0x42657420616D6F756E74206D7573742062652067726561746572207468616E20 PUSH1 0x0 DUP3 ADD MSTORE PUSH32 0x3000000000000000000000000000000000000000000000000000000000000000 PUSH1 0x20 DUP3 ADD MSTORE POP JUMP JUMPDEST PUSH1 0x0 PUSH2 0x28DF PUSH1 0x21 DUP4 PUSH2 0x19AB JUMP JUMPDEST SWAP2 POP PUSH2 0x28EA DUP3 PUSH2 0x2883 JUMP JUMPDEST PUSH1 0x40 DUP3 ADD SWAP1 POP SWAP2 SWAP1 POP JUMP JUMPDEST PUSH1 0x0 PUSH1 0x20 DUP3 ADD SWAP1 POP DUP2 DUP2 SUB PUSH1 0x0 DUP4 ADD MSTORE PUSH2 0x290E DUP2 PUSH2 0x28D2 JUMP JUMPDEST SWAP1 POP SWAP2 SWAP1 POP JUMP JUMPDEST PUSH1 0x0 PUSH2 0x2920 DUP3 PUSH2 0x193D JUMP JUMPDEST SWAP2 POP PUSH2 0x292B DUP4 PUSH2 0x193D JUMP JUMPDEST SWAP3 POP DUP3 DUP3 ADD SWAP1 POP DUP1 DUP3 GT ISZERO PUSH2 0x2943 JUMPI PUSH2 0x2942 PUSH2 0x25A7 JUMP JUMPDEST JUMPDEST SWAP3 SWAP2 POP POP JUMP JUMPDEST PUSH1 0x0 PUSH1 0x40 DUP3 ADD SWAP1 POP PUSH2 0x295E PUSH1 0x0 DUP4 ADD DUP6 PUSH2 0x1A4B JUMP JUMPDEST PUSH2 0x296B PUSH1 0x20 DUP4 ADD DUP5 PUSH2 0x1A4B JUMP JUMPDEST SWAP4 SWAP3 POP POP POP JUMP JUMPDEST PUSH1 0x0 PUSH2 0x297D DUP3 PUSH2 0x193D JUMP JUMPDEST SWAP2 POP PUSH2 0x2988 DUP4 PUSH2 0x193D JUMP JUMPDEST SWAP3 POP DUP3 DUP3 SUB SWAP1 POP DUP2 DUP2 GT ISZERO PUSH2 0x29A0 JUMPI PUSH2 0x299F PUSH2 0x25A7 JUMP JUMPDEST JUMPDEST SWAP3 SWAP2 POP POP JUMP JUMPDEST PUSH32 0x4E487B7100000000000000000000000000000000000000000000000000000000 PUSH1 0x0 MSTORE PUSH1 0x31 PUSH1 0x4 MSTORE PUSH1 0x24 PUSH1 0x0 REVERT JUMPDEST PUSH1 0x0 DUP2 SWAP1 POP DUP2 PUSH1 0x0 MSTORE PUSH1 0x20 PUSH1 0x0 KECCAK256 SWAP1 POP SWAP2 SWAP1 POP JUMP JUMPDEST PUSH1 0x0 PUSH1 0x20 PUSH1 0x1F DUP4 ADD DIV SWAP1 POP SWAP2 SWAP1 POP JUMP JUMPDEST PUSH1 0x0 DUP3 DUP3 SHL SWAP1 POP SWAP3 SWAP2 POP POP JUMP JUMPDEST PUSH1 0x0 PUSH1 0x8 DUP4 MUL PUSH2 0x2A37 PUSH32 0xFFFFFFFFFFFFFFFFFFFFFFFFFFFFFFFFFFFFFFFFFFFFFFFFFFFFFFFFFFFFFFFF DUP3 PUSH2 0x29FA JUMP JUMPDEST PUSH2 0x2A41 DUP7 DUP4 PUSH2 0x29FA JUMP JUMPDEST SWAP6 POP DUP1 NOT DUP5 AND SWAP4 POP DUP1 DUP7 AND DUP5 OR SWAP3 POP POP POP SWAP4 SWAP3 POP POP POP JUMP JUMPDEST PUSH1 0x0 DUP2 SWAP1 POP SWAP2 SWAP1 POP JUMP JUMPDEST PUSH1 0x0 PUSH2 0x2A7E PUSH2 0x2A79 PUSH2 0x2A74 DUP5 PUSH2 0x193D JUMP JUMPDEST PUSH2 0x2A59 JUMP JUMPDEST PUSH2 0x193D JUMP JUMPDEST SWAP1 POP SWAP2 SWAP1 POP JUMP JUMPDEST PUSH1 0x0 DUP2 SWAP1 POP SWAP2 SWAP1 POP JUMP JUMPDEST PUSH2 0x2A98 DUP4 PUSH2 0x2A63 JUMP JUMPDEST PUSH2 0x2AAC PUSH2 0x2AA4 DUP3 PUSH2 0x2A85 JUMP JUMPDEST DUP5 DUP5 SLOAD PUSH2 0x2A07 JUMP JUMPDEST DUP3 SSTORE POP POP POP POP JUMP JUMPDEST PUSH1 0x0 SWAP1 JUMP JUMPDEST PUSH2 0x2AC1 PUSH2 0x2AB4 JUMP JUMPDEST PUSH2 0x2ACC DUP2 DUP5 DUP5 PUSH2 0x2A8F JUMP JUMPDEST POP POP POP JUMP JUMPDEST JUMPDEST DUP2 DUP2 LT ISZERO PUSH2 0x2AF0 JUMPI PUSH2 0x2AE5 PUSH1 0x0 DUP3 PUSH2 0x2AB9 JUMP JUMPDEST PUSH1 0x1 DUP2 ADD SWAP1 POP PUSH2 0x2AD2 JUMP JUMPDEST POP POP JUMP JUMPDEST PUSH1 0x1F DUP3 GT ISZERO PUSH2 0x2B35 JUMPI PUSH2 0x2B06 DUP2 PUSH2 0x29D5 JUMP JUMPDEST PUSH2 0x2B0F DUP5 PUSH2 0x29EA JUMP JUMPDEST DUP2 ADD PUSH1 0x20 DUP6 LT ISZERO PUSH2 0x2B1E JUMPI DUP2 SWAP1 POP JUMPDEST PUSH2 0x2B32 PUSH2 0x2B2A DUP6 PUSH2 0x29EA JUMP JUMPDEST DUP4 ADD DUP3 PUSH2 0x2AD1 JUMP JUMPDEST POP POP JUMPDEST POP POP POP JUMP JUMPDEST PUSH1 0x0 DUP3 DUP3 SHR SWAP1 POP SWAP3 SWAP2 POP POP JUMP JUMPDEST PUSH1 0x0 PUSH2 0x2B58 PUSH1 0x0 NOT DUP5 PUSH1 0x8 MUL PUSH2 0x2B3A JUMP JUMPDEST NOT DUP1 DUP4 AND SWAP2 POP POP SWAP3 SWAP2 POP POP JUMP JUMPDEST PUSH1 0x0 PUSH2 0x2B71 DUP4 DUP4 PUSH2 0x2B47 JUMP JUMPDEST SWAP2 POP DUP3 PUSH1 0x2 MUL DUP3 OR SWAP1 POP SWAP3 SWAP2 POP POP JUMP JUMPDEST PUSH2 0x2B8A DUP3 PUSH2 0x19A0 JUMP JUMPDEST PUSH8 0xFFFFFFFFFFFFFFFF DUP2 GT ISZERO PUSH2 0x2BA3 JUMPI PUSH2 0x2BA2 PUSH2 0x1C6C JUMP JUMPDEST JUMPDEST PUSH2 0x2BAD DUP3 SLOAD PUSH2 0x23D4 JUMP JUMPDEST PUSH2 0x2BB8 DUP3 DUP3 DUP6 PUSH2 0x2AF4 JUMP JUMPDEST PUSH1 0x0 PUSH1 0x20 SWAP1 POP PUSH1 0x1F DUP4 GT PUSH1 0x1 DUP2 EQ PUSH2 0x2BEB JUMPI PUSH1 0x0 DUP5 ISZERO PUSH2 0x2BD9 JUMPI DUP3 DUP8 ADD MLOAD SWAP1 POP JUMPDEST PUSH2 0x2BE3 DUP6 DUP3 PUSH2 0x2B65 JUMP JUMPDEST DUP7 SSTORE POP PUSH2 0x2C4B JUMP JUMPDEST PUSH1 0x1F NOT DUP5 AND PUSH2 0x2BF9 DUP7 PUSH2 0x29D5 JUMP JUMPDEST PUSH1 0x0 JUMPDEST DUP3 DUP2 LT ISZERO PUSH2 0x2C21 JUMPI DUP5 DUP10 ADD MLOAD DUP3 SSTORE PUSH1 0x1 DUP3 ADD SWAP2 POP PUSH1 0x20 DUP6 ADD SWAP5 POP PUSH1 0x20 DUP2 ADD SWAP1 POP PUSH2 0x2BFC JUMP JUMPDEST DUP7 DUP4 LT ISZERO PUSH2 0x2C3E JUMPI DUP5 DUP10 ADD MLOAD PUSH2 0x2C3A PUSH1 0x1F DUP10 AND DUP3 PUSH2 0x2B47 JUMP JUMPDEST DUP4 SSTORE POP JUMPDEST PUSH1 0x1 PUSH1 0x2 DUP9 MUL ADD DUP9 SSTORE POP POP POP JUMPDEST POP POP POP POP POP POP JUMP JUMPDEST PUSH1 0x0 PUSH1 0x20 DUP3 ADD SWAP1 POP DUP2 DUP2 SUB PUSH1 0x0 DUP4 ADD MSTORE PUSH2 0x2C6D DUP2 DUP5 PUSH2 0x19F7 JUMP JUMPDEST SWAP1 POP SWAP3 SWAP2 POP POP JUMP JUMPDEST PUSH32 0x4174206C65617374206F6E652077696E6E696E6720626574206D757374206265 PUSH1 0x0 DUP3 ADD MSTORE PUSH32 0x2070726F76696465640000000000000000000000000000000000000000000000 PUSH1 0x20 DUP3 ADD MSTORE POP JUMP JUMPDEST PUSH1 0x0 PUSH2 0x2CD1 PUSH1 0x29 DUP4 PUSH2 0x19AB JUMP JUMPDEST SWAP2 POP PUSH2 0x2CDC DUP3 PUSH2 0x2C75 JUMP JUMPDEST PUSH1 0x40 DUP3 ADD SWAP1 POP SWAP2 SWAP1 POP JUMP JUMPDEST PUSH1 0x0 PUSH1 0x20 DUP3 ADD SWAP1 POP DUP2 DUP2 SUB PUSH1 0x0 DUP4 ADD MSTORE PUSH2 0x2D00 DUP2 PUSH2 0x2CC4 JUMP JUMPDEST SWAP1 POP SWAP2 SWAP1 POP JUMP JUMPDEST PUSH32 0x496E76616C6964206E756D626572206F662077696E6E696E6720626574732070 PUSH1 0x0 DUP3 ADD MSTORE PUSH32 0x726F766964656400000000000000000000000000000000000000000000000000 PUSH1 0x20 DUP3 ADD MSTORE POP JUMP JUMPDEST PUSH1 0x0 PUSH2 0x2D63 PUSH1 0x27 DUP4 PUSH2 0x19AB JUMP JUMPDEST SWAP2 POP PUSH2 0x2D6E DUP3 PUSH2 0x2D07 JUMP JUMPDEST PUSH1 0x40 DUP3 ADD SWAP1 POP SWAP2 SWAP1 POP JUMP JUMPDEST PUSH1 0x0 PUSH1 0x20 DUP3 ADD SWAP1 POP DUP2 DUP2 SUB PUSH1 0x0 DUP4 ADD MSTORE PUSH2 0x2D92 DUP2 PUSH2 0x2D56 JUMP JUMPDEST SWAP1 POP SWAP2 SWAP1 POP JUMP JUMPDEST PUSH32 0x42657420697320616C7265616479206465636C6172656420617320612077696E PUSH1 0x0 DUP3 ADD MSTORE PUSH32 0x6E6572206F72206C6F7365720000000000000000000000000000000000000000 PUSH1 0x20 DUP3 ADD MSTORE POP JUMP JUMPDEST PUSH1 0x0 PUSH2 0x2DF5 PUSH1 0x2C DUP4 PUSH2 0x19AB JUMP JUMPDEST SWAP2 POP PUSH2 0x2E00 DUP3 PUSH2 0x2D99 JUMP JUMPDEST PUSH1 0x40 DUP3 ADD SWAP1 POP SWAP2 SWAP1 POP JUMP JUMPDEST PUSH1 0x0 PUSH1 0x20 DUP3 ADD SWAP1 POP DUP2 DUP2 SUB PUSH1 0x0 DUP4 ADD MSTORE PUSH2 0x2E24 DUP2 PUSH2 0x2DE8 JUMP JUMPDEST SWAP1 POP SWAP2 SWAP1 POP JUMP INVALID LOG2 PUSH5 0x6970667358 0x22 SLT KECCAK256 0x49 SWAP2 AND EXTCODEHASH MSIZE 0x2A SAR 0x2B 0x2E 0xE GASPRICE PUSH19 0x23746FC76A5E9AD253DB91D77AC974F0C305FE BASEFEE PUSH5 0x736F6C6343 STOP ADDMOD SGT STOP CALLER "},"methodIdentifiers":{"bets(uint256,uint256)":"6a09f6be","closeGame(uint256)":"2d6ef310","createGame(string,string[])":"b0392058","declareWinners(uint256,uint256[])":"f798f017","distributeWinnings(uint256)":"4544c48c","games(uint256)":"117a5b90","getAllGames()":"db1c45f9","numGames()":"c3f010f7","owner()":"8da5cb5b","placeBet(uint256,uint256)":"4afe62b5","removeBet(uint256)":"5c2029a9","winningBets(uint256,uint256)":"ee5892b0"}}}}}