{
  "_format": "hh-sol-artifact-1",
  "contractName": "BettingContract",
  "sourceName": "contracts/Bet.sol",
  "abi": [
    {
      "inputs": [],
      "stateMutability": "nonpayable",
      "type": "constructor"
    },
    {
      "anonymous": false,
      "inputs": [
        {
          "indexed": false,
          "internalType": "uint256",
          "name": "gameID",
          "type": "uint256"
        },
        {
          "indexed": false,
          "internalType": "uint256",
          "name": "betOption",
          "type": "uint256"
        },
        {
          "indexed": false,
          "internalType": "enum BettingContract.BetState",
          "name": "newState",
          "type": "uint8"
        }
      ],
      "name": "BetStateChanged",
      "type": "event"
    },
    {
      "anonymous": false,
      "inputs": [
        {
          "indexed": false,
          "internalType": "uint256",
          "name": "gameID",
          "type": "uint256"
        }
      ],
      "name": "GameClosed",
      "type": "event"
    },
    {
      "anonymous": false,
      "inputs": [
        {
          "indexed": false,
          "internalType": "uint256",
          "name": "gameID",
          "type": "uint256"
        },
        {
          "indexed": false,
          "internalType": "uint256",
          "name": "betOption",
          "type": "uint256"
        }
      ],
      "name": "NewBet",
      "type": "event"
    },
    {
      "anonymous": false,
      "inputs": [
        {
          "indexed": false,
          "internalType": "string",
          "name": "description",
          "type": "string"
        }
      ],
      "name": "NewGame",
      "type": "event"
    },
    {
      "anonymous": false,
      "inputs": [
        {
          "indexed": false,
          "internalType": "uint256",
          "name": "gameID",
          "type": "uint256"
        },
        {
          "indexed": false,
          "internalType": "uint256[]",
          "name": "winningBets",
          "type": "uint256[]"
        },
        {
          "indexed": false,
          "internalType": "uint256",
          "name": "totalWinnings",
          "type": "uint256"
        }
      ],
      "name": "WinningsDistributed",
      "type": "event"
    },
    {
      "inputs": [
        {
          "internalType": "uint256",
          "name": "",
          "type": "uint256"
        },
        {
          "internalType": "uint256",
          "name": "",
          "type": "uint256"
        }
      ],
      "name": "bets",
      "outputs": [
        {
          "internalType": "address",
          "name": "user",
          "type": "address"
        },
        {
          "internalType": "uint256",
          "name": "amount",
          "type": "uint256"
        },
        {
          "internalType": "uint256",
          "name": "gameID",
          "type": "uint256"
        },
        {
          "internalType": "uint256",
          "name": "betOption",
          "type": "uint256"
        },
        {
          "internalType": "enum BettingContract.BetState",
          "name": "state",
          "type": "uint8"
        }
      ],
      "stateMutability": "view",
      "type": "function"
    },
    {
      "inputs": [
        {
          "internalType": "uint256",
          "name": "_gameId",
          "type": "uint256"
        }
      ],
      "name": "closeGame",
      "outputs": [],
      "stateMutability": "nonpayable",
      "type": "function"
    },
    {
      "inputs": [
        {
          "internalType": "string",
          "name": "_description",
          "type": "string"
        }
      ],
      "name": "createGame",
      "outputs": [],
      "stateMutability": "nonpayable",
      "type": "function"
    },
    {
      "inputs": [
        {
          "internalType": "uint256",
          "name": "_gameId",
          "type": "uint256"
        },
        {
          "internalType": "uint256[]",
          "name": "_winningBets",
          "type": "uint256[]"
        }
      ],
      "name": "declareWinners",
      "outputs": [],
      "stateMutability": "nonpayable",
      "type": "function"
    },
    {
      "inputs": [
        {
          "internalType": "uint256",
          "name": "_gameId",
          "type": "uint256"
        }
      ],
      "name": "distributeWinnings",
      "outputs": [],
      "stateMutability": "nonpayable",
      "type": "function"
    },
    {
      "inputs": [
        {
          "internalType": "uint256",
          "name": "",
          "type": "uint256"
        }
      ],
      "name": "games",
      "outputs": [
        {
          "internalType": "string",
          "name": "description",
          "type": "string"
        },
        {
          "internalType": "bool",
          "name": "isOpen",
          "type": "bool"
        },
        {
          "internalType": "uint256",
          "name": "totalFunds",
          "type": "uint256"
        },
        {
          "internalType": "uint256",
          "name": "numBets",
          "type": "uint256"
        },
        {
          "internalType": "enum BettingContract.GameState",
          "name": "state",
          "type": "uint8"
        }
      ],
      "stateMutability": "view",
      "type": "function"
    },
    {
      "inputs": [],
      "name": "getAllGames",
      "outputs": [
        {
          "components": [
            {
              "internalType": "string",
              "name": "description",
              "type": "string"
            },
            {
              "internalType": "bool",
              "name": "isOpen",
              "type": "bool"
            },
            {
              "internalType": "uint256[]",
              "name": "bets",
              "type": "uint256[]"
            },
            {
              "internalType": "uint256",
              "name": "totalFunds",
              "type": "uint256"
            },
            {
              "internalType": "uint256",
              "name": "numBets",
              "type": "uint256"
            },
            {
              "internalType": "enum BettingContract.GameState",
              "name": "state",
              "type": "uint8"
            }
          ],
          "internalType": "struct BettingContract.Game[]",
          "name": "",
          "type": "tuple[]"
        }
      ],
      "stateMutability": "view",
      "type": "function"
    },
    {
      "inputs": [],
      "name": "numGames",
      "outputs": [
        {
          "internalType": "uint256",
          "name": "",
          "type": "uint256"
        }
      ],
      "stateMutability": "view",
      "type": "function"
    },
    {
      "inputs": [],
      "name": "owner",
      "outputs": [
        {
          "internalType": "address",
          "name": "",
          "type": "address"
        }
      ],
      "stateMutability": "view",
      "type": "function"
    },
    {
      "inputs": [
        {
          "internalType": "uint256",
          "name": "_gameId",
          "type": "uint256"
        },
        {
          "internalType": "uint256",
          "name": "_betOption",
          "type": "uint256"
        }
      ],
      "name": "placeBet",
      "outputs": [],
      "stateMutability": "payable",
      "type": "function"
    },
    {
      "inputs": [
        {
          "internalType": "uint256",
          "name": "_gameId",
          "type": "uint256"
        }
      ],
      "name": "removeBet",
      "outputs": [],
      "stateMutability": "nonpayable",
      "type": "function"
    },
    {
      "inputs": [],
      "name": "testContract",
      "outputs": [
        {
          "internalType": "string",
          "name": "",
          "type": "string"
        }
      ],
      "stateMutability": "pure",
      "type": "function"
    },
    {
      "inputs": [
        {
          "internalType": "uint256",
          "name": "",
          "type": "uint256"
        },
        {
          "internalType": "uint256",
          "name": "",
          "type": "uint256"
        }
      ],
      "name": "winningBets",
      "outputs": [
        {
          "internalType": "uint256",
          "name": "",
          "type": "uint256"
        }
      ],
      "stateMutability": "view",
      "type": "function"
    }
  ],
  "bytecode": "0x608060405234801561001057600080fd5b506000600381905550612ac8806100286000396000f3fe6080604052600436106100c25760003560e01c80636a09f6be1161007f578063c3f010f711610059578063c3f010f71461025f578063db1c45f91461028a578063ee5892b0146102b5578063f798f017146102f2576100c2565b80636a09f6be146101c85780638da5cb5b14610209578063c36631b414610234576100c2565b8063117a5b90146100c75780632d6ef310146101085780632ebc0504146101315780634544c48c1461015a5780634afe62b5146101835780635c2029a91461019f575b600080fd5b3480156100d357600080fd5b506100ee60048036038101906100e991906117c6565b61031b565b6040516100ff959493929190611924565b60405180910390f35b34801561011457600080fd5b5061012f600480360381019061012a91906117c6565b610403565b005b34801561013d57600080fd5b5061015860048036038101906101539190611ab3565b610554565b005b34801561016657600080fd5b50610181600480360381019061017c91906117c6565b6106f8565b005b61019d60048036038101906101989190611afc565b610a92565b005b3480156101ab57600080fd5b506101c660048036038101906101c191906117c6565b610ce9565b005b3480156101d457600080fd5b506101ef60048036038101906101ea9190611afc565b610fd4565b604051610200959493929190611bc5565b60405180910390f35b34801561021557600080fd5b5061021e611044565b60405161022b9190611c18565b60405180910390f35b34801561024057600080fd5b5061024961104c565b6040516102569190611c33565b60405180910390f35b34801561026b57600080fd5b50610274611089565b6040516102819190611c55565b60405180910390f35b34801561029657600080fd5b5061029f61108f565b6040516102ac9190611ee8565b60405180910390f35b3480156102c157600080fd5b506102dc60048036038101906102d79190611afc565b6112b2565b6040516102e99190611c55565b60405180910390f35b3480156102fe57600080fd5b5061031960048036038101906103149190611fd2565b6112e3565b005b6000818154811061032b57600080fd5b906000526020600020906006020160009150905080600001805461034e9061205d565b80601f016020809104026020016040519081016040528092919081815260200182805461037a9061205d565b80156103c75780601f1061039c576101008083540402835291602001916103c7565b820191906000526020600020905b8154815290600101906020018083116103aa57829003601f168201915b5050505050908060010160009054906101000a900460ff16908060030154908060040154908060050160009054906101000a900460ff16905085565b61040b611044565b73ffffffffffffffffffffffffffffffffffffffff163373ffffffffffffffffffffffffffffffffffffffff161461044257600080fd5b6003548110610486576040517f08c379a000000000000000000000000000000000000000000000000000000000815260040161047d906120da565b60405180910390fd5b600080828154811061049b5761049a6120fa565b5b906000526020600020906006020190508060010160009054906101000a900460ff166104fc576040517f08c379a00000000000000000000000000000000000000000000000000000000081526004016104f390612175565b60405180910390fd5b60008160010160006101000a81548160ff0219169083151502179055507f71f4c9aec1b2c51302bcaf09a3f4985709759853536445493905081899603a21826040516105489190611c55565b60405180910390a15050565b60006040518060c00160405280838152602001600115158152602001600067ffffffffffffffff81111561058b5761058a611988565b5b6040519080825280602002602001820160405280156105b95781602001602082028036833780820191505090505b5081526020016000815260200160008152602001600060038111156105e1576105e06118ad565b5b815250908060018154018082558091505060019003906000526020600020906006020160009091909190915060008201518160000190816106229190612341565b5060208201518160010160006101000a81548160ff021916908315150217905550604082015181600201908051906020019061065f9291906116c8565b50606082015181600301556080820151816004015560a08201518160050160006101000a81548160ff0219169083600381111561069f5761069e6118ad565b5b02179055505050600360008154809291906106b990612442565b91905055507fec7ff2cf87269be58abc820fec1f0d290b8132908dd4dd454f4e34cbf0aba08f816040516106ed9190611c33565b60405180910390a150565b610700611044565b73ffffffffffffffffffffffffffffffffffffffff163373ffffffffffffffffffffffffffffffffffffffff161461073757600080fd5b6002600381111561074b5761074a6118ad565b5b6000828154811061075f5761075e6120fa565b5b906000526020600020906006020160050160009054906101000a900460ff1660038111156107905761078f6118ad565b5b146107d0576040517f08c379a00000000000000000000000000000000000000000000000000000000081526004016107c7906124d6565b60405180910390fd5b60008082815481106107e5576107e46120fa565b5b9060005260206000209060060201600301549050600060026000848152602001908152602001600020805490509050600081836108229190612525565b905060005b828110156109f0576000600260008781526020019081526020016000208281548110610856576108556120fa565b5b90600052602060002001549050600060016000888152602001908152602001600020600083815260200190815260200160002090506001600481111561089f5761089e6118ad565b5b8160040160009054906101000a900460ff1660048111156108c3576108c26118ad565b5b14610903576040517f08c379a00000000000000000000000000000000000000000000000000000000081526004016108fa906125a2565b60405180910390fd5b8060000160009054906101000a900473ffffffffffffffffffffffffffffffffffffffff1673ffffffffffffffffffffffffffffffffffffffff166108fc859081150290604051600060405180830381858888f1935050505015801561096d573d6000803e3d6000fd5b5060038160040160006101000a81548160ff02191690836004811115610996576109956118ad565b5b02179055507fafc50e7fb00c9387da74f2f341d5c22aa896696cb64dfc3bafadad937413be7787826003015460036040516109d3939291906125c2565b60405180910390a1505080806109e890612442565b915050610827565b50600360008581548110610a0757610a066120fa565b5b906000526020600020906006020160050160006101000a81548160ff02191690836003811115610a3a57610a396118ad565b5b02179055507f53e67379fd5ef04878470517f547c5213c707bd81b8c9a26dfd445b0ab86af51846002600087815260200190815260200160002085604051610a84939291906126e0565b60405180910390a150505050565b6003548210610ad6576040517f08c379a0000000000000000000000000000000000000000000000000000000008152600401610acd906120da565b60405180910390fd5b6000808381548110610aeb57610aea6120fa565b5b906000526020600020906006020190508060010160009054906101000a900460ff16610b4c576040517f08c379a0000000000000000000000000000000000000000000000000000000008152600401610b439061276a565b60405180910390fd5b60003411610b8f576040517f08c379a0000000000000000000000000000000000000000000000000000000008152600401610b86906127fc565b60405180910390fd5b6000600160008581526020019081526020016000206000836004015481526020019081526020016000209050338160000160006101000a81548173ffffffffffffffffffffffffffffffffffffffff021916908373ffffffffffffffffffffffffffffffffffffffff16021790555034816001018190555083816002018190555082816003018190555060008160040160006101000a81548160ff02191690836004811115610c4157610c406118ad565b5b02179055508160020182600401549080600181540180825580915050600190039060005260206000200160009091909190915055816004016000815480929190610c8a90612442565b919050555034826003016000828254610ca3919061281c565b925050819055507fbb5d359abfa911f55d10e5b1fe62141092342ccba0734899a68c3cdb935b5a578484604051610cdb929190612850565b60405180910390a150505050565b6003548110610d2d576040517f08c379a0000000000000000000000000000000000000000000000000000000008152600401610d24906120da565b60405180910390fd5b6000808281548110610d4257610d416120fa565b5b906000526020600020906006020190508060010160009054906101000a900460ff16610da3576040517f08c379a0000000000000000000000000000000000000000000000000000000008152600401610d9a9061276a565b60405180910390fd5b600081600201905060005b8180549050811015610fce57600060016000868152602001908152602001600020600083815260200190815260200160002090503373ffffffffffffffffffffffffffffffffffffffff168160000160009054906101000a900473ffffffffffffffffffffffffffffffffffffffff1673ffffffffffffffffffffffffffffffffffffffff1603610fba573373ffffffffffffffffffffffffffffffffffffffff166108fc82600101549081150290604051600060405180830381858888f19350505050158015610e83573d6000803e3d6000fd5b508260018480549050610e969190612879565b81548110610ea757610ea66120fa565b5b9060005260206000200154838381548110610ec557610ec46120fa565b5b906000526020600020018190555082805480610ee457610ee36128ad565b5b600190038181906000526020600020016000905590557fafc50e7fb00c9387da74f2f341d5c22aa896696cb64dfc3bafadad937413be778582600301546004604051610f32939291906125c2565b60405180910390a1600160008681526020019081526020016000206000838152602001908152602001600020600080820160006101000a81549073ffffffffffffffffffffffffffffffffffffffff02191690556001820160009055600282016000905560038201600090556004820160006101000a81549060ff0219169055505050610fce565b508080610fc690612442565b915050610dae565b50505050565b6001602052816000526040600020602052806000526040600020600091509150508060000160009054906101000a900473ffffffffffffffffffffffffffffffffffffffff16908060010154908060020154908060030154908060040160009054906101000a900460ff16905085565b600030905090565b60606040518060400160405280600a81526020017f48456c6c4f4f4f4f303000000000000000000000000000000000000000000000815250905090565b60035481565b6060600060035467ffffffffffffffff8111156110af576110ae611988565b5b6040519080825280602002602001820160405280156110e857816020015b6110d5611715565b8152602001906001900390816110cd5790505b50905060005b6003548110156112aa576000818154811061110c5761110b6120fa565b5b90600052602060002090600602016040518060c00160405290816000820180546111359061205d565b80601f01602080910402602001604051908101604052809291908181526020018280546111619061205d565b80156111ae5780601f10611183576101008083540402835291602001916111ae565b820191906000526020600020905b81548152906001019060200180831161119157829003601f168201915b505050505081526020016001820160009054906101000a900460ff161515151581526020016002820180548060200260200160405190810160405280929190818152602001828054801561122157602002820191906000526020600020905b81548152602001906001019080831161120d575b5050505050815260200160038201548152602001600482015481526020016005820160009054906101000a900460ff166003811115611263576112626118ad565b5b6003811115611275576112746118ad565b5b8152505082828151811061128c5761128b6120fa565b5b602002602001018190525080806112a290612442565b9150506110ee565b508091505090565b600260205281600052604060002081815481106112ce57600080fd5b90600052602060002001600091509150505481565b6112eb611044565b73ffffffffffffffffffffffffffffffffffffffff163373ffffffffffffffffffffffffffffffffffffffff161461132257600080fd5b60006003811115611336576113356118ad565b5b6000838154811061134a576113496120fa565b5b906000526020600020906006020160050160009054906101000a900460ff16600381111561137b5761137a6118ad565b5b146113bb576040517f08c379a00000000000000000000000000000000000000000000000000000000081526004016113b29061276a565b60405180910390fd5b60008151116113ff576040517f08c379a00000000000000000000000000000000000000000000000000000000081526004016113f69061294e565b60405180910390fd5b60008281548110611413576114126120fa565b5b90600052602060002090600602016004015481511115611468576040517f08c379a000000000000000000000000000000000000000000000000000000000815260040161145f906129e0565b60405180910390fd5b60005b8151811015611575576000828281518110611489576114886120fa565b5b6020026020010151905060006001600086815260200190815260200160002060008381526020019081526020016000209050600060048111156114cf576114ce6118ad565b5b8160040160009054906101000a900460ff1660048111156114f3576114f26118ad565b5b14611533576040517f08c379a000000000000000000000000000000000000000000000000000000000815260040161152a90612a72565b60405180910390fd5b60018160040160006101000a81548160ff0219169083600481111561155b5761155a6118ad565b5b02179055505050808061156d90612442565b91505061146b565b5060005b6000838154811061158d5761158c6120fa565b5b90600052602060002090600602016004015481101561164d5760006001600085815260200190815260200160002060008381526020019081526020016000209050600060048111156115e2576115e16118ad565b5b8160040160009054906101000a900460ff166004811115611606576116056118ad565b5b036116395760028160040160006101000a81548160ff02191690836004811115611633576116326118ad565b5b02179055505b50808061164590612442565b915050611579565b50806002600084815260200190815260200160002090805190602001906116759291906116c8565b5060026000838154811061168c5761168b6120fa565b5b906000526020600020906006020160050160006101000a81548160ff021916908360038111156116bf576116be6118ad565b5b02179055505050565b828054828255906000526020600020908101928215611704579160200282015b828111156117035782518255916020019190600101906116e8565b5b509050611711919061175f565b5090565b6040518060c001604052806060815260200160001515815260200160608152602001600081526020016000815260200160006003811115611759576117586118ad565b5b81525090565b5b80821115611778576000816000905550600101611760565b5090565b6000604051905090565b600080fd5b600080fd5b6000819050919050565b6117a381611790565b81146117ae57600080fd5b50565b6000813590506117c08161179a565b92915050565b6000602082840312156117dc576117db611786565b5b60006117ea848285016117b1565b91505092915050565b600081519050919050565b600082825260208201905092915050565b60005b8381101561182d578082015181840152602081019050611812565b60008484015250505050565b6000601f19601f8301169050919050565b6000611855826117f3565b61185f81856117fe565b935061186f81856020860161180f565b61187881611839565b840191505092915050565b60008115159050919050565b61189881611883565b82525050565b6118a781611790565b82525050565b7f4e487b7100000000000000000000000000000000000000000000000000000000600052602160045260246000fd5b600481106118ed576118ec6118ad565b5b50565b60008190506118fe826118dc565b919050565b600061190e826118f0565b9050919050565b61191e81611903565b82525050565b600060a082019050818103600083015261193e818861184a565b905061194d602083018761188f565b61195a604083018661189e565b611967606083018561189e565b6119746080830184611915565b9695505050505050565b600080fd5b600080fd5b7f4e487b7100000000000000000000000000000000000000000000000000000000600052604160045260246000fd5b6119c082611839565b810181811067ffffffffffffffff821117156119df576119de611988565b5b80604052505050565b60006119f261177c565b90506119fe82826119b7565b919050565b600067ffffffffffffffff821115611a1e57611a1d611988565b5b611a2782611839565b9050602081019050919050565b82818337600083830152505050565b6000611a56611a5184611a03565b6119e8565b905082815260208101848484011115611a7257611a71611983565b5b611a7d848285611a34565b509392505050565b600082601f830112611a9a57611a9961197e565b5b8135611aaa848260208601611a43565b91505092915050565b600060208284031215611ac957611ac8611786565b5b600082013567ffffffffffffffff811115611ae757611ae661178b565b5b611af384828501611a85565b91505092915050565b60008060408385031215611b1357611b12611786565b5b6000611b21858286016117b1565b9250506020611b32858286016117b1565b9150509250929050565b600073ffffffffffffffffffffffffffffffffffffffff82169050919050565b6000611b6782611b3c565b9050919050565b611b7781611b5c565b82525050565b60058110611b8e57611b8d6118ad565b5b50565b6000819050611b9f82611b7d565b919050565b6000611baf82611b91565b9050919050565b611bbf81611ba4565b82525050565b600060a082019050611bda6000830188611b6e565b611be7602083018761189e565b611bf4604083018661189e565b611c01606083018561189e565b611c0e6080830184611bb6565b9695505050505050565b6000602082019050611c2d6000830184611b6e565b92915050565b60006020820190508181036000830152611c4d818461184a565b905092915050565b6000602082019050611c6a600083018461189e565b92915050565b600081519050919050565b600082825260208201905092915050565b6000819050602082019050919050565b600082825260208201905092915050565b6000611cb8826117f3565b611cc28185611c9c565b9350611cd281856020860161180f565b611cdb81611839565b840191505092915050565b611cef81611883565b82525050565b600081519050919050565b600082825260208201905092915050565b6000819050602082019050919050565b611d2a81611790565b82525050565b6000611d3c8383611d21565b60208301905092915050565b6000602082019050919050565b6000611d6082611cf5565b611d6a8185611d00565b9350611d7583611d11565b8060005b83811015611da6578151611d8d8882611d30565b9750611d9883611d48565b925050600181019050611d79565b5085935050505092915050565b611dbc81611903565b82525050565b600060c0830160008301518482036000860152611ddf8282611cad565b9150506020830151611df46020860182611ce6565b5060408301518482036040860152611e0c8282611d55565b9150506060830151611e216060860182611d21565b506080830151611e346080860182611d21565b5060a0830151611e4760a0860182611db3565b508091505092915050565b6000611e5e8383611dc2565b905092915050565b6000602082019050919050565b6000611e7e82611c70565b611e888185611c7b565b935083602082028501611e9a85611c8c565b8060005b85811015611ed65784840389528151611eb78582611e52565b9450611ec283611e66565b925060208a01995050600181019050611e9e565b50829750879550505050505092915050565b60006020820190508181036000830152611f028184611e73565b905092915050565b600067ffffffffffffffff821115611f2557611f24611988565b5b602082029050602081019050919050565b600080fd5b6000611f4e611f4984611f0a565b6119e8565b90508083825260208201905060208402830185811115611f7157611f70611f36565b5b835b81811015611f9a5780611f8688826117b1565b845260208401935050602081019050611f73565b5050509392505050565b600082601f830112611fb957611fb861197e565b5b8135611fc9848260208601611f3b565b91505092915050565b60008060408385031215611fe957611fe8611786565b5b6000611ff7858286016117b1565b925050602083013567ffffffffffffffff8111156120185761201761178b565b5b61202485828601611fa4565b9150509250929050565b7f4e487b7100000000000000000000000000000000000000000000000000000000600052602260045260246000fd5b6000600282049050600182168061207557607f821691505b6020821081036120885761208761202e565b5b50919050565b7f496e76616c69642067616d652049440000000000000000000000000000000000600082015250565b60006120c4600f836117fe565b91506120cf8261208e565b602082019050919050565b600060208201905081810360008301526120f3816120b7565b9050919050565b7f4e487b7100000000000000000000000000000000000000000000000000000000600052603260045260246000fd5b7f47616d6520697320616c726561647920636c6f73656400000000000000000000600082015250565b600061215f6016836117fe565b915061216a82612129565b602082019050919050565b6000602082019050818103600083015261218e81612152565b9050919050565b60008190508160005260206000209050919050565b60006020601f8301049050919050565b600082821b905092915050565b6000600883026121f77fffffffffffffffffffffffffffffffffffffffffffffffffffffffffffffffff826121ba565b61220186836121ba565b95508019841693508086168417925050509392505050565b6000819050919050565b600061223e61223961223484611790565b612219565b611790565b9050919050565b6000819050919050565b61225883612223565b61226c61226482612245565b8484546121c7565b825550505050565b600090565b612281612274565b61228c81848461224f565b505050565b5b818110156122b0576122a5600082612279565b600181019050612292565b5050565b601f8211156122f5576122c681612195565b6122cf846121aa565b810160208510156122de578190505b6122f26122ea856121aa565b830182612291565b50505b505050565b600082821c905092915050565b6000612318600019846008026122fa565b1980831691505092915050565b60006123318383612307565b9150826002028217905092915050565b61234a826117f3565b67ffffffffffffffff81111561236357612362611988565b5b61236d825461205d565b6123788282856122b4565b600060209050601f8311600181146123ab5760008415612399578287015190505b6123a38582612325565b86555061240b565b601f1984166123b986612195565b60005b828110156123e1578489015182556001820191506020850194506020810190506123bc565b868310156123fe57848901516123fa601f891682612307565b8355505b6001600288020188555050505b505050505050565b7f4e487b7100000000000000000000000000000000000000000000000000000000600052601160045260246000fd5b600061244d82611790565b91507fffffffffffffffffffffffffffffffffffffffffffffffffffffffffffffffff820361247f5761247e612413565b5b600182019050919050565b7f47616d65206973206e6f742077616974696e6720666f722077696e6e65727300600082015250565b60006124c0601f836117fe565b91506124cb8261248a565b602082019050919050565b600060208201905081810360008301526124ef816124b3565b9050919050565b7f4e487b7100000000000000000000000000000000000000000000000000000000600052601260045260246000fd5b600061253082611790565b915061253b83611790565b92508261254b5761254a6124f6565b5b828204905092915050565b7f426574206973206e6f7420612077696e6e696e67206265740000000000000000600082015250565b600061258c6018836117fe565b915061259782612556565b602082019050919050565b600060208201905081810360008301526125bb8161257f565b9050919050565b60006060820190506125d7600083018661189e565b6125e4602083018561189e565b6125f16040830184611bb6565b949350505050565b600081549050919050565b600082825260208201905092915050565b60008190508160005260206000209050919050565b60008160001c9050919050565b6000819050919050565b600061265461264f8361262a565b612637565b9050919050565b60006126678254612641565b9050919050565b6000600182019050919050565b6000612686826125f9565b6126908185612604565b935061269b83612615565b8060005b838110156126d3576126b08261265b565b6126ba8882611d30565b97506126c58361266e565b92505060018101905061269f565b5085935050505092915050565b60006060820190506126f5600083018661189e565b8181036020830152612707818561267b565b9050612716604083018461189e565b949350505050565b7f47616d65206973206e6f74206f70656e00000000000000000000000000000000600082015250565b60006127546010836117fe565b915061275f8261271e565b602082019050919050565b6000602082019050818103600083015261278381612747565b9050919050565b7f42657420616d6f756e74206d7573742062652067726561746572207468616e2060008201527f3000000000000000000000000000000000000000000000000000000000000000602082015250565b60006127e66021836117fe565b91506127f18261278a565b604082019050919050565b60006020820190508181036000830152612815816127d9565b9050919050565b600061282782611790565b915061283283611790565b925082820190508082111561284a57612849612413565b5b92915050565b6000604082019050612865600083018561189e565b612872602083018461189e565b9392505050565b600061288482611790565b915061288f83611790565b92508282039050818111156128a7576128a6612413565b5b92915050565b7f4e487b7100000000000000000000000000000000000000000000000000000000600052603160045260246000fd5b7f4174206c65617374206f6e652077696e6e696e6720626574206d75737420626560008201527f2070726f76696465640000000000000000000000000000000000000000000000602082015250565b60006129386029836117fe565b9150612943826128dc565b604082019050919050565b600060208201905081810360008301526129678161292b565b9050919050565b7f496e76616c6964206e756d626572206f662077696e6e696e672062657473207060008201527f726f766964656400000000000000000000000000000000000000000000000000602082015250565b60006129ca6027836117fe565b91506129d58261296e565b604082019050919050565b600060208201905081810360008301526129f9816129bd565b9050919050565b7f42657420697320616c7265616479206465636c6172656420617320612077696e60008201527f6e6572206f72206c6f7365720000000000000000000000000000000000000000602082015250565b6000612a5c602c836117fe565b9150612a6782612a00565b604082019050919050565b60006020820190508181036000830152612a8b81612a4f565b905091905056fea26469706673582212204919a97c022b94ef567a445027115fe85a13278a1e6924ba9171e1f7ca78181864736f6c63430008130033",
  "linkReferences": {},
  "deployedLinkReferences": {}
}