{
  "_format": "hh-sol-artifact-1",
  "contractName": "BettingContract",
  "sourceName": "contracts/Bet.sol",
  "abi": [
    {
      "inputs": [],
      "stateMutability": "nonpayable",
      "type": "constructor"
    },
    {
      "anonymous": false,
      "inputs": [
        {
          "indexed": false,
          "internalType": "uint256",
          "name": "gameID",
          "type": "uint256"
        },
        {
          "indexed": false,
          "internalType": "uint256",
          "name": "betOption",
          "type": "uint256"
        },
        {
          "indexed": false,
          "internalType": "enum BettingContract.BetState",
          "name": "newState",
          "type": "uint8"
        }
      ],
      "name": "BetStateChanged",
      "type": "event"
    },
    {
      "anonymous": false,
      "inputs": [
        {
          "indexed": false,
          "internalType": "uint256",
          "name": "gameID",
          "type": "uint256"
        }
      ],
      "name": "GameClosed",
      "type": "event"
    },
    {
      "anonymous": false,
      "inputs": [
        {
          "indexed": false,
          "internalType": "uint256",
          "name": "gameID",
          "type": "uint256"
        },
        {
          "indexed": false,
          "internalType": "uint256",
          "name": "betOption",
          "type": "uint256"
        }
      ],
      "name": "NewBet",
      "type": "event"
    },
    {
      "anonymous": false,
      "inputs": [
        {
          "indexed": false,
          "internalType": "string",
          "name": "description",
          "type": "string"
        }
      ],
      "name": "NewGame",
      "type": "event"
    },
    {
      "anonymous": false,
      "inputs": [
        {
          "indexed": false,
          "internalType": "uint256",
          "name": "gameID",
          "type": "uint256"
        },
        {
          "indexed": false,
          "internalType": "uint256[]",
          "name": "winningBets",
          "type": "uint256[]"
        },
        {
          "indexed": false,
          "internalType": "uint256",
          "name": "totalWinnings",
          "type": "uint256"
        }
      ],
      "name": "WinningsDistributed",
      "type": "event"
    },
    {
      "inputs": [
        {
          "internalType": "uint256",
          "name": "",
          "type": "uint256"
        },
        {
          "internalType": "uint256",
          "name": "",
          "type": "uint256"
        }
      ],
      "name": "bets",
      "outputs": [
        {
          "internalType": "address",
          "name": "user",
          "type": "address"
        },
        {
          "internalType": "uint256",
          "name": "amount",
          "type": "uint256"
        },
        {
          "internalType": "uint256",
          "name": "gameID",
          "type": "uint256"
        },
        {
          "internalType": "uint256",
          "name": "betOption",
          "type": "uint256"
        },
        {
          "internalType": "enum BettingContract.BetState",
          "name": "state",
          "type": "uint8"
        }
      ],
      "stateMutability": "view",
      "type": "function"
    },
    {
      "inputs": [
        {
          "internalType": "uint256",
          "name": "_gameId",
          "type": "uint256"
        }
      ],
      "name": "closeGame",
      "outputs": [],
      "stateMutability": "nonpayable",
      "type": "function"
    },
    {
      "inputs": [
        {
          "internalType": "string",
          "name": "_description",
          "type": "string"
        },
        {
          "internalType": "string[]",
          "name": "_options",
          "type": "string[]"
        }
      ],
      "name": "createGame",
      "outputs": [],
      "stateMutability": "nonpayable",
      "type": "function"
    },
    {
      "inputs": [
        {
          "internalType": "uint256",
          "name": "_gameId",
          "type": "uint256"
        },
        {
          "internalType": "uint256[]",
          "name": "_winningBets",
          "type": "uint256[]"
        }
      ],
      "name": "declareWinners",
      "outputs": [],
      "stateMutability": "nonpayable",
      "type": "function"
    },
    {
      "inputs": [
        {
          "internalType": "uint256",
          "name": "_gameId",
          "type": "uint256"
        }
      ],
      "name": "distributeWinnings",
      "outputs": [],
      "stateMutability": "nonpayable",
      "type": "function"
    },
    {
      "inputs": [
        {
          "internalType": "uint256",
          "name": "",
          "type": "uint256"
        }
      ],
      "name": "games",
      "outputs": [
        {
          "internalType": "string",
          "name": "description",
          "type": "string"
        },
        {
          "internalType": "bool",
          "name": "isOpen",
          "type": "bool"
        },
        {
          "internalType": "uint256",
          "name": "totalFunds",
          "type": "uint256"
        },
        {
          "internalType": "uint256",
          "name": "numBets",
          "type": "uint256"
        },
        {
          "internalType": "enum BettingContract.GameState",
          "name": "state",
          "type": "uint8"
        }
      ],
      "stateMutability": "view",
      "type": "function"
    },
    {
      "inputs": [],
      "name": "getAllGames",
      "outputs": [
        {
          "components": [
            {
              "internalType": "string",
              "name": "description",
              "type": "string"
            },
            {
              "internalType": "bool",
              "name": "isOpen",
              "type": "bool"
            },
            {
              "internalType": "uint256[]",
              "name": "bets",
              "type": "uint256[]"
            },
            {
              "internalType": "uint256",
              "name": "totalFunds",
              "type": "uint256"
            },
            {
              "internalType": "uint256",
              "name": "numBets",
              "type": "uint256"
            },
            {
              "internalType": "enum BettingContract.GameState",
              "name": "state",
              "type": "uint8"
            },
            {
              "internalType": "string[]",
              "name": "options",
              "type": "string[]"
            }
          ],
          "internalType": "struct BettingContract.Game[]",
          "name": "",
          "type": "tuple[]"
        }
      ],
      "stateMutability": "view",
      "type": "function"
    },
    {
      "inputs": [],
      "name": "numGames",
      "outputs": [
        {
          "internalType": "uint256",
          "name": "",
          "type": "uint256"
        }
      ],
      "stateMutability": "view",
      "type": "function"
    },
    {
      "inputs": [],
      "name": "owner",
      "outputs": [
        {
          "internalType": "address",
          "name": "",
          "type": "address"
        }
      ],
      "stateMutability": "view",
      "type": "function"
    },
    {
      "inputs": [
        {
          "internalType": "uint256",
          "name": "_gameId",
          "type": "uint256"
        },
        {
          "internalType": "uint256",
          "name": "_betOption",
          "type": "uint256"
        }
      ],
      "name": "placeBet",
      "outputs": [],
      "stateMutability": "payable",
      "type": "function"
    },
    {
      "inputs": [
        {
          "internalType": "uint256",
          "name": "_gameId",
          "type": "uint256"
        }
      ],
      "name": "removeBet",
      "outputs": [],
      "stateMutability": "nonpayable",
      "type": "function"
    },
    {
      "inputs": [
        {
          "internalType": "uint256",
          "name": "",
          "type": "uint256"
        },
        {
          "internalType": "uint256",
          "name": "",
          "type": "uint256"
        }
      ],
      "name": "winningBets",
      "outputs": [
        {
          "internalType": "uint256",
          "name": "",
          "type": "uint256"
        }
      ],
      "stateMutability": "view",
      "type": "function"
    }
  ],
  "bytecode": "0x608060405234801561001057600080fd5b50600060038190555033600460006101000a81548173ffffffffffffffffffffffffffffffffffffffff021916908373ffffffffffffffffffffffffffffffffffffffff160217905550612e61806100696000396000f3fe6080604052600436106100a75760003560e01c80638da5cb5b116100645780638da5cb5b146101c5578063b0392058146101f0578063c3f010f714610219578063db1c45f914610244578063ee5892b01461026f578063f798f017146102ac576100a7565b8063117a5b90146100ac5780632d6ef310146100ed5780634544c48c146101165780634afe62b51461013f5780635c2029a91461015b5780636a09f6be14610184575b600080fd5b3480156100b857600080fd5b506100d360048036038101906100ce9190611973565b6102d5565b6040516100e4959493929190611ad1565b60405180910390f35b3480156100f957600080fd5b50610114600480360381019061010f9190611973565b6103bd565b005b34801561012257600080fd5b5061013d60048036038101906101389190611973565b610529565b005b61015960048036038101906101549190611b2b565b6108de565b005b34801561016757600080fd5b50610182600480360381019061017d9190611973565b610b35565b005b34801561019057600080fd5b506101ab60048036038101906101a69190611b2b565b610e20565b6040516101bc959493929190611bf4565b60405180910390f35b3480156101d157600080fd5b506101da610e90565b6040516101e79190611c47565b60405180910390f35b3480156101fc57600080fd5b5061021760048036038101906102129190611e7d565b610eb6565b005b34801561022557600080fd5b5061022e61107e565b60405161023b9190611ef5565b60405180910390f35b34801561025057600080fd5b50610259611084565b6040516102669190612264565b60405180910390f35b34801561027b57600080fd5b5061029660048036038101906102919190611b2b565b611380565b6040516102a39190611ef5565b60405180910390f35b3480156102b857600080fd5b506102d360048036038101906102ce9190612349565b6113b1565b005b600081815481106102e557600080fd5b9060005260206000209060070201600091509050806000018054610308906123d4565b80601f0160208091040260200160405190810160405280929190818152602001828054610334906123d4565b80156103815780601f1061035657610100808354040283529160200191610381565b820191906000526020600020905b81548152906001019060200180831161036457829003601f168201915b5050505050908060010160009054906101000a900460ff16908060030154908060040154908060050160009054906101000a900460ff16905085565b600460009054906101000a900473ffffffffffffffffffffffffffffffffffffffff1673ffffffffffffffffffffffffffffffffffffffff163373ffffffffffffffffffffffffffffffffffffffff161461041757600080fd5b600354811061045b576040517f08c379a000000000000000000000000000000000000000000000000000000000815260040161045290612451565b60405180910390fd5b60008082815481106104705761046f612471565b5b906000526020600020906007020190508060010160009054906101000a900460ff166104d1576040517f08c379a00000000000000000000000000000000000000000000000000000000081526004016104c8906124ec565b60405180910390fd5b60008160010160006101000a81548160ff0219169083151502179055507f71f4c9aec1b2c51302bcaf09a3f4985709759853536445493905081899603a218260405161051d9190611ef5565b60405180910390a15050565b600460009054906101000a900473ffffffffffffffffffffffffffffffffffffffff1673ffffffffffffffffffffffffffffffffffffffff163373ffffffffffffffffffffffffffffffffffffffff161461058357600080fd5b6002600381111561059757610596611a5a565b5b600082815481106105ab576105aa612471565b5b906000526020600020906007020160050160009054906101000a900460ff1660038111156105dc576105db611a5a565b5b1461061c576040517f08c379a000000000000000000000000000000000000000000000000000000000815260040161061390612558565b60405180910390fd5b600080828154811061063157610630612471565b5b90600052602060002090600702016003015490506000600260008481526020019081526020016000208054905090506000818361066e91906125d6565b905060005b8281101561083c5760006002600087815260200190815260200160002082815481106106a2576106a1612471565b5b9060005260206000200154905060006001600088815260200190815260200160002060008381526020019081526020016000209050600160048111156106eb576106ea611a5a565b5b8160040160009054906101000a900460ff16600481111561070f5761070e611a5a565b5b1461074f576040517f08c379a000000000000000000000000000000000000000000000000000000000815260040161074690612653565b60405180910390fd5b8060000160009054906101000a900473ffffffffffffffffffffffffffffffffffffffff1673ffffffffffffffffffffffffffffffffffffffff166108fc859081150290604051600060405180830381858888f193505050501580156107b9573d6000803e3d6000fd5b5060038160040160006101000a81548160ff021916908360048111156107e2576107e1611a5a565b5b02179055507fafc50e7fb00c9387da74f2f341d5c22aa896696cb64dfc3bafadad937413be77878260030154600360405161081f93929190612673565b60405180910390a150508080610834906126aa565b915050610673565b5060036000858154811061085357610852612471565b5b906000526020600020906007020160050160006101000a81548160ff0219169083600381111561088657610885611a5a565b5b02179055507f53e67379fd5ef04878470517f547c5213c707bd81b8c9a26dfd445b0ab86af518460026000878152602001908152602001600020856040516108d0939291906127d9565b60405180910390a150505050565b6003548210610922576040517f08c379a000000000000000000000000000000000000000000000000000000000815260040161091990612451565b60405180910390fd5b600080838154811061093757610936612471565b5b906000526020600020906007020190508060010160009054906101000a900460ff16610998576040517f08c379a000000000000000000000000000000000000000000000000000000000815260040161098f90612863565b60405180910390fd5b600034116109db576040517f08c379a00000000000000000000000000000000000000000000000000000000081526004016109d2906128f5565b60405180910390fd5b6000600160008581526020019081526020016000206000836004015481526020019081526020016000209050338160000160006101000a81548173ffffffffffffffffffffffffffffffffffffffff021916908373ffffffffffffffffffffffffffffffffffffffff16021790555034816001018190555083816002018190555082816003018190555060008160040160006101000a81548160ff02191690836004811115610a8d57610a8c611a5a565b5b02179055508160020182600401549080600181540180825580915050600190039060005260206000200160009091909190915055816004016000815480929190610ad6906126aa565b919050555034826003016000828254610aef9190612915565b925050819055507fbb5d359abfa911f55d10e5b1fe62141092342ccba0734899a68c3cdb935b5a578484604051610b27929190612949565b60405180910390a150505050565b6003548110610b79576040517f08c379a0000000000000000000000000000000000000000000000000000000008152600401610b7090612451565b60405180910390fd5b6000808281548110610b8e57610b8d612471565b5b906000526020600020906007020190508060010160009054906101000a900460ff16610bef576040517f08c379a0000000000000000000000000000000000000000000000000000000008152600401610be690612863565b60405180910390fd5b600081600201905060005b8180549050811015610e1a57600060016000868152602001908152602001600020600083815260200190815260200160002090503373ffffffffffffffffffffffffffffffffffffffff168160000160009054906101000a900473ffffffffffffffffffffffffffffffffffffffff1673ffffffffffffffffffffffffffffffffffffffff1603610e06573373ffffffffffffffffffffffffffffffffffffffff166108fc82600101549081150290604051600060405180830381858888f19350505050158015610ccf573d6000803e3d6000fd5b508260018480549050610ce29190612972565b81548110610cf357610cf2612471565b5b9060005260206000200154838381548110610d1157610d10612471565b5b906000526020600020018190555082805480610d3057610d2f6129a6565b5b600190038181906000526020600020016000905590557fafc50e7fb00c9387da74f2f341d5c22aa896696cb64dfc3bafadad937413be778582600301546004604051610d7e93929190612673565b60405180910390a1600160008681526020019081526020016000206000838152602001908152602001600020600080820160006101000a81549073ffffffffffffffffffffffffffffffffffffffff02191690556001820160009055600282016000905560038201600090556004820160006101000a81549060ff0219169055505050610e1a565b508080610e12906126aa565b915050610bfa565b50505050565b6001602052816000526040600020602052806000526040600020600091509150508060000160009054906101000a900473ffffffffffffffffffffffffffffffffffffffff16908060010154908060020154908060030154908060040160009054906101000a900460ff16905085565b600460009054906101000a900473ffffffffffffffffffffffffffffffffffffffff1681565b60006040518060e00160405280848152602001600115158152602001600067ffffffffffffffff811115610eed57610eec611c6c565b5b604051908082528060200260200182016040528015610f1b5781602001602082028036833780820191505090505b508152602001600081526020016000815260200160006003811115610f4357610f42611a5a565b5b81526020018381525090806001815401808255809150506001900390600052602060002090600702016000909190919091506000820151816000019081610f8a9190612b81565b5060208201518160010160006101000a81548160ff0219169083151502179055506040820151816002019080519060200190610fc79291906117b1565b50606082015181600301556080820151816004015560a08201518160050160006101000a81548160ff0219169083600381111561100757611006611a5a565b5b021790555060c08201518160060190805190602001906110289291906117fe565b5050506003600081548092919061103e906126aa565b91905055507fec7ff2cf87269be58abc820fec1f0d290b8132908dd4dd454f4e34cbf0aba08f826040516110729190612c53565b60405180910390a15050565b60035481565b6060600060035467ffffffffffffffff8111156110a4576110a3611c6c565b5b6040519080825280602002602001820160405280156110dd57816020015b6110ca611857565b8152602001906001900390816110c25790505b50905060005b600354811015611378576000818154811061110157611100612471565b5b90600052602060002090600702016040518060e001604052908160008201805461112a906123d4565b80601f0160208091040260200160405190810160405280929190818152602001828054611156906123d4565b80156111a35780601f10611178576101008083540402835291602001916111a3565b820191906000526020600020905b81548152906001019060200180831161118657829003601f168201915b505050505081526020016001820160009054906101000a900460ff161515151581526020016002820180548060200260200160405190810160405280929190818152602001828054801561121657602002820191906000526020600020905b815481526020019060010190808311611202575b5050505050815260200160038201548152602001600482015481526020016005820160009054906101000a900460ff16600381111561125857611257611a5a565b5b600381111561126a57611269611a5a565b5b815260200160068201805480602002602001604051908101604052809291908181526020016000905b8282101561133f5783829060005260206000200180546112b2906123d4565b80601f01602080910402602001604051908101604052809291908181526020018280546112de906123d4565b801561132b5780601f106113005761010080835404028352916020019161132b565b820191906000526020600020905b81548152906001019060200180831161130e57829003601f168201915b505050505081526020019060010190611293565b505050508152505082828151811061135a57611359612471565b5b60200260200101819052508080611370906126aa565b9150506110e3565b508091505090565b6002602052816000526040600020818154811061139c57600080fd5b90600052602060002001600091509150505481565b600460009054906101000a900473ffffffffffffffffffffffffffffffffffffffff1673ffffffffffffffffffffffffffffffffffffffff163373ffffffffffffffffffffffffffffffffffffffff161461140b57600080fd5b6000600381111561141f5761141e611a5a565b5b6000838154811061143357611432612471565b5b906000526020600020906007020160050160009054906101000a900460ff16600381111561146457611463611a5a565b5b146114a4576040517f08c379a000000000000000000000000000000000000000000000000000000000815260040161149b90612863565b60405180910390fd5b60008151116114e8576040517f08c379a00000000000000000000000000000000000000000000000000000000081526004016114df90612ce7565b60405180910390fd5b600082815481106114fc576114fb612471565b5b90600052602060002090600702016004015481511115611551576040517f08c379a000000000000000000000000000000000000000000000000000000000815260040161154890612d79565b60405180910390fd5b60005b815181101561165e57600082828151811061157257611571612471565b5b6020026020010151905060006001600086815260200190815260200160002060008381526020019081526020016000209050600060048111156115b8576115b7611a5a565b5b8160040160009054906101000a900460ff1660048111156115dc576115db611a5a565b5b1461161c576040517f08c379a000000000000000000000000000000000000000000000000000000000815260040161161390612e0b565b60405180910390fd5b60018160040160006101000a81548160ff0219169083600481111561164457611643611a5a565b5b021790555050508080611656906126aa565b915050611554565b5060005b6000838154811061167657611675612471565b5b9060005260206000209060070201600401548110156117365760006001600085815260200190815260200160002060008381526020019081526020016000209050600060048111156116cb576116ca611a5a565b5b8160040160009054906101000a900460ff1660048111156116ef576116ee611a5a565b5b036117225760028160040160006101000a81548160ff0219169083600481111561171c5761171b611a5a565b5b02179055505b50808061172e906126aa565b915050611662565b508060026000848152602001908152602001600020908051906020019061175e9291906117b1565b5060026000838154811061177557611774612471565b5b906000526020600020906007020160050160006101000a81548160ff021916908360038111156117a8576117a7611a5a565b5b02179055505050565b8280548282559060005260206000209081019282156117ed579160200282015b828111156117ec5782518255916020019190600101906117d1565b5b5090506117fa91906118a8565b5090565b828054828255906000526020600020908101928215611846579160200282015b828111156118455782518290816118359190612b81565b509160200191906001019061181e565b5b50905061185391906118c5565b5090565b6040518060e00160405280606081526020016000151581526020016060815260200160008152602001600081526020016000600381111561189b5761189a611a5a565b5b8152602001606081525090565b5b808211156118c15760008160009055506001016118a9565b5090565b5b808211156118e557600081816118dc91906118e9565b506001016118c6565b5090565b5080546118f5906123d4565b6000825580601f106119075750611926565b601f01602090049060005260206000209081019061192591906118a8565b5b50565b6000604051905090565b600080fd5b600080fd5b6000819050919050565b6119508161193d565b811461195b57600080fd5b50565b60008135905061196d81611947565b92915050565b60006020828403121561198957611988611933565b5b60006119978482850161195e565b91505092915050565b600081519050919050565b600082825260208201905092915050565b60005b838110156119da5780820151818401526020810190506119bf565b60008484015250505050565b6000601f19601f8301169050919050565b6000611a02826119a0565b611a0c81856119ab565b9350611a1c8185602086016119bc565b611a25816119e6565b840191505092915050565b60008115159050919050565b611a4581611a30565b82525050565b611a548161193d565b82525050565b7f4e487b7100000000000000000000000000000000000000000000000000000000600052602160045260246000fd5b60048110611a9a57611a99611a5a565b5b50565b6000819050611aab82611a89565b919050565b6000611abb82611a9d565b9050919050565b611acb81611ab0565b82525050565b600060a0820190508181036000830152611aeb81886119f7565b9050611afa6020830187611a3c565b611b076040830186611a4b565b611b146060830185611a4b565b611b216080830184611ac2565b9695505050505050565b60008060408385031215611b4257611b41611933565b5b6000611b508582860161195e565b9250506020611b618582860161195e565b9150509250929050565b600073ffffffffffffffffffffffffffffffffffffffff82169050919050565b6000611b9682611b6b565b9050919050565b611ba681611b8b565b82525050565b60058110611bbd57611bbc611a5a565b5b50565b6000819050611bce82611bac565b919050565b6000611bde82611bc0565b9050919050565b611bee81611bd3565b82525050565b600060a082019050611c096000830188611b9d565b611c166020830187611a4b565b611c236040830186611a4b565b611c306060830185611a4b565b611c3d6080830184611be5565b9695505050505050565b6000602082019050611c5c6000830184611b9d565b92915050565b600080fd5b600080fd5b7f4e487b7100000000000000000000000000000000000000000000000000000000600052604160045260246000fd5b611ca4826119e6565b810181811067ffffffffffffffff82111715611cc357611cc2611c6c565b5b80604052505050565b6000611cd6611929565b9050611ce28282611c9b565b919050565b600067ffffffffffffffff821115611d0257611d01611c6c565b5b611d0b826119e6565b9050602081019050919050565b82818337600083830152505050565b6000611d3a611d3584611ce7565b611ccc565b905082815260208101848484011115611d5657611d55611c67565b5b611d61848285611d18565b509392505050565b600082601f830112611d7e57611d7d611c62565b5b8135611d8e848260208601611d27565b91505092915050565b600067ffffffffffffffff821115611db257611db1611c6c565b5b602082029050602081019050919050565b600080fd5b6000611ddb611dd684611d97565b611ccc565b90508083825260208201905060208402830185811115611dfe57611dfd611dc3565b5b835b81811015611e4557803567ffffffffffffffff811115611e2357611e22611c62565b5b808601611e308982611d69565b85526020850194505050602081019050611e00565b5050509392505050565b600082601f830112611e6457611e63611c62565b5b8135611e74848260208601611dc8565b91505092915050565b60008060408385031215611e9457611e93611933565b5b600083013567ffffffffffffffff811115611eb257611eb1611938565b5b611ebe85828601611d69565b925050602083013567ffffffffffffffff811115611edf57611ede611938565b5b611eeb85828601611e4f565b9150509250929050565b6000602082019050611f0a6000830184611a4b565b92915050565b600081519050919050565b600082825260208201905092915050565b6000819050602082019050919050565b600082825260208201905092915050565b6000611f58826119a0565b611f628185611f3c565b9350611f728185602086016119bc565b611f7b816119e6565b840191505092915050565b611f8f81611a30565b82525050565b600081519050919050565b600082825260208201905092915050565b6000819050602082019050919050565b611fca8161193d565b82525050565b6000611fdc8383611fc1565b60208301905092915050565b6000602082019050919050565b600061200082611f95565b61200a8185611fa0565b935061201583611fb1565b8060005b8381101561204657815161202d8882611fd0565b975061203883611fe8565b925050600181019050612019565b5085935050505092915050565b61205c81611ab0565b82525050565b600081519050919050565b600082825260208201905092915050565b6000819050602082019050919050565b600061209a8383611f4d565b905092915050565b6000602082019050919050565b60006120ba82612062565b6120c4818561206d565b9350836020820285016120d68561207e565b8060005b8581101561211257848403895281516120f3858261208e565b94506120fe836120a2565b925060208a019950506001810190506120da565b50829750879550505050505092915050565b600060e08301600083015184820360008601526121418282611f4d565b91505060208301516121566020860182611f86565b506040830151848203604086015261216e8282611ff5565b91505060608301516121836060860182611fc1565b5060808301516121966080860182611fc1565b5060a08301516121a960a0860182612053565b5060c083015184820360c08601526121c182826120af565b9150508091505092915050565b60006121da8383612124565b905092915050565b6000602082019050919050565b60006121fa82611f10565b6122048185611f1b565b93508360208202850161221685611f2c565b8060005b85811015612252578484038952815161223385826121ce565b945061223e836121e2565b925060208a0199505060018101905061221a565b50829750879550505050505092915050565b6000602082019050818103600083015261227e81846121ef565b905092915050565b600067ffffffffffffffff8211156122a1576122a0611c6c565b5b602082029050602081019050919050565b60006122c56122c084612286565b611ccc565b905080838252602082019050602084028301858111156122e8576122e7611dc3565b5b835b8181101561231157806122fd888261195e565b8452602084019350506020810190506122ea565b5050509392505050565b600082601f8301126123305761232f611c62565b5b81356123408482602086016122b2565b91505092915050565b600080604083850312156123605761235f611933565b5b600061236e8582860161195e565b925050602083013567ffffffffffffffff81111561238f5761238e611938565b5b61239b8582860161231b565b9150509250929050565b7f4e487b7100000000000000000000000000000000000000000000000000000000600052602260045260246000fd5b600060028204905060018216806123ec57607f821691505b6020821081036123ff576123fe6123a5565b5b50919050565b7f496e76616c69642067616d652049440000000000000000000000000000000000600082015250565b600061243b600f836119ab565b915061244682612405565b602082019050919050565b6000602082019050818103600083015261246a8161242e565b9050919050565b7f4e487b7100000000000000000000000000000000000000000000000000000000600052603260045260246000fd5b7f47616d6520697320616c726561647920636c6f73656400000000000000000000600082015250565b60006124d66016836119ab565b91506124e1826124a0565b602082019050919050565b60006020820190508181036000830152612505816124c9565b9050919050565b7f47616d65206973206e6f742077616974696e6720666f722077696e6e65727300600082015250565b6000612542601f836119ab565b915061254d8261250c565b602082019050919050565b6000602082019050818103600083015261257181612535565b9050919050565b7f4e487b7100000000000000000000000000000000000000000000000000000000600052601260045260246000fd5b7f4e487b7100000000000000000000000000000000000000000000000000000000600052601160045260246000fd5b60006125e18261193d565b91506125ec8361193d565b9250826125fc576125fb612578565b5b828204905092915050565b7f426574206973206e6f7420612077696e6e696e67206265740000000000000000600082015250565b600061263d6018836119ab565b915061264882612607565b602082019050919050565b6000602082019050818103600083015261266c81612630565b9050919050565b60006060820190506126886000830186611a4b565b6126956020830185611a4b565b6126a26040830184611be5565b949350505050565b60006126b58261193d565b91507fffffffffffffffffffffffffffffffffffffffffffffffffffffffffffffffff82036126e7576126e66125a7565b5b600182019050919050565b600081549050919050565b600082825260208201905092915050565b60008190508160005260206000209050919050565b60008160001c9050919050565b6000819050919050565b600061274d61274883612723565b612730565b9050919050565b6000612760825461273a565b9050919050565b6000600182019050919050565b600061277f826126f2565b61278981856126fd565b93506127948361270e565b8060005b838110156127cc576127a982612754565b6127b38882611fd0565b97506127be83612767565b925050600181019050612798565b5085935050505092915050565b60006060820190506127ee6000830186611a4b565b81810360208301526128008185612774565b905061280f6040830184611a4b565b949350505050565b7f47616d65206973206e6f74206f70656e00000000000000000000000000000000600082015250565b600061284d6010836119ab565b915061285882612817565b602082019050919050565b6000602082019050818103600083015261287c81612840565b9050919050565b7f42657420616d6f756e74206d7573742062652067726561746572207468616e2060008201527f3000000000000000000000000000000000000000000000000000000000000000602082015250565b60006128df6021836119ab565b91506128ea82612883565b604082019050919050565b6000602082019050818103600083015261290e816128d2565b9050919050565b60006129208261193d565b915061292b8361193d565b9250828201905080821115612943576129426125a7565b5b92915050565b600060408201905061295e6000830185611a4b565b61296b6020830184611a4b565b9392505050565b600061297d8261193d565b91506129888361193d565b92508282039050818111156129a05761299f6125a7565b5b92915050565b7f4e487b7100000000000000000000000000000000000000000000000000000000600052603160045260246000fd5b60008190508160005260206000209050919050565b60006020601f8301049050919050565b600082821b905092915050565b600060088302612a377fffffffffffffffffffffffffffffffffffffffffffffffffffffffffffffffff826129fa565b612a4186836129fa565b95508019841693508086168417925050509392505050565b6000819050919050565b6000612a7e612a79612a748461193d565b612a59565b61193d565b9050919050565b6000819050919050565b612a9883612a63565b612aac612aa482612a85565b848454612a07565b825550505050565b600090565b612ac1612ab4565b612acc818484612a8f565b505050565b5b81811015612af057612ae5600082612ab9565b600181019050612ad2565b5050565b601f821115612b3557612b06816129d5565b612b0f846129ea565b81016020851015612b1e578190505b612b32612b2a856129ea565b830182612ad1565b50505b505050565b600082821c905092915050565b6000612b5860001984600802612b3a565b1980831691505092915050565b6000612b718383612b47565b9150826002028217905092915050565b612b8a826119a0565b67ffffffffffffffff811115612ba357612ba2611c6c565b5b612bad82546123d4565b612bb8828285612af4565b600060209050601f831160018114612beb5760008415612bd9578287015190505b612be38582612b65565b865550612c4b565b601f198416612bf9866129d5565b60005b82811015612c2157848901518255600182019150602085019450602081019050612bfc565b86831015612c3e5784890151612c3a601f891682612b47565b8355505b6001600288020188555050505b505050505050565b60006020820190508181036000830152612c6d81846119f7565b905092915050565b7f4174206c65617374206f6e652077696e6e696e6720626574206d75737420626560008201527f2070726f76696465640000000000000000000000000000000000000000000000602082015250565b6000612cd16029836119ab565b9150612cdc82612c75565b604082019050919050565b60006020820190508181036000830152612d0081612cc4565b9050919050565b7f496e76616c6964206e756d626572206f662077696e6e696e672062657473207060008201527f726f766964656400000000000000000000000000000000000000000000000000602082015250565b6000612d636027836119ab565b9150612d6e82612d07565b604082019050919050565b60006020820190508181036000830152612d9281612d56565b9050919050565b7f42657420697320616c7265616479206465636c6172656420617320612077696e60008201527f6e6572206f72206c6f7365720000000000000000000000000000000000000000602082015250565b6000612df5602c836119ab565b9150612e0082612d99565b604082019050919050565b60006020820190508181036000830152612e2481612de8565b905091905056fea26469706673582212204991163f592a1d2b2e0e3a7223746fc76a5e9ad253db91d77ac974f0c305fe4864736f6c63430008130033",
  "linkReferences": {},
  "deployedLinkReferences": {}
}