{
  "_format": "hh-sol-artifact-1",
  "contractName": "BettingContract",
  "sourceName": "contracts/Bet.sol",
  "abi": [
    {
      "inputs": [],
      "stateMutability": "nonpayable",
      "type": "constructor"
    },
    {
      "anonymous": false,
      "inputs": [
        {
          "indexed": false,
          "internalType": "uint256",
          "name": "gameID",
          "type": "uint256"
        },
        {
          "indexed": false,
          "internalType": "uint256",
          "name": "betOption",
          "type": "uint256"
        },
        {
          "indexed": false,
          "internalType": "enum BettingContract.BetState",
          "name": "newState",
          "type": "uint8"
        }
      ],
      "name": "BetStateChanged",
      "type": "event"
    },
    {
      "anonymous": false,
      "inputs": [
        {
          "indexed": false,
          "internalType": "uint256",
          "name": "gameID",
          "type": "uint256"
        }
      ],
      "name": "GameClosed",
      "type": "event"
    },
    {
      "anonymous": false,
      "inputs": [
        {
          "indexed": false,
          "internalType": "uint256",
          "name": "gameID",
          "type": "uint256"
        },
        {
          "indexed": false,
          "internalType": "uint256",
          "name": "betOption",
          "type": "uint256"
        }
      ],
      "name": "NewBet",
      "type": "event"
    },
    {
      "anonymous": false,
      "inputs": [
        {
          "indexed": false,
          "internalType": "string",
          "name": "description",
          "type": "string"
        }
      ],
      "name": "NewGame",
      "type": "event"
    },
    {
      "anonymous": false,
      "inputs": [
        {
          "indexed": false,
          "internalType": "uint256",
          "name": "gameID",
          "type": "uint256"
        },
        {
          "indexed": false,
          "internalType": "uint256[]",
          "name": "winningBets",
          "type": "uint256[]"
        },
        {
          "indexed": false,
          "internalType": "uint256",
          "name": "totalWinnings",
          "type": "uint256"
        }
      ],
      "name": "WinningsDistributed",
      "type": "event"
    },
    {
      "inputs": [
        {
          "internalType": "uint256",
          "name": "",
          "type": "uint256"
        },
        {
          "internalType": "uint256",
          "name": "",
          "type": "uint256"
        }
      ],
      "name": "bets",
      "outputs": [
        {
          "internalType": "address",
          "name": "user",
          "type": "address"
        },
        {
          "internalType": "uint256",
          "name": "amount",
          "type": "uint256"
        },
        {
          "internalType": "uint256",
          "name": "gameID",
          "type": "uint256"
        },
        {
          "internalType": "uint256",
          "name": "betOption",
          "type": "uint256"
        },
        {
          "internalType": "enum BettingContract.BetState",
          "name": "state",
          "type": "uint8"
        }
      ],
      "stateMutability": "view",
      "type": "function"
    },
    {
      "inputs": [
        {
          "internalType": "uint256",
          "name": "_gameId",
          "type": "uint256"
        }
      ],
      "name": "closeGame",
      "outputs": [],
      "stateMutability": "nonpayable",
      "type": "function"
    },
    {
      "inputs": [
        {
          "internalType": "string",
          "name": "_description",
          "type": "string"
        }
      ],
      "name": "createGame",
      "outputs": [],
      "stateMutability": "nonpayable",
      "type": "function"
    },
    {
      "inputs": [
        {
          "internalType": "uint256",
          "name": "_gameId",
          "type": "uint256"
        },
        {
          "internalType": "uint256[]",
          "name": "_winningBets",
          "type": "uint256[]"
        }
      ],
      "name": "declareWinners",
      "outputs": [],
      "stateMutability": "nonpayable",
      "type": "function"
    },
    {
      "inputs": [
        {
          "internalType": "uint256",
          "name": "_gameId",
          "type": "uint256"
        }
      ],
      "name": "distributeWinnings",
      "outputs": [],
      "stateMutability": "nonpayable",
      "type": "function"
    },
    {
      "inputs": [
        {
          "internalType": "uint256",
          "name": "",
          "type": "uint256"
        }
      ],
      "name": "games",
      "outputs": [
        {
          "internalType": "string",
          "name": "description",
          "type": "string"
        },
        {
          "internalType": "bool",
          "name": "isOpen",
          "type": "bool"
        },
        {
          "internalType": "uint256",
          "name": "totalFunds",
          "type": "uint256"
        },
        {
          "internalType": "uint256",
          "name": "numBets",
          "type": "uint256"
        },
        {
          "internalType": "enum BettingContract.GameState",
          "name": "state",
          "type": "uint8"
        }
      ],
      "stateMutability": "view",
      "type": "function"
    },
    {
      "inputs": [],
      "name": "numGames",
      "outputs": [
        {
          "internalType": "uint256",
          "name": "",
          "type": "uint256"
        }
      ],
      "stateMutability": "view",
      "type": "function"
    },
    {
      "inputs": [],
      "name": "owner",
      "outputs": [
        {
          "internalType": "address",
          "name": "",
          "type": "address"
        }
      ],
      "stateMutability": "view",
      "type": "function"
    },
    {
      "inputs": [
        {
          "internalType": "uint256",
          "name": "_gameId",
          "type": "uint256"
        },
        {
          "internalType": "uint256",
          "name": "_betOption",
          "type": "uint256"
        }
      ],
      "name": "placeBet",
      "outputs": [],
      "stateMutability": "payable",
      "type": "function"
    },
    {
      "inputs": [
        {
          "internalType": "uint256",
          "name": "_gameId",
          "type": "uint256"
        }
      ],
      "name": "removeBet",
      "outputs": [],
      "stateMutability": "nonpayable",
      "type": "function"
    },
    {
      "inputs": [],
      "name": "testContract",
      "outputs": [
        {
          "internalType": "string",
          "name": "",
          "type": "string"
        }
      ],
      "stateMutability": "pure",
      "type": "function"
    },
    {
      "inputs": [
        {
          "internalType": "uint256",
          "name": "",
          "type": "uint256"
        },
        {
          "internalType": "uint256",
          "name": "",
          "type": "uint256"
        }
      ],
      "name": "winningBets",
      "outputs": [
        {
          "internalType": "uint256",
          "name": "",
          "type": "uint256"
        }
      ],
      "stateMutability": "view",
      "type": "function"
    }
  ],
  "bytecode": "0x608060405234801561001057600080fd5b5060006003819055506125a2806100286000396000f3fe6080604052600436106100a75760003560e01c80636a09f6be116100645780636a09f6be146101ad5780638da5cb5b146101ee578063c36631b414610219578063c3f010f714610244578063ee5892b01461026f578063f798f017146102ac576100a7565b8063117a5b90146100ac5780632d6ef310146100ed5780632ebc0504146101165780634544c48c1461013f5780634afe62b5146101685780635c2029a914610184575b600080fd5b3480156100b857600080fd5b506100d360048036038101906100ce9190611513565b6102d5565b6040516100e4959493929190611671565b60405180910390f35b3480156100f957600080fd5b50610114600480360381019061010f9190611513565b6103bd565b005b34801561012257600080fd5b5061013d60048036038101906101389190611800565b61050e565b005b34801561014b57600080fd5b5061016660048036038101906101619190611513565b6106b2565b005b610182600480360381019061017d9190611849565b610a4c565b005b34801561019057600080fd5b506101ab60048036038101906101a69190611513565b610ca3565b005b3480156101b957600080fd5b506101d460048036038101906101cf9190611849565b610f8e565b6040516101e5959493929190611912565b60405180910390f35b3480156101fa57600080fd5b50610203610ffe565b6040516102109190611965565b60405180910390f35b34801561022557600080fd5b5061022e611006565b60405161023b9190611980565b60405180910390f35b34801561025057600080fd5b50610259611043565b60405161026691906119a2565b60405180910390f35b34801561027b57600080fd5b5061029660048036038101906102919190611849565b611049565b6040516102a391906119a2565b60405180910390f35b3480156102b857600080fd5b506102d360048036038101906102ce9190611a85565b61107a565b005b600081815481106102e557600080fd5b906000526020600020906006020160009150905080600001805461030890611b10565b80601f016020809104026020016040519081016040528092919081815260200182805461033490611b10565b80156103815780601f1061035657610100808354040283529160200191610381565b820191906000526020600020905b81548152906001019060200180831161036457829003601f168201915b5050505050908060010160009054906101000a900460ff16908060030154908060040154908060050160009054906101000a900460ff16905085565b6103c5610ffe565b73ffffffffffffffffffffffffffffffffffffffff163373ffffffffffffffffffffffffffffffffffffffff16146103fc57600080fd5b6003548110610440576040517f08c379a000000000000000000000000000000000000000000000000000000000815260040161043790611b8d565b60405180910390fd5b600080828154811061045557610454611bad565b5b906000526020600020906006020190508060010160009054906101000a900460ff166104b6576040517f08c379a00000000000000000000000000000000000000000000000000000000081526004016104ad90611c28565b60405180910390fd5b60008160010160006101000a81548160ff0219169083151502179055507f71f4c9aec1b2c51302bcaf09a3f4985709759853536445493905081899603a218260405161050291906119a2565b60405180910390a15050565b60006040518060c00160405280838152602001600115158152602001600067ffffffffffffffff811115610545576105446116d5565b5b6040519080825280602002602001820160405280156105735781602001602082028036833780820191505090505b50815260200160008152602001600081526020016000600381111561059b5761059a6115fa565b5b815250908060018154018082558091505060019003906000526020600020906006020160009091909190915060008201518160000190816105dc9190611df4565b5060208201518160010160006101000a81548160ff021916908315150217905550604082015181600201908051906020019061061992919061145f565b50606082015181600301556080820151816004015560a08201518160050160006101000a81548160ff02191690836003811115610659576106586115fa565b5b021790555050506003600081548092919061067390611ef5565b91905055507fec7ff2cf87269be58abc820fec1f0d290b8132908dd4dd454f4e34cbf0aba08f816040516106a79190611980565b60405180910390a150565b6106ba610ffe565b73ffffffffffffffffffffffffffffffffffffffff163373ffffffffffffffffffffffffffffffffffffffff16146106f157600080fd5b60026003811115610705576107046115fa565b5b6000828154811061071957610718611bad565b5b906000526020600020906006020160050160009054906101000a900460ff16600381111561074a576107496115fa565b5b1461078a576040517f08c379a000000000000000000000000000000000000000000000000000000000815260040161078190611f89565b60405180910390fd5b600080828154811061079f5761079e611bad565b5b9060005260206000209060060201600301549050600060026000848152602001908152602001600020805490509050600081836107dc9190611fd8565b905060005b828110156109aa5760006002600087815260200190815260200160002082815481106108105761080f611bad565b5b906000526020600020015490506000600160008881526020019081526020016000206000838152602001908152602001600020905060016004811115610859576108586115fa565b5b8160040160009054906101000a900460ff16600481111561087d5761087c6115fa565b5b146108bd576040517f08c379a00000000000000000000000000000000000000000000000000000000081526004016108b490612055565b60405180910390fd5b8060000160009054906101000a900473ffffffffffffffffffffffffffffffffffffffff1673ffffffffffffffffffffffffffffffffffffffff166108fc859081150290604051600060405180830381858888f19350505050158015610927573d6000803e3d6000fd5b5060038160040160006101000a81548160ff021916908360048111156109505761094f6115fa565b5b02179055507fafc50e7fb00c9387da74f2f341d5c22aa896696cb64dfc3bafadad937413be77878260030154600360405161098d93929190612075565b60405180910390a1505080806109a290611ef5565b9150506107e1565b506003600085815481106109c1576109c0611bad565b5b906000526020600020906006020160050160006101000a81548160ff021916908360038111156109f4576109f36115fa565b5b02179055507f53e67379fd5ef04878470517f547c5213c707bd81b8c9a26dfd445b0ab86af51846002600087815260200190815260200160002085604051610a3e939291906121ba565b60405180910390a150505050565b6003548210610a90576040517f08c379a0000000000000000000000000000000000000000000000000000000008152600401610a8790611b8d565b60405180910390fd5b6000808381548110610aa557610aa4611bad565b5b906000526020600020906006020190508060010160009054906101000a900460ff16610b06576040517f08c379a0000000000000000000000000000000000000000000000000000000008152600401610afd90612244565b60405180910390fd5b60003411610b49576040517f08c379a0000000000000000000000000000000000000000000000000000000008152600401610b40906122d6565b60405180910390fd5b6000600160008581526020019081526020016000206000836004015481526020019081526020016000209050338160000160006101000a81548173ffffffffffffffffffffffffffffffffffffffff021916908373ffffffffffffffffffffffffffffffffffffffff16021790555034816001018190555083816002018190555082816003018190555060008160040160006101000a81548160ff02191690836004811115610bfb57610bfa6115fa565b5b02179055508160020182600401549080600181540180825580915050600190039060005260206000200160009091909190915055816004016000815480929190610c4490611ef5565b919050555034826003016000828254610c5d91906122f6565b925050819055507fbb5d359abfa911f55d10e5b1fe62141092342ccba0734899a68c3cdb935b5a578484604051610c9592919061232a565b60405180910390a150505050565b6003548110610ce7576040517f08c379a0000000000000000000000000000000000000000000000000000000008152600401610cde90611b8d565b60405180910390fd5b6000808281548110610cfc57610cfb611bad565b5b906000526020600020906006020190508060010160009054906101000a900460ff16610d5d576040517f08c379a0000000000000000000000000000000000000000000000000000000008152600401610d5490612244565b60405180910390fd5b600081600201905060005b8180549050811015610f8857600060016000868152602001908152602001600020600083815260200190815260200160002090503373ffffffffffffffffffffffffffffffffffffffff168160000160009054906101000a900473ffffffffffffffffffffffffffffffffffffffff1673ffffffffffffffffffffffffffffffffffffffff1603610f74573373ffffffffffffffffffffffffffffffffffffffff166108fc82600101549081150290604051600060405180830381858888f19350505050158015610e3d573d6000803e3d6000fd5b508260018480549050610e509190612353565b81548110610e6157610e60611bad565b5b9060005260206000200154838381548110610e7f57610e7e611bad565b5b906000526020600020018190555082805480610e9e57610e9d612387565b5b600190038181906000526020600020016000905590557fafc50e7fb00c9387da74f2f341d5c22aa896696cb64dfc3bafadad937413be778582600301546004604051610eec93929190612075565b60405180910390a1600160008681526020019081526020016000206000838152602001908152602001600020600080820160006101000a81549073ffffffffffffffffffffffffffffffffffffffff02191690556001820160009055600282016000905560038201600090556004820160006101000a81549060ff0219169055505050610f88565b508080610f8090611ef5565b915050610d68565b50505050565b6001602052816000526040600020602052806000526040600020600091509150508060000160009054906101000a900473ffffffffffffffffffffffffffffffffffffffff16908060010154908060020154908060030154908060040160009054906101000a900460ff16905085565b600030905090565b60606040518060400160405280600881526020017f48456c6c4f4f4f4f000000000000000000000000000000000000000000000000815250905090565b60035481565b6002602052816000526040600020818154811061106557600080fd5b90600052602060002001600091509150505481565b611082610ffe565b73ffffffffffffffffffffffffffffffffffffffff163373ffffffffffffffffffffffffffffffffffffffff16146110b957600080fd5b600060038111156110cd576110cc6115fa565b5b600083815481106110e1576110e0611bad565b5b906000526020600020906006020160050160009054906101000a900460ff166003811115611112576111116115fa565b5b14611152576040517f08c379a000000000000000000000000000000000000000000000000000000000815260040161114990612244565b60405180910390fd5b6000815111611196576040517f08c379a000000000000000000000000000000000000000000000000000000000815260040161118d90612428565b60405180910390fd5b600082815481106111aa576111a9611bad565b5b906000526020600020906006020160040154815111156111ff576040517f08c379a00000000000000000000000000000000000000000000000000000000081526004016111f6906124ba565b60405180910390fd5b60005b815181101561130c5760008282815181106112205761121f611bad565b5b602002602001015190506000600160008681526020019081526020016000206000838152602001908152602001600020905060006004811115611266576112656115fa565b5b8160040160009054906101000a900460ff16600481111561128a576112896115fa565b5b146112ca576040517f08c379a00000000000000000000000000000000000000000000000000000000081526004016112c19061254c565b60405180910390fd5b60018160040160006101000a81548160ff021916908360048111156112f2576112f16115fa565b5b02179055505050808061130490611ef5565b915050611202565b5060005b6000838154811061132457611323611bad565b5b9060005260206000209060060201600401548110156113e4576000600160008581526020019081526020016000206000838152602001908152602001600020905060006004811115611379576113786115fa565b5b8160040160009054906101000a900460ff16600481111561139d5761139c6115fa565b5b036113d05760028160040160006101000a81548160ff021916908360048111156113ca576113c96115fa565b5b02179055505b5080806113dc90611ef5565b915050611310565b508060026000848152602001908152602001600020908051906020019061140c92919061145f565b5060026000838154811061142357611422611bad565b5b906000526020600020906006020160050160006101000a81548160ff02191690836003811115611456576114556115fa565b5b02179055505050565b82805482825590600052602060002090810192821561149b579160200282015b8281111561149a57825182559160200191906001019061147f565b5b5090506114a891906114ac565b5090565b5b808211156114c55760008160009055506001016114ad565b5090565b6000604051905090565b600080fd5b600080fd5b6000819050919050565b6114f0816114dd565b81146114fb57600080fd5b50565b60008135905061150d816114e7565b92915050565b600060208284031215611529576115286114d3565b5b6000611537848285016114fe565b91505092915050565b600081519050919050565b600082825260208201905092915050565b60005b8381101561157a57808201518184015260208101905061155f565b60008484015250505050565b6000601f19601f8301169050919050565b60006115a282611540565b6115ac818561154b565b93506115bc81856020860161155c565b6115c581611586565b840191505092915050565b60008115159050919050565b6115e5816115d0565b82525050565b6115f4816114dd565b82525050565b7f4e487b7100000000000000000000000000000000000000000000000000000000600052602160045260246000fd5b6004811061163a576116396115fa565b5b50565b600081905061164b82611629565b919050565b600061165b8261163d565b9050919050565b61166b81611650565b82525050565b600060a082019050818103600083015261168b8188611597565b905061169a60208301876115dc565b6116a760408301866115eb565b6116b460608301856115eb565b6116c16080830184611662565b9695505050505050565b600080fd5b600080fd5b7f4e487b7100000000000000000000000000000000000000000000000000000000600052604160045260246000fd5b61170d82611586565b810181811067ffffffffffffffff8211171561172c5761172b6116d5565b5b80604052505050565b600061173f6114c9565b905061174b8282611704565b919050565b600067ffffffffffffffff82111561176b5761176a6116d5565b5b61177482611586565b9050602081019050919050565b82818337600083830152505050565b60006117a361179e84611750565b611735565b9050828152602081018484840111156117bf576117be6116d0565b5b6117ca848285611781565b509392505050565b600082601f8301126117e7576117e66116cb565b5b81356117f7848260208601611790565b91505092915050565b600060208284031215611816576118156114d3565b5b600082013567ffffffffffffffff811115611834576118336114d8565b5b611840848285016117d2565b91505092915050565b600080604083850312156118605761185f6114d3565b5b600061186e858286016114fe565b925050602061187f858286016114fe565b9150509250929050565b600073ffffffffffffffffffffffffffffffffffffffff82169050919050565b60006118b482611889565b9050919050565b6118c4816118a9565b82525050565b600581106118db576118da6115fa565b5b50565b60008190506118ec826118ca565b919050565b60006118fc826118de565b9050919050565b61190c816118f1565b82525050565b600060a08201905061192760008301886118bb565b61193460208301876115eb565b61194160408301866115eb565b61194e60608301856115eb565b61195b6080830184611903565b9695505050505050565b600060208201905061197a60008301846118bb565b92915050565b6000602082019050818103600083015261199a8184611597565b905092915050565b60006020820190506119b760008301846115eb565b92915050565b600067ffffffffffffffff8211156119d8576119d76116d5565b5b602082029050602081019050919050565b600080fd5b6000611a016119fc846119bd565b611735565b90508083825260208201905060208402830185811115611a2457611a236119e9565b5b835b81811015611a4d5780611a3988826114fe565b845260208401935050602081019050611a26565b5050509392505050565b600082601f830112611a6c57611a6b6116cb565b5b8135611a7c8482602086016119ee565b91505092915050565b60008060408385031215611a9c57611a9b6114d3565b5b6000611aaa858286016114fe565b925050602083013567ffffffffffffffff811115611acb57611aca6114d8565b5b611ad785828601611a57565b9150509250929050565b7f4e487b7100000000000000000000000000000000000000000000000000000000600052602260045260246000fd5b60006002820490506001821680611b2857607f821691505b602082108103611b3b57611b3a611ae1565b5b50919050565b7f496e76616c69642067616d652049440000000000000000000000000000000000600082015250565b6000611b77600f8361154b565b9150611b8282611b41565b602082019050919050565b60006020820190508181036000830152611ba681611b6a565b9050919050565b7f4e487b7100000000000000000000000000000000000000000000000000000000600052603260045260246000fd5b7f47616d6520697320616c726561647920636c6f73656400000000000000000000600082015250565b6000611c1260168361154b565b9150611c1d82611bdc565b602082019050919050565b60006020820190508181036000830152611c4181611c05565b9050919050565b60008190508160005260206000209050919050565b60006020601f8301049050919050565b600082821b905092915050565b600060088302611caa7fffffffffffffffffffffffffffffffffffffffffffffffffffffffffffffffff82611c6d565b611cb48683611c6d565b95508019841693508086168417925050509392505050565b6000819050919050565b6000611cf1611cec611ce7846114dd565b611ccc565b6114dd565b9050919050565b6000819050919050565b611d0b83611cd6565b611d1f611d1782611cf8565b848454611c7a565b825550505050565b600090565b611d34611d27565b611d3f818484611d02565b505050565b5b81811015611d6357611d58600082611d2c565b600181019050611d45565b5050565b601f821115611da857611d7981611c48565b611d8284611c5d565b81016020851015611d91578190505b611da5611d9d85611c5d565b830182611d44565b50505b505050565b600082821c905092915050565b6000611dcb60001984600802611dad565b1980831691505092915050565b6000611de48383611dba565b9150826002028217905092915050565b611dfd82611540565b67ffffffffffffffff811115611e1657611e156116d5565b5b611e208254611b10565b611e2b828285611d67565b600060209050601f831160018114611e5e5760008415611e4c578287015190505b611e568582611dd8565b865550611ebe565b601f198416611e6c86611c48565b60005b82811015611e9457848901518255600182019150602085019450602081019050611e6f565b86831015611eb15784890151611ead601f891682611dba565b8355505b6001600288020188555050505b505050505050565b7f4e487b7100000000000000000000000000000000000000000000000000000000600052601160045260246000fd5b6000611f00826114dd565b91507fffffffffffffffffffffffffffffffffffffffffffffffffffffffffffffffff8203611f3257611f31611ec6565b5b600182019050919050565b7f47616d65206973206e6f742077616974696e6720666f722077696e6e65727300600082015250565b6000611f73601f8361154b565b9150611f7e82611f3d565b602082019050919050565b60006020820190508181036000830152611fa281611f66565b9050919050565b7f4e487b7100000000000000000000000000000000000000000000000000000000600052601260045260246000fd5b6000611fe3826114dd565b9150611fee836114dd565b925082611ffe57611ffd611fa9565b5b828204905092915050565b7f426574206973206e6f7420612077696e6e696e67206265740000000000000000600082015250565b600061203f60188361154b565b915061204a82612009565b602082019050919050565b6000602082019050818103600083015261206e81612032565b9050919050565b600060608201905061208a60008301866115eb565b61209760208301856115eb565b6120a46040830184611903565b949350505050565b600081549050919050565b600082825260208201905092915050565b60008190508160005260206000209050919050565b6120e6816114dd565b82525050565b60006120f883836120dd565b60208301905092915050565b60008160001c9050919050565b6000819050919050565b600061212e61212983612104565b612111565b9050919050565b6000612141825461211b565b9050919050565b6000600182019050919050565b6000612160826120ac565b61216a81856120b7565b9350612175836120c8565b8060005b838110156121ad5761218a82612135565b61219488826120ec565b975061219f83612148565b925050600181019050612179565b5085935050505092915050565b60006060820190506121cf60008301866115eb565b81810360208301526121e18185612155565b90506121f060408301846115eb565b949350505050565b7f47616d65206973206e6f74206f70656e00000000000000000000000000000000600082015250565b600061222e60108361154b565b9150612239826121f8565b602082019050919050565b6000602082019050818103600083015261225d81612221565b9050919050565b7f42657420616d6f756e74206d7573742062652067726561746572207468616e2060008201527f3000000000000000000000000000000000000000000000000000000000000000602082015250565b60006122c060218361154b565b91506122cb82612264565b604082019050919050565b600060208201905081810360008301526122ef816122b3565b9050919050565b6000612301826114dd565b915061230c836114dd565b925082820190508082111561232457612323611ec6565b5b92915050565b600060408201905061233f60008301856115eb565b61234c60208301846115eb565b9392505050565b600061235e826114dd565b9150612369836114dd565b925082820390508181111561238157612380611ec6565b5b92915050565b7f4e487b7100000000000000000000000000000000000000000000000000000000600052603160045260246000fd5b7f4174206c65617374206f6e652077696e6e696e6720626574206d75737420626560008201527f2070726f76696465640000000000000000000000000000000000000000000000602082015250565b600061241260298361154b565b915061241d826123b6565b604082019050919050565b6000602082019050818103600083015261244181612405565b9050919050565b7f496e76616c6964206e756d626572206f662077696e6e696e672062657473207060008201527f726f766964656400000000000000000000000000000000000000000000000000602082015250565b60006124a460278361154b565b91506124af82612448565b604082019050919050565b600060208201905081810360008301526124d381612497565b9050919050565b7f42657420697320616c7265616479206465636c6172656420617320612077696e60008201527f6e6572206f72206c6f7365720000000000000000000000000000000000000000602082015250565b6000612536602c8361154b565b9150612541826124da565b604082019050919050565b6000602082019050818103600083015261256581612529565b905091905056fea2646970667358221220bd0998b40553ea99e802e6fc3ccb0481d255af0246040f80461539bfa08908b564736f6c63430008130033",
  "linkReferences": {},
  "deployedLinkReferences": {}
}